{
	"rockpsciccors.sol": {
		"RockPaperScissors": {
			"abi": [
				{
					"inputs": [],
					"stateMutability": "nonpayable",
					"type": "constructor"
				},
				{
					"inputs": [],
					"name": "bothPlayed",
					"outputs": [
						{
							"internalType": "bool",
							"name": "",
							"type": "bool"
						}
					],
					"stateMutability": "view",
					"type": "function"
				},
				{
					"inputs": [],
					"name": "bothRevealed",
					"outputs": [
						{
							"internalType": "bool",
							"name": "",
							"type": "bool"
						}
					],
					"stateMutability": "view",
					"type": "function"
				},
				{
					"inputs": [],
					"name": "contractBalance",
					"outputs": [
						{
							"internalType": "uint256",
							"name": "",
							"type": "uint256"
						}
					],
					"stateMutability": "view",
					"type": "function"
				},
				{
					"inputs": [],
					"name": "gameFinished",
					"outputs": [
						{
							"internalType": "bool",
							"name": "",
							"type": "bool"
						}
					],
					"stateMutability": "view",
					"type": "function"
				},
				{
					"inputs": [
						{
							"internalType": "address",
							"name": "",
							"type": "address"
						}
					],
					"name": "games",
					"outputs": [
						{
							"internalType": "address",
							"name": "player",
							"type": "address"
						},
						{
							"internalType": "bytes32",
							"name": "hashedMove",
							"type": "bytes32"
						},
						{
							"internalType": "enum RockPaperScissors.Move",
							"name": "move",
							"type": "uint8"
						},
						{
							"internalType": "string",
							"name": "clearMove",
							"type": "string"
						},
						{
							"internalType": "bool",
							"name": "revealed",
							"type": "bool"
						}
					],
					"stateMutability": "view",
					"type": "function"
				},
				{
					"inputs": [],
					"name": "getContractBalance",
					"outputs": [
						{
							"internalType": "uint256",
							"name": "",
							"type": "uint256"
						}
					],
					"stateMutability": "view",
					"type": "function"
				},
				{
					"inputs": [],
					"name": "minimumBet",
					"outputs": [
						{
							"internalType": "uint256",
							"name": "",
							"type": "uint256"
						}
					],
					"stateMutability": "view",
					"type": "function"
				},
				{
					"inputs": [
						{
							"internalType": "bytes32",
							"name": "encrMove",
							"type": "bytes32"
						}
					],
					"name": "play",
					"outputs": [],
					"stateMutability": "nonpayable",
					"type": "function"
				},
				{
					"inputs": [],
					"name": "player1",
					"outputs": [
						{
							"internalType": "address payable",
							"name": "",
							"type": "address"
						}
					],
					"stateMutability": "view",
					"type": "function"
				},
				{
					"inputs": [],
					"name": "player2",
					"outputs": [
						{
							"internalType": "address payable",
							"name": "",
							"type": "address"
						}
					],
					"stateMutability": "view",
					"type": "function"
				},
				{
					"inputs": [],
					"name": "register",
					"outputs": [],
					"stateMutability": "payable",
					"type": "function"
				},
				{
					"inputs": [
						{
							"internalType": "string",
							"name": "clearMove",
							"type": "string"
						}
					],
					"name": "reveal",
					"outputs": [],
					"stateMutability": "nonpayable",
					"type": "function"
				},
				{
					"inputs": [],
					"name": "revealTimeLeft",
					"outputs": [
						{
							"internalType": "uint256",
							"name": "",
							"type": "uint256"
						}
					],
					"stateMutability": "view",
					"type": "function"
				},
				{
					"inputs": [],
					"name": "whoAmI",
					"outputs": [
						{
							"internalType": "uint256",
							"name": "",
							"type": "uint256"
						}
					],
					"stateMutability": "view",
					"type": "function"
				}
			],
			"devdoc": {
				"kind": "dev",
				"methods": {},
				"version": 1
			},
			"evm": {
				"assembly": "    /* \"rockpsciccors.sol\":61:4497  contract RockPaperScissors {... */\n  mstore(0x40, 0x80)\n    /* \"rockpsciccors.sol\":197:209  0.0001 ether */\n  0x5af3107a4000\n    /* \"rockpsciccors.sol\":169:209  uint256 public minimumBet = 0.0001 ether */\n  0x02\n  sstore\n    /* \"rockpsciccors.sol\":821:923  constructor() {... */\n  callvalue\n  dup1\n  iszero\n  tag_1\n  jumpi\n  0x00\n  dup1\n  revert\ntag_1:\n  pop\n    /* \"rockpsciccors.sol\":872:873  0 */\n  0x00\n    /* \"rockpsciccors.sol\":846:853  player1 */\n  dup1\n  0x00\n    /* \"rockpsciccors.sol\":846:875  player1 = payable(address(0)) */\n  0x0100\n  exp\n  dup2\n  sload\n  dup2\n  0xffffffffffffffffffffffffffffffffffffffff\n  mul\n  not\n  and\n  swap1\n  dup4\n  0xffffffffffffffffffffffffffffffffffffffff\n  and\n  mul\n  or\n  swap1\n  sstore\n  pop\n    /* \"rockpsciccors.sol\":912:913  0 */\n  0x00\n    /* \"rockpsciccors.sol\":886:893  player2 */\n  0x01\n  0x00\n    /* \"rockpsciccors.sol\":886:915  player2 = payable(address(0)) */\n  0x0100\n  exp\n  dup2\n  sload\n  dup2\n  0xffffffffffffffffffffffffffffffffffffffff\n  mul\n  not\n  and\n  swap1\n  dup4\n  0xffffffffffffffffffffffffffffffffffffffff\n  and\n  mul\n  or\n  swap1\n  sstore\n  pop\n    /* \"rockpsciccors.sol\":61:4497  contract RockPaperScissors {... */\n  dataSize(sub_0)\n  dup1\n  dataOffset(sub_0)\n  0x00\n  codecopy\n  0x00\n  return\nstop\n\nsub_0: assembly {\n        /* \"rockpsciccors.sol\":61:4497  contract RockPaperScissors {... */\n      mstore(0x40, 0x80)\n      jumpi(tag_1, lt(calldatasize, 0x04))\n      shr(0xe0, calldataload(0x00))\n      dup1\n      0x807c8504\n      gt\n      tag_16\n      jumpi\n      dup1\n      0xc7a1865b\n      gt\n      tag_17\n      jumpi\n      dup1\n      0xc7a1865b\n      eq\n      tag_12\n      jumpi\n      dup1\n      0xd30895e4\n      eq\n      tag_13\n      jumpi\n      dup1\n      0xda91254c\n      eq\n      tag_14\n      jumpi\n      dup1\n      0xf0f32497\n      eq\n      tag_15\n      jumpi\n      jump(tag_1)\n    tag_17:\n      dup1\n      0x807c8504\n      eq\n      tag_9\n      jumpi\n      dup1\n      0x8b7afe2e\n      eq\n      tag_10\n      jumpi\n      dup1\n      0xc38a8afd\n      eq\n      tag_11\n      jumpi\n      jump(tag_1)\n    tag_16:\n      dup1\n      0x51dcb1c3\n      gt\n      tag_18\n      jumpi\n      dup1\n      0x51dcb1c3\n      eq\n      tag_5\n      jumpi\n      dup1\n      0x59a5f12d\n      eq\n      tag_6\n      jumpi\n      dup1\n      0x6f9fb98a\n      eq\n      tag_7\n      jumpi\n      dup1\n      0x79131a19\n      eq\n      tag_8\n      jumpi\n      jump(tag_1)\n    tag_18:\n      dup1\n      0x1aa3a008\n      eq\n      tag_2\n      jumpi\n      dup1\n      0x43445ca8\n      eq\n      tag_3\n      jumpi\n      dup1\n      0x4c261247\n      eq\n      tag_4\n      jumpi\n    tag_1:\n      0x00\n      dup1\n      revert\n        /* \"rockpsciccors.sol\":931:1324  function register() external payable gameNotFinished {... */\n    tag_2:\n      tag_19\n      tag_20\n      jump\t// in\n    tag_19:\n      stop\n        /* \"rockpsciccors.sol\":4035:4164  function bothRevealed() external view returns (bool) {... */\n    tag_3:\n      callvalue\n      dup1\n      iszero\n      tag_21\n      jumpi\n      0x00\n      dup1\n      revert\n    tag_21:\n      pop\n      tag_22\n      tag_23\n      jump\t// in\n    tag_22:\n      mload(0x40)\n      tag_24\n      swap2\n      swap1\n      tag_25\n      jump\t// in\n    tag_24:\n      mload(0x40)\n      dup1\n      swap2\n      sub\n      swap1\n      return\n        /* \"rockpsciccors.sol\":1565:2137  function reveal(string memory clearMove) external onlyRegisteredPlayers gameNotFinished {... */\n    tag_4:\n      callvalue\n      dup1\n      iszero\n      tag_26\n      jumpi\n      0x00\n      dup1\n      revert\n    tag_26:\n      pop\n      tag_27\n      0x04\n      dup1\n      calldatasize\n      sub\n      dup2\n      add\n      swap1\n      tag_28\n      swap2\n      swap1\n      tag_29\n      jump\t// in\n    tag_28:\n      tag_30\n      jump\t// in\n    tag_27:\n      stop\n        /* \"rockpsciccors.sol\":4172:4494  function revealTimeLeft() external view returns (uint256) {... */\n    tag_5:\n      callvalue\n      dup1\n      iszero\n      tag_31\n      jumpi\n      0x00\n      dup1\n      revert\n    tag_31:\n      pop\n      tag_32\n      tag_33\n      jump\t// in\n    tag_32:\n      mload(0x40)\n      tag_34\n      swap2\n      swap1\n      tag_35\n      jump\t// in\n    tag_34:\n      mload(0x40)\n      dup1\n      swap2\n      sub\n      swap1\n      return\n        /* \"rockpsciccors.sol\":132:162  address payable public player2 */\n    tag_6:\n      callvalue\n      dup1\n      iszero\n      tag_36\n      jumpi\n      0x00\n      dup1\n      revert\n    tag_36:\n      pop\n      tag_37\n      tag_38\n      jump\t// in\n    tag_37:\n      mload(0x40)\n      tag_39\n      swap2\n      swap1\n      tag_40\n      jump\t// in\n    tag_39:\n      mload(0x40)\n      dup1\n      swap2\n      sub\n      swap1\n      return\n        /* \"rockpsciccors.sol\":3504:3613  function getContractBalance() external view returns (uint256) {... */\n    tag_7:\n      callvalue\n      dup1\n      iszero\n      tag_41\n      jumpi\n      0x00\n      dup1\n      revert\n    tag_41:\n      pop\n      tag_42\n      tag_43\n      jump\t// in\n    tag_42:\n      mload(0x40)\n      tag_44\n      swap2\n      swap1\n      tag_35\n      jump\t// in\n    tag_44:\n      mload(0x40)\n      dup1\n      swap2\n      sub\n      swap1\n      return\n        /* \"rockpsciccors.sol\":457:494  mapping(address => Game) public games */\n    tag_8:\n      callvalue\n      dup1\n      iszero\n      tag_45\n      jumpi\n      0x00\n      dup1\n      revert\n    tag_45:\n      pop\n      tag_46\n      0x04\n      dup1\n      calldatasize\n      sub\n      dup2\n      add\n      swap1\n      tag_47\n      swap2\n      swap1\n      tag_48\n      jump\t// in\n    tag_47:\n      tag_49\n      jump\t// in\n    tag_46:\n      mload(0x40)\n      tag_50\n      swap6\n      swap5\n      swap4\n      swap3\n      swap2\n      swap1\n      tag_51\n      jump\t// in\n    tag_50:\n      mload(0x40)\n      dup1\n      swap2\n      sub\n      swap1\n      return\n        /* \"rockpsciccors.sol\":3868:4027  function bothPlayed() external view returns (bool) {... */\n    tag_9:\n      callvalue\n      dup1\n      iszero\n      tag_52\n      jumpi\n      0x00\n      dup1\n      revert\n    tag_52:\n      pop\n      tag_53\n      tag_54\n      jump\t// in\n    tag_53:\n      mload(0x40)\n      tag_55\n      swap2\n      swap1\n      tag_25\n      jump\t// in\n    tag_55:\n      mload(0x40)\n      dup1\n      swap2\n      sub\n      swap1\n      return\n        /* \"rockpsciccors.sol\":216:246  uint256 public contractBalance */\n    tag_10:\n      callvalue\n      dup1\n      iszero\n      tag_56\n      jumpi\n      0x00\n      dup1\n      revert\n    tag_56:\n      pop\n      tag_57\n      tag_58\n      jump\t// in\n    tag_57:\n      mload(0x40)\n      tag_59\n      swap2\n      swap1\n      tag_35\n      jump\t// in\n    tag_59:\n      mload(0x40)\n      dup1\n      swap2\n      sub\n      swap1\n      return\n        /* \"rockpsciccors.sol\":169:209  uint256 public minimumBet = 0.0001 ether */\n    tag_11:\n      callvalue\n      dup1\n      iszero\n      tag_60\n      jumpi\n      0x00\n      dup1\n      revert\n    tag_60:\n      pop\n      tag_61\n      tag_62\n      jump\t// in\n    tag_61:\n      mload(0x40)\n      tag_63\n      swap2\n      swap1\n      tag_35\n      jump\t// in\n    tag_63:\n      mload(0x40)\n      dup1\n      swap2\n      sub\n      swap1\n      return\n        /* \"rockpsciccors.sol\":1332:1557  function play(bytes32 encrMove) external onlyRegisteredPlayers gameNotFinished {... */\n    tag_12:\n      callvalue\n      dup1\n      iszero\n      tag_64\n      jumpi\n      0x00\n      dup1\n      revert\n    tag_64:\n      pop\n      tag_65\n      0x04\n      dup1\n      calldatasize\n      sub\n      dup2\n      add\n      swap1\n      tag_66\n      swap2\n      swap1\n      tag_67\n      jump\t// in\n    tag_66:\n      tag_68\n      jump\t// in\n    tag_65:\n      stop\n        /* \"rockpsciccors.sol\":95:125  address payable public player1 */\n    tag_13:\n      callvalue\n      dup1\n      iszero\n      tag_69\n      jumpi\n      0x00\n      dup1\n      revert\n    tag_69:\n      pop\n      tag_70\n      tag_71\n      jump\t// in\n    tag_70:\n      mload(0x40)\n      tag_72\n      swap2\n      swap1\n      tag_40\n      jump\t// in\n    tag_72:\n      mload(0x40)\n      dup1\n      swap2\n      sub\n      swap1\n      return\n        /* \"rockpsciccors.sol\":3621:3860  function whoAmI() external view returns (uint256) {... */\n    tag_14:\n      callvalue\n      dup1\n      iszero\n      tag_73\n      jumpi\n      0x00\n      dup1\n      revert\n    tag_73:\n      pop\n      tag_74\n      tag_75\n      jump\t// in\n    tag_74:\n      mload(0x40)\n      tag_76\n      swap2\n      swap1\n      tag_35\n      jump\t// in\n    tag_76:\n      mload(0x40)\n      dup1\n      swap2\n      sub\n      swap1\n      return\n        /* \"rockpsciccors.sol\":501:525  bool public gameFinished */\n    tag_15:\n      callvalue\n      dup1\n      iszero\n      tag_77\n      jumpi\n      0x00\n      dup1\n      revert\n    tag_77:\n      pop\n      tag_78\n      tag_79\n      jump\t// in\n    tag_78:\n      mload(0x40)\n      tag_80\n      swap2\n      swap1\n      tag_25\n      jump\t// in\n    tag_80:\n      mload(0x40)\n      dup1\n      swap2\n      sub\n      swap1\n      return\n        /* \"rockpsciccors.sol\":931:1324  function register() external payable gameNotFinished {... */\n    tag_20:\n        /* \"rockpsciccors.sol\":747:759  gameFinished */\n      0x05\n      0x00\n      swap1\n      sload\n      swap1\n      0x0100\n      exp\n      swap1\n      div\n      0xff\n      and\n        /* \"rockpsciccors.sol\":746:759  !gameFinished */\n      iszero\n        /* \"rockpsciccors.sol\":738:793  require(!gameFinished, \"The game is already finished.\") */\n      tag_82\n      jumpi\n      mload(0x40)\n      0x08c379a000000000000000000000000000000000000000000000000000000000\n      dup2\n      mstore\n      0x04\n      add\n      tag_83\n      swap1\n      tag_84\n      jump\t// in\n    tag_83:\n      mload(0x40)\n      dup1\n      swap2\n      sub\n      swap1\n      revert\n    tag_82:\n        /* \"rockpsciccors.sol\":1016:1026  minimumBet */\n      sload(0x02)\n        /* \"rockpsciccors.sol\":1003:1012  msg.value */\n      callvalue\n        /* \"rockpsciccors.sol\":1003:1026  msg.value >= minimumBet */\n      lt\n      iszero\n        /* \"rockpsciccors.sol\":995:1055  require(msg.value >= minimumBet, \"Insufficient bet amount.\") */\n      tag_86\n      jumpi\n      mload(0x40)\n      0x08c379a000000000000000000000000000000000000000000000000000000000\n      dup2\n      mstore\n      0x04\n      add\n      tag_87\n      swap1\n      tag_88\n      jump\t// in\n    tag_87:\n      mload(0x40)\n      dup1\n      swap2\n      sub\n      swap1\n      revert\n    tag_86:\n        /* \"rockpsciccors.sol\":1089:1090  0 */\n      0x00\n        /* \"rockpsciccors.sol\":1070:1091  player1 == address(0) */\n      0xffffffffffffffffffffffffffffffffffffffff\n      and\n        /* \"rockpsciccors.sol\":1070:1077  player1 */\n      0x00\n      dup1\n      sload\n      swap1\n      0x0100\n      exp\n      swap1\n      div\n      0xffffffffffffffffffffffffffffffffffffffff\n      and\n        /* \"rockpsciccors.sol\":1070:1091  player1 == address(0) */\n      0xffffffffffffffffffffffffffffffffffffffff\n      and\n      sub\n        /* \"rockpsciccors.sol\":1066:1317  if (player1 == address(0)) {... */\n      tag_89\n      jumpi\n        /* \"rockpsciccors.sol\":1126:1136  msg.sender */\n      caller\n        /* \"rockpsciccors.sol\":1108:1115  player1 */\n      0x00\n      dup1\n        /* \"rockpsciccors.sol\":1108:1137  player1 = payable(msg.sender) */\n      0x0100\n      exp\n      dup2\n      sload\n      dup2\n      0xffffffffffffffffffffffffffffffffffffffff\n      mul\n      not\n      and\n      swap1\n      dup4\n      0xffffffffffffffffffffffffffffffffffffffff\n      and\n      mul\n      or\n      swap1\n      sstore\n      pop\n        /* \"rockpsciccors.sol\":1066:1317  if (player1 == address(0)) {... */\n      jump(tag_90)\n    tag_89:\n        /* \"rockpsciccors.sol\":1178:1179  0 */\n      0x00\n        /* \"rockpsciccors.sol\":1159:1180  player2 == address(0) */\n      0xffffffffffffffffffffffffffffffffffffffff\n      and\n        /* \"rockpsciccors.sol\":1159:1166  player2 */\n      0x01\n      0x00\n      swap1\n      sload\n      swap1\n      0x0100\n      exp\n      swap1\n      div\n      0xffffffffffffffffffffffffffffffffffffffff\n      and\n        /* \"rockpsciccors.sol\":1159:1180  player2 == address(0) */\n      0xffffffffffffffffffffffffffffffffffffffff\n      and\n      sub\n        /* \"rockpsciccors.sol\":1155:1317  if (player2 == address(0)) {... */\n      tag_91\n      jumpi\n        /* \"rockpsciccors.sol\":1215:1225  msg.sender */\n      caller\n        /* \"rockpsciccors.sol\":1197:1204  player2 */\n      0x01\n      0x00\n        /* \"rockpsciccors.sol\":1197:1226  player2 = payable(msg.sender) */\n      0x0100\n      exp\n      dup2\n      sload\n      dup2\n      0xffffffffffffffffffffffffffffffffffffffff\n      mul\n      not\n      and\n      swap1\n      dup4\n      0xffffffffffffffffffffffffffffffffffffffff\n      and\n      mul\n      or\n      swap1\n      sstore\n      pop\n        /* \"rockpsciccors.sol\":1155:1317  if (player2 == address(0)) {... */\n      jump(tag_92)\n    tag_91:\n        /* \"rockpsciccors.sol\":1259:1305  revert(\"Both players are already registered.\") */\n      mload(0x40)\n      0x08c379a000000000000000000000000000000000000000000000000000000000\n      dup2\n      mstore\n      0x04\n      add\n      tag_93\n      swap1\n      tag_94\n      jump\t// in\n    tag_93:\n      mload(0x40)\n      dup1\n      swap2\n      sub\n      swap1\n      revert\n        /* \"rockpsciccors.sol\":1155:1317  if (player2 == address(0)) {... */\n    tag_92:\n        /* \"rockpsciccors.sol\":1066:1317  if (player1 == address(0)) {... */\n    tag_90:\n        /* \"rockpsciccors.sol\":931:1324  function register() external payable gameNotFinished {... */\n      jump\t// out\n        /* \"rockpsciccors.sol\":4035:4164  function bothRevealed() external view returns (bool) {... */\n    tag_23:\n        /* \"rockpsciccors.sol\":4082:4086  bool */\n      0x00\n        /* \"rockpsciccors.sol\":4106:4111  games */\n      0x04\n        /* \"rockpsciccors.sol\":4106:4120  games[player1] */\n      0x00\n        /* \"rockpsciccors.sol\":4112:4119  player1 */\n      dup1\n      0x00\n      swap1\n      sload\n      swap1\n      0x0100\n      exp\n      swap1\n      div\n      0xffffffffffffffffffffffffffffffffffffffff\n      and\n        /* \"rockpsciccors.sol\":4106:4120  games[player1] */\n      0xffffffffffffffffffffffffffffffffffffffff\n      and\n      0xffffffffffffffffffffffffffffffffffffffff\n      and\n      dup2\n      mstore\n      0x20\n      add\n      swap1\n      dup2\n      mstore\n      0x20\n      add\n      0x00\n      keccak256\n        /* \"rockpsciccors.sol\":4106:4129  games[player1].revealed */\n      0x04\n      add\n      0x00\n      swap1\n      sload\n      swap1\n      0x0100\n      exp\n      swap1\n      div\n      0xff\n      and\n        /* \"rockpsciccors.sol\":4106:4156  games[player1].revealed && games[player2].revealed */\n      dup1\n      iszero\n      tag_96\n      jumpi\n      pop\n        /* \"rockpsciccors.sol\":4133:4138  games */\n      0x04\n        /* \"rockpsciccors.sol\":4133:4147  games[player2] */\n      0x00\n        /* \"rockpsciccors.sol\":4139:4146  player2 */\n      0x01\n      0x00\n      swap1\n      sload\n      swap1\n      0x0100\n      exp\n      swap1\n      div\n      0xffffffffffffffffffffffffffffffffffffffff\n      and\n        /* \"rockpsciccors.sol\":4133:4147  games[player2] */\n      0xffffffffffffffffffffffffffffffffffffffff\n      and\n      0xffffffffffffffffffffffffffffffffffffffff\n      and\n      dup2\n      mstore\n      0x20\n      add\n      swap1\n      dup2\n      mstore\n      0x20\n      add\n      0x00\n      keccak256\n        /* \"rockpsciccors.sol\":4133:4156  games[player2].revealed */\n      0x04\n      add\n      0x00\n      swap1\n      sload\n      swap1\n      0x0100\n      exp\n      swap1\n      div\n      0xff\n      and\n        /* \"rockpsciccors.sol\":4106:4156  games[player1].revealed && games[player2].revealed */\n    tag_96:\n        /* \"rockpsciccors.sol\":4099:4156  return games[player1].revealed && games[player2].revealed */\n      swap1\n      pop\n        /* \"rockpsciccors.sol\":4035:4164  function bothRevealed() external view returns (bool) {... */\n      swap1\n      jump\t// out\n        /* \"rockpsciccors.sol\":1565:2137  function reveal(string memory clearMove) external onlyRegisteredPlayers gameNotFinished {... */\n    tag_30:\n        /* \"rockpsciccors.sol\":600:607  player1 */\n      0x00\n      dup1\n      sload\n      swap1\n      0x0100\n      exp\n      swap1\n      div\n      0xffffffffffffffffffffffffffffffffffffffff\n      and\n        /* \"rockpsciccors.sol\":586:607  msg.sender == player1 */\n      0xffffffffffffffffffffffffffffffffffffffff\n      and\n        /* \"rockpsciccors.sol\":586:596  msg.sender */\n      caller\n        /* \"rockpsciccors.sol\":586:607  msg.sender == player1 */\n      0xffffffffffffffffffffffffffffffffffffffff\n      and\n      eq\n        /* \"rockpsciccors.sol\":586:632  msg.sender == player1 || msg.sender == player2 */\n      dup1\n      tag_98\n      jumpi\n      pop\n        /* \"rockpsciccors.sol\":625:632  player2 */\n      0x01\n      0x00\n      swap1\n      sload\n      swap1\n      0x0100\n      exp\n      swap1\n      div\n      0xffffffffffffffffffffffffffffffffffffffff\n      and\n        /* \"rockpsciccors.sol\":611:632  msg.sender == player2 */\n      0xffffffffffffffffffffffffffffffffffffffff\n      and\n        /* \"rockpsciccors.sol\":611:621  msg.sender */\n      caller\n        /* \"rockpsciccors.sol\":611:632  msg.sender == player2 */\n      0xffffffffffffffffffffffffffffffffffffffff\n      and\n      eq\n        /* \"rockpsciccors.sol\":586:632  msg.sender == player1 || msg.sender == player2 */\n    tag_98:\n        /* \"rockpsciccors.sol\":578:672  require(msg.sender == player1 || msg.sender == player2, \"You are not registered as a player.\") */\n      tag_99\n      jumpi\n      mload(0x40)\n      0x08c379a000000000000000000000000000000000000000000000000000000000\n      dup2\n      mstore\n      0x04\n      add\n      tag_100\n      swap1\n      tag_101\n      jump\t// in\n    tag_100:\n      mload(0x40)\n      dup1\n      swap2\n      sub\n      swap1\n      revert\n    tag_99:\n        /* \"rockpsciccors.sol\":747:759  gameFinished */\n      0x05\n      0x00\n      swap1\n      sload\n      swap1\n      0x0100\n      exp\n      swap1\n      div\n      0xff\n      and\n        /* \"rockpsciccors.sol\":746:759  !gameFinished */\n      iszero\n        /* \"rockpsciccors.sol\":738:793  require(!gameFinished, \"The game is already finished.\") */\n      tag_103\n      jumpi\n      mload(0x40)\n      0x08c379a000000000000000000000000000000000000000000000000000000000\n      dup2\n      mstore\n      0x04\n      add\n      tag_104\n      swap1\n      tag_84\n      jump\t// in\n    tag_104:\n      mload(0x40)\n      dup1\n      swap2\n      sub\n      swap1\n      revert\n    tag_103:\n        /* \"rockpsciccors.sol\":1714:1719  games */\n      0x04\n        /* \"rockpsciccors.sol\":1714:1731  games[msg.sender] */\n      0x00\n        /* \"rockpsciccors.sol\":1720:1730  msg.sender */\n      caller\n        /* \"rockpsciccors.sol\":1714:1731  games[msg.sender] */\n      0xffffffffffffffffffffffffffffffffffffffff\n      and\n      0xffffffffffffffffffffffffffffffffffffffff\n      and\n      dup2\n      mstore\n      0x20\n      add\n      swap1\n      dup2\n      mstore\n      0x20\n      add\n      0x00\n      keccak256\n        /* \"rockpsciccors.sol\":1714:1742  games[msg.sender].hashedMove */\n      0x01\n      add\n      sload\n        /* \"rockpsciccors.sol\":1699:1708  clearMove */\n      dup2\n        /* \"rockpsciccors.sol\":1682:1709  abi.encodePacked(clearMove) */\n      add(0x20, mload(0x40))\n      tag_106\n      swap2\n      swap1\n      tag_107\n      jump\t// in\n    tag_106:\n      mload(0x40)\n      0x20\n      dup2\n      dup4\n      sub\n      sub\n      dup2\n      mstore\n      swap1\n      0x40\n      mstore\n        /* \"rockpsciccors.sol\":1672:1710  keccak256(abi.encodePacked(clearMove)) */\n      dup1\n      mload\n      swap1\n      0x20\n      add\n      keccak256\n        /* \"rockpsciccors.sol\":1672:1742  keccak256(abi.encodePacked(clearMove)) == games[msg.sender].hashedMove */\n      eq\n        /* \"rockpsciccors.sol\":1664:1766  require(keccak256(abi.encodePacked(clearMove)) == games[msg.sender].hashedMove, \"Invalid clear move.\") */\n      tag_108\n      jumpi\n      mload(0x40)\n      0x08c379a000000000000000000000000000000000000000000000000000000000\n      dup2\n      mstore\n      0x04\n      add\n      tag_109\n      swap1\n      tag_110\n      jump\t// in\n    tag_109:\n      mload(0x40)\n      dup1\n      swap2\n      sub\n      swap1\n      revert\n    tag_108:\n        /* \"rockpsciccors.sol\":1815:1820  false */\n      0x00\n        /* \"rockpsciccors.sol\":1785:1820  games[msg.sender].revealed == false */\n      iszero\n      iszero\n        /* \"rockpsciccors.sol\":1785:1790  games */\n      0x04\n        /* \"rockpsciccors.sol\":1785:1802  games[msg.sender] */\n      0x00\n        /* \"rockpsciccors.sol\":1791:1801  msg.sender */\n      caller\n        /* \"rockpsciccors.sol\":1785:1802  games[msg.sender] */\n      0xffffffffffffffffffffffffffffffffffffffff\n      and\n      0xffffffffffffffffffffffffffffffffffffffff\n      and\n      dup2\n      mstore\n      0x20\n      add\n      swap1\n      dup2\n      mstore\n      0x20\n      add\n      0x00\n      keccak256\n        /* \"rockpsciccors.sol\":1785:1811  games[msg.sender].revealed */\n      0x04\n      add\n      0x00\n      swap1\n      sload\n      swap1\n      0x0100\n      exp\n      swap1\n      div\n      0xff\n      and\n        /* \"rockpsciccors.sol\":1785:1820  games[msg.sender].revealed == false */\n      iszero\n      iszero\n      eq\n        /* \"rockpsciccors.sol\":1777:1859  require(games[msg.sender].revealed == false, \"You've already revealed your move.\") */\n      tag_111\n      jumpi\n      mload(0x40)\n      0x08c379a000000000000000000000000000000000000000000000000000000000\n      dup2\n      mstore\n      0x04\n      add\n      tag_112\n      swap1\n      tag_113\n      jump\t// in\n    tag_112:\n      mload(0x40)\n      dup1\n      swap2\n      sub\n      swap1\n      revert\n    tag_111:\n        /* \"rockpsciccors.sol\":1900:1909  clearMove */\n      dup1\n        /* \"rockpsciccors.sol\":1870:1875  games */\n      0x04\n        /* \"rockpsciccors.sol\":1870:1887  games[msg.sender] */\n      0x00\n        /* \"rockpsciccors.sol\":1876:1886  msg.sender */\n      caller\n        /* \"rockpsciccors.sol\":1870:1887  games[msg.sender] */\n      0xffffffffffffffffffffffffffffffffffffffff\n      and\n      0xffffffffffffffffffffffffffffffffffffffff\n      and\n      dup2\n      mstore\n      0x20\n      add\n      swap1\n      dup2\n      mstore\n      0x20\n      add\n      0x00\n      keccak256\n        /* \"rockpsciccors.sol\":1870:1897  games[msg.sender].clearMove */\n      0x03\n      add\n        /* \"rockpsciccors.sol\":1870:1909  games[msg.sender].clearMove = clearMove */\n      swap1\n      dup2\n      tag_114\n      swap2\n      swap1\n      tag_115\n      jump\t// in\n    tag_114:\n      pop\n        /* \"rockpsciccors.sol\":1945:1973  getMoveFromString(clearMove) */\n      tag_116\n        /* \"rockpsciccors.sol\":1963:1972  clearMove */\n      dup2\n        /* \"rockpsciccors.sol\":1945:1962  getMoveFromString */\n      tag_117\n        /* \"rockpsciccors.sol\":1945:1973  getMoveFromString(clearMove) */\n      jump\t// in\n    tag_116:\n        /* \"rockpsciccors.sol\":1920:1925  games */\n      0x04\n        /* \"rockpsciccors.sol\":1920:1937  games[msg.sender] */\n      0x00\n        /* \"rockpsciccors.sol\":1926:1936  msg.sender */\n      caller\n        /* \"rockpsciccors.sol\":1920:1937  games[msg.sender] */\n      0xffffffffffffffffffffffffffffffffffffffff\n      and\n      0xffffffffffffffffffffffffffffffffffffffff\n      and\n      dup2\n      mstore\n      0x20\n      add\n      swap1\n      dup2\n      mstore\n      0x20\n      add\n      0x00\n      keccak256\n        /* \"rockpsciccors.sol\":1920:1942  games[msg.sender].move */\n      0x02\n      add\n      0x00\n        /* \"rockpsciccors.sol\":1920:1973  games[msg.sender].move = getMoveFromString(clearMove) */\n      0x0100\n      exp\n      dup2\n      sload\n      dup2\n      0xff\n      mul\n      not\n      and\n      swap1\n      dup4\n      0x03\n      dup2\n      gt\n      iszero\n      tag_118\n      jumpi\n      tag_119\n      tag_120\n      jump\t// in\n    tag_119:\n    tag_118:\n      mul\n      or\n      swap1\n      sstore\n      pop\n        /* \"rockpsciccors.sol\":2013:2017  true */\n      0x01\n        /* \"rockpsciccors.sol\":1984:1989  games */\n      0x04\n        /* \"rockpsciccors.sol\":1984:2001  games[msg.sender] */\n      0x00\n        /* \"rockpsciccors.sol\":1990:2000  msg.sender */\n      caller\n        /* \"rockpsciccors.sol\":1984:2001  games[msg.sender] */\n      0xffffffffffffffffffffffffffffffffffffffff\n      and\n      0xffffffffffffffffffffffffffffffffffffffff\n      and\n      dup2\n      mstore\n      0x20\n      add\n      swap1\n      dup2\n      mstore\n      0x20\n      add\n      0x00\n      keccak256\n        /* \"rockpsciccors.sol\":1984:2010  games[msg.sender].revealed */\n      0x04\n      add\n      0x00\n        /* \"rockpsciccors.sol\":1984:2017  games[msg.sender].revealed = true */\n      0x0100\n      exp\n      dup2\n      sload\n      dup2\n      0xff\n      mul\n      not\n      and\n      swap1\n      dup4\n      iszero\n      iszero\n      mul\n      or\n      swap1\n      sstore\n      pop\n        /* \"rockpsciccors.sol\":2034:2039  games */\n      0x04\n        /* \"rockpsciccors.sol\":2034:2048  games[player1] */\n      0x00\n        /* \"rockpsciccors.sol\":2040:2047  player1 */\n      dup1\n      0x00\n      swap1\n      sload\n      swap1\n      0x0100\n      exp\n      swap1\n      div\n      0xffffffffffffffffffffffffffffffffffffffff\n      and\n        /* \"rockpsciccors.sol\":2034:2048  games[player1] */\n      0xffffffffffffffffffffffffffffffffffffffff\n      and\n      0xffffffffffffffffffffffffffffffffffffffff\n      and\n      dup2\n      mstore\n      0x20\n      add\n      swap1\n      dup2\n      mstore\n      0x20\n      add\n      0x00\n      keccak256\n        /* \"rockpsciccors.sol\":2034:2057  games[player1].revealed */\n      0x04\n      add\n      0x00\n      swap1\n      sload\n      swap1\n      0x0100\n      exp\n      swap1\n      div\n      0xff\n      and\n        /* \"rockpsciccors.sol\":2034:2084  games[player1].revealed && games[player2].revealed */\n      dup1\n      iszero\n      tag_121\n      jumpi\n      pop\n        /* \"rockpsciccors.sol\":2061:2066  games */\n      0x04\n        /* \"rockpsciccors.sol\":2061:2075  games[player2] */\n      0x00\n        /* \"rockpsciccors.sol\":2067:2074  player2 */\n      0x01\n      0x00\n      swap1\n      sload\n      swap1\n      0x0100\n      exp\n      swap1\n      div\n      0xffffffffffffffffffffffffffffffffffffffff\n      and\n        /* \"rockpsciccors.sol\":2061:2075  games[player2] */\n      0xffffffffffffffffffffffffffffffffffffffff\n      and\n      0xffffffffffffffffffffffffffffffffffffffff\n      and\n      dup2\n      mstore\n      0x20\n      add\n      swap1\n      dup2\n      mstore\n      0x20\n      add\n      0x00\n      keccak256\n        /* \"rockpsciccors.sol\":2061:2084  games[player2].revealed */\n      0x04\n      add\n      0x00\n      swap1\n      sload\n      swap1\n      0x0100\n      exp\n      swap1\n      div\n      0xff\n      and\n        /* \"rockpsciccors.sol\":2034:2084  games[player1].revealed && games[player2].revealed */\n    tag_121:\n        /* \"rockpsciccors.sol\":2030:2130  if (games[player1].revealed && games[player2].revealed) {... */\n      iszero\n      tag_122\n      jumpi\n        /* \"rockpsciccors.sol\":2101:2118  determineWinner() */\n      tag_123\n        /* \"rockpsciccors.sol\":2101:2116  determineWinner */\n      tag_124\n        /* \"rockpsciccors.sol\":2101:2118  determineWinner() */\n      jump\t// in\n    tag_123:\n        /* \"rockpsciccors.sol\":2030:2130  if (games[player1].revealed && games[player2].revealed) {... */\n    tag_122:\n        /* \"rockpsciccors.sol\":1565:2137  function reveal(string memory clearMove) external onlyRegisteredPlayers gameNotFinished {... */\n      pop\n      jump\t// out\n        /* \"rockpsciccors.sol\":4172:4494  function revealTimeLeft() external view returns (uint256) {... */\n    tag_33:\n        /* \"rockpsciccors.sol\":4221:4228  uint256 */\n      0x00\n        /* \"rockpsciccors.sol\":4246:4251  games */\n      0x04\n        /* \"rockpsciccors.sol\":4246:4260  games[player1] */\n      0x00\n        /* \"rockpsciccors.sol\":4252:4259  player1 */\n      dup1\n      0x00\n      swap1\n      sload\n      swap1\n      0x0100\n      exp\n      swap1\n      div\n      0xffffffffffffffffffffffffffffffffffffffff\n      and\n        /* \"rockpsciccors.sol\":4246:4260  games[player1] */\n      0xffffffffffffffffffffffffffffffffffffffff\n      and\n      0xffffffffffffffffffffffffffffffffffffffff\n      and\n      dup2\n      mstore\n      0x20\n      add\n      swap1\n      dup2\n      mstore\n      0x20\n      add\n      0x00\n      keccak256\n        /* \"rockpsciccors.sol\":4246:4269  games[player1].revealed */\n      0x04\n      add\n      0x00\n      swap1\n      sload\n      swap1\n      0x0100\n      exp\n      swap1\n      div\n      0xff\n      and\n        /* \"rockpsciccors.sol\":4245:4269  !games[player1].revealed */\n      iszero\n        /* \"rockpsciccors.sol\":4245:4297  !games[player1].revealed || !games[player2].revealed */\n      dup1\n      tag_126\n      jumpi\n      pop\n        /* \"rockpsciccors.sol\":4274:4279  games */\n      0x04\n        /* \"rockpsciccors.sol\":4274:4288  games[player2] */\n      0x00\n        /* \"rockpsciccors.sol\":4280:4287  player2 */\n      0x01\n      0x00\n      swap1\n      sload\n      swap1\n      0x0100\n      exp\n      swap1\n      div\n      0xffffffffffffffffffffffffffffffffffffffff\n      and\n        /* \"rockpsciccors.sol\":4274:4288  games[player2] */\n      0xffffffffffffffffffffffffffffffffffffffff\n      and\n      0xffffffffffffffffffffffffffffffffffffffff\n      and\n      dup2\n      mstore\n      0x20\n      add\n      swap1\n      dup2\n      mstore\n      0x20\n      add\n      0x00\n      keccak256\n        /* \"rockpsciccors.sol\":4274:4297  games[player2].revealed */\n      0x04\n      add\n      0x00\n      swap1\n      sload\n      swap1\n      0x0100\n      exp\n      swap1\n      div\n      0xff\n      and\n        /* \"rockpsciccors.sol\":4273:4297  !games[player2].revealed */\n      iszero\n        /* \"rockpsciccors.sol\":4245:4297  !games[player1].revealed || !games[player2].revealed */\n    tag_126:\n        /* \"rockpsciccors.sol\":4241:4487  if (!games[player1].revealed || !games[player2].revealed) {... */\n      iszero\n      tag_127\n      jumpi\n        /* \"rockpsciccors.sol\":4321:4322  0 */\n      0x00\n        /* \"rockpsciccors.sol\":4314:4322  return 0 */\n      swap1\n      pop\n      jump(tag_125)\n        /* \"rockpsciccors.sol\":4241:4487  if (!games[player1].revealed || !games[player2].revealed) {... */\n    tag_127:\n        /* \"rockpsciccors.sol\":4474:4475  0 */\n      0x00\n        /* \"rockpsciccors.sol\":4467:4475  return 0 */\n      swap1\n      pop\n        /* \"rockpsciccors.sol\":4172:4494  function revealTimeLeft() external view returns (uint256) {... */\n    tag_125:\n      swap1\n      jump\t// out\n        /* \"rockpsciccors.sol\":132:162  address payable public player2 */\n    tag_38:\n      0x01\n      0x00\n      swap1\n      sload\n      swap1\n      0x0100\n      exp\n      swap1\n      div\n      0xffffffffffffffffffffffffffffffffffffffff\n      and\n      dup2\n      jump\t// out\n        /* \"rockpsciccors.sol\":3504:3613  function getContractBalance() external view returns (uint256) {... */\n    tag_43:\n        /* \"rockpsciccors.sol\":3557:3564  uint256 */\n      0x00\n        /* \"rockpsciccors.sol\":3584:3605  address(this).balance */\n      selfbalance\n        /* \"rockpsciccors.sol\":3577:3605  return address(this).balance */\n      swap1\n      pop\n        /* \"rockpsciccors.sol\":3504:3613  function getContractBalance() external view returns (uint256) {... */\n      swap1\n      jump\t// out\n        /* \"rockpsciccors.sol\":457:494  mapping(address => Game) public games */\n    tag_49:\n      mstore(0x20, 0x04)\n      dup1\n      0x00\n      mstore\n      keccak256(0x00, 0x40)\n      0x00\n      swap2\n      pop\n      swap1\n      pop\n      dup1\n      0x00\n      add\n      0x00\n      swap1\n      sload\n      swap1\n      0x0100\n      exp\n      swap1\n      div\n      0xffffffffffffffffffffffffffffffffffffffff\n      and\n      swap1\n      dup1\n      0x01\n      add\n      sload\n      swap1\n      dup1\n      0x02\n      add\n      0x00\n      swap1\n      sload\n      swap1\n      0x0100\n      exp\n      swap1\n      div\n      0xff\n      and\n      swap1\n      dup1\n      0x03\n      add\n      dup1\n      sload\n      tag_130\n      swap1\n      tag_131\n      jump\t// in\n    tag_130:\n      dup1\n      0x1f\n      add\n      0x20\n      dup1\n      swap2\n      div\n      mul\n      0x20\n      add\n      mload(0x40)\n      swap1\n      dup2\n      add\n      0x40\n      mstore\n      dup1\n      swap3\n      swap2\n      swap1\n      dup2\n      dup2\n      mstore\n      0x20\n      add\n      dup3\n      dup1\n      sload\n      tag_132\n      swap1\n      tag_131\n      jump\t// in\n    tag_132:\n      dup1\n      iszero\n      tag_133\n      jumpi\n      dup1\n      0x1f\n      lt\n      tag_134\n      jumpi\n      0x0100\n      dup1\n      dup4\n      sload\n      div\n      mul\n      dup4\n      mstore\n      swap2\n      0x20\n      add\n      swap2\n      jump(tag_133)\n    tag_134:\n      dup3\n      add\n      swap2\n      swap1\n      0x00\n      mstore\n      keccak256(0x00, 0x20)\n      swap1\n    tag_135:\n      dup2\n      sload\n      dup2\n      mstore\n      swap1\n      0x01\n      add\n      swap1\n      0x20\n      add\n      dup1\n      dup4\n      gt\n      tag_135\n      jumpi\n      dup3\n      swap1\n      sub\n      0x1f\n      and\n      dup3\n      add\n      swap2\n    tag_133:\n      pop\n      pop\n      pop\n      pop\n      pop\n      swap1\n      dup1\n      0x04\n      add\n      0x00\n      swap1\n      sload\n      swap1\n      0x0100\n      exp\n      swap1\n      div\n      0xff\n      and\n      swap1\n      pop\n      dup6\n      jump\t// out\n        /* \"rockpsciccors.sol\":3868:4027  function bothPlayed() external view returns (bool) {... */\n    tag_54:\n        /* \"rockpsciccors.sol\":3913:3917  bool */\n      0x00\n        /* \"rockpsciccors.sol\":3974:3975  0 */\n      dup1\n        /* \"rockpsciccors.sol\":3966:3976  bytes32(0) */\n      0x00\n      shl\n        /* \"rockpsciccors.sol\":3937:3942  games */\n      0x04\n        /* \"rockpsciccors.sol\":3937:3951  games[player1] */\n      0x00\n        /* \"rockpsciccors.sol\":3943:3950  player1 */\n      dup1\n      0x00\n      swap1\n      sload\n      swap1\n      0x0100\n      exp\n      swap1\n      div\n      0xffffffffffffffffffffffffffffffffffffffff\n      and\n        /* \"rockpsciccors.sol\":3937:3951  games[player1] */\n      0xffffffffffffffffffffffffffffffffffffffff\n      and\n      0xffffffffffffffffffffffffffffffffffffffff\n      and\n      dup2\n      mstore\n      0x20\n      add\n      swap1\n      dup2\n      mstore\n      0x20\n      add\n      0x00\n      keccak256\n        /* \"rockpsciccors.sol\":3937:3962  games[player1].hashedMove */\n      0x01\n      add\n      sload\n        /* \"rockpsciccors.sol\":3937:3976  games[player1].hashedMove != bytes32(0) */\n      eq\n      iszero\n        /* \"rockpsciccors.sol\":3937:4019  games[player1].hashedMove != bytes32(0) && games[player2].hashedMove != bytes32(0) */\n      dup1\n      iszero\n      tag_137\n      jumpi\n      pop\n        /* \"rockpsciccors.sol\":4017:4018  0 */\n      0x00\n        /* \"rockpsciccors.sol\":4009:4019  bytes32(0) */\n      dup1\n      shl\n        /* \"rockpsciccors.sol\":3980:3985  games */\n      0x04\n        /* \"rockpsciccors.sol\":3980:3994  games[player2] */\n      0x00\n        /* \"rockpsciccors.sol\":3986:3993  player2 */\n      0x01\n      0x00\n      swap1\n      sload\n      swap1\n      0x0100\n      exp\n      swap1\n      div\n      0xffffffffffffffffffffffffffffffffffffffff\n      and\n        /* \"rockpsciccors.sol\":3980:3994  games[player2] */\n      0xffffffffffffffffffffffffffffffffffffffff\n      and\n      0xffffffffffffffffffffffffffffffffffffffff\n      and\n      dup2\n      mstore\n      0x20\n      add\n      swap1\n      dup2\n      mstore\n      0x20\n      add\n      0x00\n      keccak256\n        /* \"rockpsciccors.sol\":3980:4005  games[player2].hashedMove */\n      0x01\n      add\n      sload\n        /* \"rockpsciccors.sol\":3980:4019  games[player2].hashedMove != bytes32(0) */\n      eq\n      iszero\n        /* \"rockpsciccors.sol\":3937:4019  games[player1].hashedMove != bytes32(0) && games[player2].hashedMove != bytes32(0) */\n    tag_137:\n        /* \"rockpsciccors.sol\":3930:4019  return games[player1].hashedMove != bytes32(0) && games[player2].hashedMove != bytes32(0) */\n      swap1\n      pop\n        /* \"rockpsciccors.sol\":3868:4027  function bothPlayed() external view returns (bool) {... */\n      swap1\n      jump\t// out\n        /* \"rockpsciccors.sol\":216:246  uint256 public contractBalance */\n    tag_58:\n      sload(0x03)\n      dup2\n      jump\t// out\n        /* \"rockpsciccors.sol\":169:209  uint256 public minimumBet = 0.0001 ether */\n    tag_62:\n      sload(0x02)\n      dup2\n      jump\t// out\n        /* \"rockpsciccors.sol\":1332:1557  function play(bytes32 encrMove) external onlyRegisteredPlayers gameNotFinished {... */\n    tag_68:\n        /* \"rockpsciccors.sol\":600:607  player1 */\n      0x00\n      dup1\n      sload\n      swap1\n      0x0100\n      exp\n      swap1\n      div\n      0xffffffffffffffffffffffffffffffffffffffff\n      and\n        /* \"rockpsciccors.sol\":586:607  msg.sender == player1 */\n      0xffffffffffffffffffffffffffffffffffffffff\n      and\n        /* \"rockpsciccors.sol\":586:596  msg.sender */\n      caller\n        /* \"rockpsciccors.sol\":586:607  msg.sender == player1 */\n      0xffffffffffffffffffffffffffffffffffffffff\n      and\n      eq\n        /* \"rockpsciccors.sol\":586:632  msg.sender == player1 || msg.sender == player2 */\n      dup1\n      tag_139\n      jumpi\n      pop\n        /* \"rockpsciccors.sol\":625:632  player2 */\n      0x01\n      0x00\n      swap1\n      sload\n      swap1\n      0x0100\n      exp\n      swap1\n      div\n      0xffffffffffffffffffffffffffffffffffffffff\n      and\n        /* \"rockpsciccors.sol\":611:632  msg.sender == player2 */\n      0xffffffffffffffffffffffffffffffffffffffff\n      and\n        /* \"rockpsciccors.sol\":611:621  msg.sender */\n      caller\n        /* \"rockpsciccors.sol\":611:632  msg.sender == player2 */\n      0xffffffffffffffffffffffffffffffffffffffff\n      and\n      eq\n        /* \"rockpsciccors.sol\":586:632  msg.sender == player1 || msg.sender == player2 */\n    tag_139:\n        /* \"rockpsciccors.sol\":578:672  require(msg.sender == player1 || msg.sender == player2, \"You are not registered as a player.\") */\n      tag_140\n      jumpi\n      mload(0x40)\n      0x08c379a000000000000000000000000000000000000000000000000000000000\n      dup2\n      mstore\n      0x04\n      add\n      tag_141\n      swap1\n      tag_101\n      jump\t// in\n    tag_141:\n      mload(0x40)\n      dup1\n      swap2\n      sub\n      swap1\n      revert\n    tag_140:\n        /* \"rockpsciccors.sol\":747:759  gameFinished */\n      0x05\n      0x00\n      swap1\n      sload\n      swap1\n      0x0100\n      exp\n      swap1\n      div\n      0xff\n      and\n        /* \"rockpsciccors.sol\":746:759  !gameFinished */\n      iszero\n        /* \"rockpsciccors.sol\":738:793  require(!gameFinished, \"The game is already finished.\") */\n      tag_143\n      jumpi\n      mload(0x40)\n      0x08c379a000000000000000000000000000000000000000000000000000000000\n      dup2\n      mstore\n      0x04\n      add\n      tag_144\n      swap1\n      tag_84\n      jump\t// in\n    tag_144:\n      mload(0x40)\n      dup1\n      swap2\n      sub\n      swap1\n      revert\n    tag_143:\n        /* \"rockpsciccors.sol\":1470:1471  0 */\n      0x00\n        /* \"rockpsciccors.sol\":1462:1472  bytes32(0) */\n      dup1\n      shl\n        /* \"rockpsciccors.sol\":1430:1435  games */\n      0x04\n        /* \"rockpsciccors.sol\":1430:1447  games[msg.sender] */\n      0x00\n        /* \"rockpsciccors.sol\":1436:1446  msg.sender */\n      caller\n        /* \"rockpsciccors.sol\":1430:1447  games[msg.sender] */\n      0xffffffffffffffffffffffffffffffffffffffff\n      and\n      0xffffffffffffffffffffffffffffffffffffffff\n      and\n      dup2\n      mstore\n      0x20\n      add\n      swap1\n      dup2\n      mstore\n      0x20\n      add\n      0x00\n      keccak256\n        /* \"rockpsciccors.sol\":1430:1458  games[msg.sender].hashedMove */\n      0x01\n      add\n      sload\n        /* \"rockpsciccors.sol\":1430:1472  games[msg.sender].hashedMove == bytes32(0) */\n      eq\n        /* \"rockpsciccors.sol\":1422:1499  require(games[msg.sender].hashedMove == bytes32(0), \"You've already played.\") */\n      tag_146\n      jumpi\n      mload(0x40)\n      0x08c379a000000000000000000000000000000000000000000000000000000000\n      dup2\n      mstore\n      0x04\n      add\n      tag_147\n      swap1\n      tag_148\n      jump\t// in\n    tag_147:\n      mload(0x40)\n      dup1\n      swap2\n      sub\n      swap1\n      revert\n    tag_146:\n        /* \"rockpsciccors.sol\":1541:1549  encrMove */\n      dup1\n        /* \"rockpsciccors.sol\":1510:1515  games */\n      0x04\n        /* \"rockpsciccors.sol\":1510:1527  games[msg.sender] */\n      0x00\n        /* \"rockpsciccors.sol\":1516:1526  msg.sender */\n      caller\n        /* \"rockpsciccors.sol\":1510:1527  games[msg.sender] */\n      0xffffffffffffffffffffffffffffffffffffffff\n      and\n      0xffffffffffffffffffffffffffffffffffffffff\n      and\n      dup2\n      mstore\n      0x20\n      add\n      swap1\n      dup2\n      mstore\n      0x20\n      add\n      0x00\n      keccak256\n        /* \"rockpsciccors.sol\":1510:1538  games[msg.sender].hashedMove */\n      0x01\n      add\n        /* \"rockpsciccors.sol\":1510:1549  games[msg.sender].hashedMove = encrMove */\n      dup2\n      swap1\n      sstore\n      pop\n        /* \"rockpsciccors.sol\":1332:1557  function play(bytes32 encrMove) external onlyRegisteredPlayers gameNotFinished {... */\n      pop\n      jump\t// out\n        /* \"rockpsciccors.sol\":95:125  address payable public player1 */\n    tag_71:\n      0x00\n      dup1\n      sload\n      swap1\n      0x0100\n      exp\n      swap1\n      div\n      0xffffffffffffffffffffffffffffffffffffffff\n      and\n      dup2\n      jump\t// out\n        /* \"rockpsciccors.sol\":3621:3860  function whoAmI() external view returns (uint256) {... */\n    tag_75:\n        /* \"rockpsciccors.sol\":3662:3669  uint256 */\n      0x00\n        /* \"rockpsciccors.sol\":3700:3707  player1 */\n      dup1\n      0x00\n      swap1\n      sload\n      swap1\n      0x0100\n      exp\n      swap1\n      div\n      0xffffffffffffffffffffffffffffffffffffffff\n      and\n        /* \"rockpsciccors.sol\":3686:3707  msg.sender == player1 */\n      0xffffffffffffffffffffffffffffffffffffffff\n      and\n        /* \"rockpsciccors.sol\":3686:3696  msg.sender */\n      caller\n        /* \"rockpsciccors.sol\":3686:3707  msg.sender == player1 */\n      0xffffffffffffffffffffffffffffffffffffffff\n      and\n      sub\n        /* \"rockpsciccors.sol\":3682:3853  if (msg.sender == player1) {... */\n      tag_150\n      jumpi\n        /* \"rockpsciccors.sol\":3731:3732  1 */\n      0x01\n        /* \"rockpsciccors.sol\":3724:3732  return 1 */\n      swap1\n      pop\n      jump(tag_149)\n        /* \"rockpsciccors.sol\":3682:3853  if (msg.sender == player1) {... */\n    tag_150:\n        /* \"rockpsciccors.sol\":3768:3775  player2 */\n      0x01\n      0x00\n      swap1\n      sload\n      swap1\n      0x0100\n      exp\n      swap1\n      div\n      0xffffffffffffffffffffffffffffffffffffffff\n      and\n        /* \"rockpsciccors.sol\":3754:3775  msg.sender == player2 */\n      0xffffffffffffffffffffffffffffffffffffffff\n      and\n        /* \"rockpsciccors.sol\":3754:3764  msg.sender */\n      caller\n        /* \"rockpsciccors.sol\":3754:3775  msg.sender == player2 */\n      0xffffffffffffffffffffffffffffffffffffffff\n      and\n      sub\n        /* \"rockpsciccors.sol\":3750:3853  if (msg.sender == player2) {... */\n      tag_152\n      jumpi\n        /* \"rockpsciccors.sol\":3799:3800  2 */\n      0x02\n        /* \"rockpsciccors.sol\":3792:3800  return 2 */\n      swap1\n      pop\n      jump(tag_149)\n        /* \"rockpsciccors.sol\":3750:3853  if (msg.sender == player2) {... */\n    tag_152:\n        /* \"rockpsciccors.sol\":3840:3841  0 */\n      0x00\n        /* \"rockpsciccors.sol\":3833:3841  return 0 */\n      swap1\n      pop\n        /* \"rockpsciccors.sol\":3621:3860  function whoAmI() external view returns (uint256) {... */\n    tag_149:\n      swap1\n      jump\t// out\n        /* \"rockpsciccors.sol\":501:525  bool public gameFinished */\n    tag_79:\n      0x05\n      0x00\n      swap1\n      sload\n      swap1\n      0x0100\n      exp\n      swap1\n      div\n      0xff\n      and\n      dup2\n      jump\t// out\n        /* \"rockpsciccors.sol\":2956:3496  function getMoveFromString(string memory moveStr) internal pure returns (Move) {... */\n    tag_117:\n        /* \"rockpsciccors.sol\":3029:3033  Move */\n      0x00\n        /* \"rockpsciccors.sol\":3100:3124  abi.encodePacked(\"Rock\") */\n      add(0x20, mload(0x40))\n      tag_155\n      swap1\n      tag_156\n      jump\t// in\n    tag_155:\n      mload(0x40)\n      0x20\n      dup2\n      dup4\n      sub\n      sub\n      dup2\n      mstore\n      swap1\n      0x40\n      mstore\n        /* \"rockpsciccors.sol\":3090:3125  keccak256(abi.encodePacked(\"Rock\")) */\n      dup1\n      mload\n      swap1\n      0x20\n      add\n      keccak256\n        /* \"rockpsciccors.sol\":3077:3084  moveStr */\n      dup3\n        /* \"rockpsciccors.sol\":3060:3085  abi.encodePacked(moveStr) */\n      add(0x20, mload(0x40))\n      tag_157\n      swap2\n      swap1\n      tag_107\n      jump\t// in\n    tag_157:\n      mload(0x40)\n      0x20\n      dup2\n      dup4\n      sub\n      sub\n      dup2\n      mstore\n      swap1\n      0x40\n      mstore\n        /* \"rockpsciccors.sol\":3050:3086  keccak256(abi.encodePacked(moveStr)) */\n      dup1\n      mload\n      swap1\n      0x20\n      add\n      keccak256\n        /* \"rockpsciccors.sol\":3050:3125  keccak256(abi.encodePacked(moveStr)) == keccak256(abi.encodePacked(\"Rock\")) */\n      sub\n        /* \"rockpsciccors.sol\":3046:3489  if (keccak256(abi.encodePacked(moveStr)) == keccak256(abi.encodePacked(\"Rock\"))) {... */\n      tag_158\n      jumpi\n        /* \"rockpsciccors.sol\":3149:3158  Move.Rock */\n      0x01\n        /* \"rockpsciccors.sol\":3142:3158  return Move.Rock */\n      swap1\n      pop\n      jump(tag_154)\n        /* \"rockpsciccors.sol\":3046:3489  if (keccak256(abi.encodePacked(moveStr)) == keccak256(abi.encodePacked(\"Rock\"))) {... */\n    tag_158:\n        /* \"rockpsciccors.sol\":3230:3255  abi.encodePacked(\"Paper\") */\n      add(0x20, mload(0x40))\n      tag_160\n      swap1\n      tag_161\n      jump\t// in\n    tag_160:\n      mload(0x40)\n      0x20\n      dup2\n      dup4\n      sub\n      sub\n      dup2\n      mstore\n      swap1\n      0x40\n      mstore\n        /* \"rockpsciccors.sol\":3220:3256  keccak256(abi.encodePacked(\"Paper\")) */\n      dup1\n      mload\n      swap1\n      0x20\n      add\n      keccak256\n        /* \"rockpsciccors.sol\":3207:3214  moveStr */\n      dup3\n        /* \"rockpsciccors.sol\":3190:3215  abi.encodePacked(moveStr) */\n      add(0x20, mload(0x40))\n      tag_162\n      swap2\n      swap1\n      tag_107\n      jump\t// in\n    tag_162:\n      mload(0x40)\n      0x20\n      dup2\n      dup4\n      sub\n      sub\n      dup2\n      mstore\n      swap1\n      0x40\n      mstore\n        /* \"rockpsciccors.sol\":3180:3216  keccak256(abi.encodePacked(moveStr)) */\n      dup1\n      mload\n      swap1\n      0x20\n      add\n      keccak256\n        /* \"rockpsciccors.sol\":3180:3256  keccak256(abi.encodePacked(moveStr)) == keccak256(abi.encodePacked(\"Paper\")) */\n      sub\n        /* \"rockpsciccors.sol\":3176:3489  if (keccak256(abi.encodePacked(moveStr)) == keccak256(abi.encodePacked(\"Paper\"))) {... */\n      tag_163\n      jumpi\n        /* \"rockpsciccors.sol\":3280:3290  Move.Paper */\n      0x02\n        /* \"rockpsciccors.sol\":3273:3290  return Move.Paper */\n      swap1\n      pop\n      jump(tag_154)\n        /* \"rockpsciccors.sol\":3176:3489  if (keccak256(abi.encodePacked(moveStr)) == keccak256(abi.encodePacked(\"Paper\"))) {... */\n    tag_163:\n        /* \"rockpsciccors.sol\":3362:3390  abi.encodePacked(\"Scissors\") */\n      add(0x20, mload(0x40))\n      tag_165\n      swap1\n      tag_166\n      jump\t// in\n    tag_165:\n      mload(0x40)\n      0x20\n      dup2\n      dup4\n      sub\n      sub\n      dup2\n      mstore\n      swap1\n      0x40\n      mstore\n        /* \"rockpsciccors.sol\":3352:3391  keccak256(abi.encodePacked(\"Scissors\")) */\n      dup1\n      mload\n      swap1\n      0x20\n      add\n      keccak256\n        /* \"rockpsciccors.sol\":3339:3346  moveStr */\n      dup3\n        /* \"rockpsciccors.sol\":3322:3347  abi.encodePacked(moveStr) */\n      add(0x20, mload(0x40))\n      tag_167\n      swap2\n      swap1\n      tag_107\n      jump\t// in\n    tag_167:\n      mload(0x40)\n      0x20\n      dup2\n      dup4\n      sub\n      sub\n      dup2\n      mstore\n      swap1\n      0x40\n      mstore\n        /* \"rockpsciccors.sol\":3312:3348  keccak256(abi.encodePacked(moveStr)) */\n      dup1\n      mload\n      swap1\n      0x20\n      add\n      keccak256\n        /* \"rockpsciccors.sol\":3312:3391  keccak256(abi.encodePacked(moveStr)) == keccak256(abi.encodePacked(\"Scissors\")) */\n      sub\n        /* \"rockpsciccors.sol\":3308:3489  if (keccak256(abi.encodePacked(moveStr)) == keccak256(abi.encodePacked(\"Scissors\"))) {... */\n      tag_168\n      jumpi\n        /* \"rockpsciccors.sol\":3415:3428  Move.Scissors */\n      0x03\n        /* \"rockpsciccors.sol\":3408:3428  return Move.Scissors */\n      swap1\n      pop\n      jump(tag_154)\n        /* \"rockpsciccors.sol\":3308:3489  if (keccak256(abi.encodePacked(moveStr)) == keccak256(abi.encodePacked(\"Scissors\"))) {... */\n    tag_168:\n        /* \"rockpsciccors.sol\":3468:3477  Move.None */\n      0x00\n        /* \"rockpsciccors.sol\":3461:3477  return Move.None */\n      swap1\n      pop\n        /* \"rockpsciccors.sol\":2956:3496  function getMoveFromString(string memory moveStr) internal pure returns (Move) {... */\n    tag_154:\n      swap2\n      swap1\n      pop\n      jump\t// out\n        /* \"rockpsciccors.sol\":2145:2948  function determineWinner() internal {... */\n    tag_124:\n        /* \"rockpsciccors.sol\":2200:2205  games */\n      0x04\n        /* \"rockpsciccors.sol\":2200:2214  games[player1] */\n      0x00\n        /* \"rockpsciccors.sol\":2206:2213  player1 */\n      dup1\n      0x00\n      swap1\n      sload\n      swap1\n      0x0100\n      exp\n      swap1\n      div\n      0xffffffffffffffffffffffffffffffffffffffff\n      and\n        /* \"rockpsciccors.sol\":2200:2214  games[player1] */\n      0xffffffffffffffffffffffffffffffffffffffff\n      and\n      0xffffffffffffffffffffffffffffffffffffffff\n      and\n      dup2\n      mstore\n      0x20\n      add\n      swap1\n      dup2\n      mstore\n      0x20\n      add\n      0x00\n      keccak256\n        /* \"rockpsciccors.sol\":2200:2223  games[player1].revealed */\n      0x04\n      add\n      0x00\n      swap1\n      sload\n      swap1\n      0x0100\n      exp\n      swap1\n      div\n      0xff\n      and\n        /* \"rockpsciccors.sol\":2200:2250  games[player1].revealed && games[player2].revealed */\n      dup1\n      iszero\n      tag_171\n      jumpi\n      pop\n        /* \"rockpsciccors.sol\":2227:2232  games */\n      0x04\n        /* \"rockpsciccors.sol\":2227:2241  games[player2] */\n      0x00\n        /* \"rockpsciccors.sol\":2233:2240  player2 */\n      0x01\n      0x00\n      swap1\n      sload\n      swap1\n      0x0100\n      exp\n      swap1\n      div\n      0xffffffffffffffffffffffffffffffffffffffff\n      and\n        /* \"rockpsciccors.sol\":2227:2241  games[player2] */\n      0xffffffffffffffffffffffffffffffffffffffff\n      and\n      0xffffffffffffffffffffffffffffffffffffffff\n      and\n      dup2\n      mstore\n      0x20\n      add\n      swap1\n      dup2\n      mstore\n      0x20\n      add\n      0x00\n      keccak256\n        /* \"rockpsciccors.sol\":2227:2250  games[player2].revealed */\n      0x04\n      add\n      0x00\n      swap1\n      sload\n      swap1\n      0x0100\n      exp\n      swap1\n      div\n      0xff\n      and\n        /* \"rockpsciccors.sol\":2200:2250  games[player1].revealed && games[player2].revealed */\n    tag_171:\n        /* \"rockpsciccors.sol\":2192:2292  require(games[player1].revealed && games[player2].revealed, \"Both players must reveal their moves.\") */\n      tag_172\n      jumpi\n      mload(0x40)\n      0x08c379a000000000000000000000000000000000000000000000000000000000\n      dup2\n      mstore\n      0x04\n      add\n      tag_173\n      swap1\n      tag_174\n      jump\t// in\n    tag_173:\n      mload(0x40)\n      dup1\n      swap2\n      sub\n      swap1\n      revert\n    tag_172:\n        /* \"rockpsciccors.sol\":2312:2324  gameFinished */\n      0x05\n      0x00\n      swap1\n      sload\n      swap1\n      0x0100\n      exp\n      swap1\n      div\n      0xff\n      and\n        /* \"rockpsciccors.sol\":2311:2324  !gameFinished */\n      iszero\n        /* \"rockpsciccors.sol\":2303:2358  require(!gameFinished, \"The game is already finished.\") */\n      tag_175\n      jumpi\n      mload(0x40)\n      0x08c379a000000000000000000000000000000000000000000000000000000000\n      dup2\n      mstore\n      0x04\n      add\n      tag_176\n      swap1\n      tag_84\n      jump\t// in\n    tag_176:\n      mload(0x40)\n      dup1\n      swap2\n      sub\n      swap1\n      revert\n    tag_175:\n        /* \"rockpsciccors.sol\":2371:2381  Move move1 */\n      0x00\n        /* \"rockpsciccors.sol\":2384:2389  games */\n      0x04\n        /* \"rockpsciccors.sol\":2384:2398  games[player1] */\n      0x00\n        /* \"rockpsciccors.sol\":2390:2397  player1 */\n      dup1\n      0x00\n      swap1\n      sload\n      swap1\n      0x0100\n      exp\n      swap1\n      div\n      0xffffffffffffffffffffffffffffffffffffffff\n      and\n        /* \"rockpsciccors.sol\":2384:2398  games[player1] */\n      0xffffffffffffffffffffffffffffffffffffffff\n      and\n      0xffffffffffffffffffffffffffffffffffffffff\n      and\n      dup2\n      mstore\n      0x20\n      add\n      swap1\n      dup2\n      mstore\n      0x20\n      add\n      0x00\n      keccak256\n        /* \"rockpsciccors.sol\":2384:2403  games[player1].move */\n      0x02\n      add\n      0x00\n      swap1\n      sload\n      swap1\n      0x0100\n      exp\n      swap1\n      div\n      0xff\n      and\n        /* \"rockpsciccors.sol\":2371:2403  Move move1 = games[player1].move */\n      swap1\n      pop\n        /* \"rockpsciccors.sol\":2414:2424  Move move2 */\n      0x00\n        /* \"rockpsciccors.sol\":2427:2432  games */\n      0x04\n        /* \"rockpsciccors.sol\":2427:2441  games[player2] */\n      0x00\n        /* \"rockpsciccors.sol\":2433:2440  player2 */\n      0x01\n      0x00\n      swap1\n      sload\n      swap1\n      0x0100\n      exp\n      swap1\n      div\n      0xffffffffffffffffffffffffffffffffffffffff\n      and\n        /* \"rockpsciccors.sol\":2427:2441  games[player2] */\n      0xffffffffffffffffffffffffffffffffffffffff\n      and\n      0xffffffffffffffffffffffffffffffffffffffff\n      and\n      dup2\n      mstore\n      0x20\n      add\n      swap1\n      dup2\n      mstore\n      0x20\n      add\n      0x00\n      keccak256\n        /* \"rockpsciccors.sol\":2427:2446  games[player2].move */\n      0x02\n      add\n      0x00\n      swap1\n      sload\n      swap1\n      0x0100\n      exp\n      swap1\n      div\n      0xff\n      and\n        /* \"rockpsciccors.sol\":2414:2446  Move move2 = games[player2].move */\n      swap1\n      pop\n        /* \"rockpsciccors.sol\":2472:2477  move2 */\n      dup1\n        /* \"rockpsciccors.sol\":2463:2477  move1 == move2 */\n      0x03\n      dup2\n      gt\n      iszero\n      tag_177\n      jumpi\n      tag_178\n      tag_120\n      jump\t// in\n    tag_178:\n    tag_177:\n        /* \"rockpsciccors.sol\":2463:2468  move1 */\n      dup3\n        /* \"rockpsciccors.sol\":2463:2477  move1 == move2 */\n      0x03\n      dup2\n      gt\n      iszero\n      tag_179\n      jumpi\n      tag_180\n      tag_120\n      jump\t// in\n    tag_180:\n    tag_179:\n      sub\n        /* \"rockpsciccors.sol\":2459:2909  if (move1 == move2) {... */\n      tag_181\n      jumpi\n        /* \"rockpsciccors.sol\":2494:2501  player1 */\n      0x00\n      dup1\n      sload\n      swap1\n      0x0100\n      exp\n      swap1\n      div\n      0xffffffffffffffffffffffffffffffffffffffff\n      and\n        /* \"rockpsciccors.sol\":2494:2510  player1.transfer */\n      0xffffffffffffffffffffffffffffffffffffffff\n      and\n        /* \"rockpsciccors.sol\":2494:2522  player1.transfer(minimumBet) */\n      0x08fc\n        /* \"rockpsciccors.sol\":2511:2521  minimumBet */\n      sload(0x02)\n        /* \"rockpsciccors.sol\":2494:2522  player1.transfer(minimumBet) */\n      swap1\n      dup2\n      iszero\n      mul\n      swap1\n      mload(0x40)\n      0x00\n      mload(0x40)\n      dup1\n      dup4\n      sub\n      dup2\n      dup6\n      dup9\n      dup9\n      call\n      swap4\n      pop\n      pop\n      pop\n      pop\n      iszero\n      dup1\n      iszero\n      tag_183\n      jumpi\n      returndatasize\n      0x00\n      dup1\n      returndatacopy\n      revert(0x00, returndatasize)\n    tag_183:\n      pop\n        /* \"rockpsciccors.sol\":2537:2544  player2 */\n      0x01\n      0x00\n      swap1\n      sload\n      swap1\n      0x0100\n      exp\n      swap1\n      div\n      0xffffffffffffffffffffffffffffffffffffffff\n      and\n        /* \"rockpsciccors.sol\":2537:2553  player2.transfer */\n      0xffffffffffffffffffffffffffffffffffffffff\n      and\n        /* \"rockpsciccors.sol\":2537:2565  player2.transfer(minimumBet) */\n      0x08fc\n        /* \"rockpsciccors.sol\":2554:2564  minimumBet */\n      sload(0x02)\n        /* \"rockpsciccors.sol\":2537:2565  player2.transfer(minimumBet) */\n      swap1\n      dup2\n      iszero\n      mul\n      swap1\n      mload(0x40)\n      0x00\n      mload(0x40)\n      dup1\n      dup4\n      sub\n      dup2\n      dup6\n      dup9\n      dup9\n      call\n      swap4\n      pop\n      pop\n      pop\n      pop\n      iszero\n      dup1\n      iszero\n      tag_185\n      jumpi\n      returndatasize\n      0x00\n      dup1\n      returndatacopy\n      revert(0x00, returndatasize)\n    tag_185:\n      pop\n        /* \"rockpsciccors.sol\":2459:2909  if (move1 == move2) {... */\n      jump(tag_186)\n    tag_181:\n        /* \"rockpsciccors.sol\":2611:2620  Move.Rock */\n      0x01\n        /* \"rockpsciccors.sol\":2602:2620  move1 == Move.Rock */\n      0x03\n      dup2\n      gt\n      iszero\n      tag_187\n      jumpi\n      tag_188\n      tag_120\n      jump\t// in\n    tag_188:\n    tag_187:\n        /* \"rockpsciccors.sol\":2602:2607  move1 */\n      dup3\n        /* \"rockpsciccors.sol\":2602:2620  move1 == Move.Rock */\n      0x03\n      dup2\n      gt\n      iszero\n      tag_189\n      jumpi\n      tag_190\n      tag_120\n      jump\t// in\n    tag_190:\n    tag_189:\n      eq\n        /* \"rockpsciccors.sol\":2602:2646  move1 == Move.Rock && move2 == Move.Scissors */\n      dup1\n      iszero\n      tag_191\n      jumpi\n      pop\n        /* \"rockpsciccors.sol\":2633:2646  Move.Scissors */\n      0x03\n        /* \"rockpsciccors.sol\":2624:2646  move2 == Move.Scissors */\n      dup1\n      dup2\n      gt\n      iszero\n      tag_192\n      jumpi\n      tag_193\n      tag_120\n      jump\t// in\n    tag_193:\n    tag_192:\n        /* \"rockpsciccors.sol\":2624:2629  move2 */\n      dup2\n        /* \"rockpsciccors.sol\":2624:2646  move2 == Move.Scissors */\n      0x03\n      dup2\n      gt\n      iszero\n      tag_194\n      jumpi\n      tag_195\n      tag_120\n      jump\t// in\n    tag_195:\n    tag_194:\n      eq\n        /* \"rockpsciccors.sol\":2602:2646  move1 == Move.Rock && move2 == Move.Scissors */\n    tag_191:\n        /* \"rockpsciccors.sol\":2601:2707  (move1 == Move.Rock && move2 == Move.Scissors) ||... */\n      dup1\n      tag_196\n      jumpi\n      pop\n        /* \"rockpsciccors.sol\":2674:2684  Move.Paper */\n      0x02\n        /* \"rockpsciccors.sol\":2665:2684  move1 == Move.Paper */\n      0x03\n      dup2\n      gt\n      iszero\n      tag_197\n      jumpi\n      tag_198\n      tag_120\n      jump\t// in\n    tag_198:\n    tag_197:\n        /* \"rockpsciccors.sol\":2665:2670  move1 */\n      dup3\n        /* \"rockpsciccors.sol\":2665:2684  move1 == Move.Paper */\n      0x03\n      dup2\n      gt\n      iszero\n      tag_199\n      jumpi\n      tag_200\n      tag_120\n      jump\t// in\n    tag_200:\n    tag_199:\n      eq\n        /* \"rockpsciccors.sol\":2665:2706  move1 == Move.Paper && move2 == Move.Rock */\n      dup1\n      iszero\n      tag_201\n      jumpi\n      pop\n        /* \"rockpsciccors.sol\":2697:2706  Move.Rock */\n      0x01\n        /* \"rockpsciccors.sol\":2688:2706  move2 == Move.Rock */\n      0x03\n      dup2\n      gt\n      iszero\n      tag_202\n      jumpi\n      tag_203\n      tag_120\n      jump\t// in\n    tag_203:\n    tag_202:\n        /* \"rockpsciccors.sol\":2688:2693  move2 */\n      dup2\n        /* \"rockpsciccors.sol\":2688:2706  move2 == Move.Rock */\n      0x03\n      dup2\n      gt\n      iszero\n      tag_204\n      jumpi\n      tag_205\n      tag_120\n      jump\t// in\n    tag_205:\n    tag_204:\n      eq\n        /* \"rockpsciccors.sol\":2665:2706  move1 == Move.Paper && move2 == Move.Rock */\n    tag_201:\n        /* \"rockpsciccors.sol\":2601:2707  (move1 == Move.Rock && move2 == Move.Scissors) ||... */\n    tag_196:\n        /* \"rockpsciccors.sol\":2601:2771  (move1 == Move.Rock && move2 == Move.Scissors) ||... */\n      dup1\n      tag_206\n      jumpi\n      pop\n        /* \"rockpsciccors.sol\":2734:2747  Move.Scissors */\n      0x03\n        /* \"rockpsciccors.sol\":2725:2747  move1 == Move.Scissors */\n      dup1\n      dup2\n      gt\n      iszero\n      tag_207\n      jumpi\n      tag_208\n      tag_120\n      jump\t// in\n    tag_208:\n    tag_207:\n        /* \"rockpsciccors.sol\":2725:2730  move1 */\n      dup3\n        /* \"rockpsciccors.sol\":2725:2747  move1 == Move.Scissors */\n      0x03\n      dup2\n      gt\n      iszero\n      tag_209\n      jumpi\n      tag_210\n      tag_120\n      jump\t// in\n    tag_210:\n    tag_209:\n      eq\n        /* \"rockpsciccors.sol\":2725:2770  move1 == Move.Scissors && move2 == Move.Paper */\n      dup1\n      iszero\n      tag_211\n      jumpi\n      pop\n        /* \"rockpsciccors.sol\":2760:2770  Move.Paper */\n      0x02\n        /* \"rockpsciccors.sol\":2751:2770  move2 == Move.Paper */\n      0x03\n      dup2\n      gt\n      iszero\n      tag_212\n      jumpi\n      tag_213\n      tag_120\n      jump\t// in\n    tag_213:\n    tag_212:\n        /* \"rockpsciccors.sol\":2751:2756  move2 */\n      dup2\n        /* \"rockpsciccors.sol\":2751:2770  move2 == Move.Paper */\n      0x03\n      dup2\n      gt\n      iszero\n      tag_214\n      jumpi\n      tag_215\n      tag_120\n      jump\t// in\n    tag_215:\n    tag_214:\n      eq\n        /* \"rockpsciccors.sol\":2725:2770  move1 == Move.Scissors && move2 == Move.Paper */\n    tag_211:\n        /* \"rockpsciccors.sol\":2601:2771  (move1 == Move.Rock && move2 == Move.Scissors) ||... */\n    tag_206:\n        /* \"rockpsciccors.sol\":2583:2909  if (... */\n      iszero\n      tag_216\n      jumpi\n        /* \"rockpsciccors.sol\":2798:2805  player1 */\n      0x00\n      dup1\n      sload\n      swap1\n      0x0100\n      exp\n      swap1\n      div\n      0xffffffffffffffffffffffffffffffffffffffff\n      and\n        /* \"rockpsciccors.sol\":2798:2814  player1.transfer */\n      0xffffffffffffffffffffffffffffffffffffffff\n      and\n        /* \"rockpsciccors.sol\":2798:2831  player1.transfer(contractBalance) */\n      0x08fc\n        /* \"rockpsciccors.sol\":2815:2830  contractBalance */\n      sload(0x03)\n        /* \"rockpsciccors.sol\":2798:2831  player1.transfer(contractBalance) */\n      swap1\n      dup2\n      iszero\n      mul\n      swap1\n      mload(0x40)\n      0x00\n      mload(0x40)\n      dup1\n      dup4\n      sub\n      dup2\n      dup6\n      dup9\n      dup9\n      call\n      swap4\n      pop\n      pop\n      pop\n      pop\n      iszero\n      dup1\n      iszero\n      tag_218\n      jumpi\n      returndatasize\n      0x00\n      dup1\n      returndatacopy\n      revert(0x00, returndatasize)\n    tag_218:\n      pop\n        /* \"rockpsciccors.sol\":2583:2909  if (... */\n      jump(tag_219)\n    tag_216:\n        /* \"rockpsciccors.sol\":2864:2871  player2 */\n      0x01\n      0x00\n      swap1\n      sload\n      swap1\n      0x0100\n      exp\n      swap1\n      div\n      0xffffffffffffffffffffffffffffffffffffffff\n      and\n        /* \"rockpsciccors.sol\":2864:2880  player2.transfer */\n      0xffffffffffffffffffffffffffffffffffffffff\n      and\n        /* \"rockpsciccors.sol\":2864:2897  player2.transfer(contractBalance) */\n      0x08fc\n        /* \"rockpsciccors.sol\":2881:2896  contractBalance */\n      sload(0x03)\n        /* \"rockpsciccors.sol\":2864:2897  player2.transfer(contractBalance) */\n      swap1\n      dup2\n      iszero\n      mul\n      swap1\n      mload(0x40)\n      0x00\n      mload(0x40)\n      dup1\n      dup4\n      sub\n      dup2\n      dup6\n      dup9\n      dup9\n      call\n      swap4\n      pop\n      pop\n      pop\n      pop\n      iszero\n      dup1\n      iszero\n      tag_221\n      jumpi\n      returndatasize\n      0x00\n      dup1\n      returndatacopy\n      revert(0x00, returndatasize)\n    tag_221:\n      pop\n        /* \"rockpsciccors.sol\":2583:2909  if (... */\n    tag_219:\n        /* \"rockpsciccors.sol\":2459:2909  if (move1 == move2) {... */\n    tag_186:\n        /* \"rockpsciccors.sol\":2936:2940  true */\n      0x01\n        /* \"rockpsciccors.sol\":2921:2933  gameFinished */\n      0x05\n      0x00\n        /* \"rockpsciccors.sol\":2921:2940  gameFinished = true */\n      0x0100\n      exp\n      dup2\n      sload\n      dup2\n      0xff\n      mul\n      not\n      and\n      swap1\n      dup4\n      iszero\n      iszero\n      mul\n      or\n      swap1\n      sstore\n      pop\n        /* \"rockpsciccors.sol\":2181:2948  {... */\n      pop\n      pop\n        /* \"rockpsciccors.sol\":2145:2948  function determineWinner() internal {... */\n      jump\t// out\n        /* \"#utility.yul\":7:97   */\n    tag_222:\n        /* \"#utility.yul\":41:48   */\n      0x00\n        /* \"#utility.yul\":84:89   */\n      dup2\n        /* \"#utility.yul\":77:90   */\n      iszero\n        /* \"#utility.yul\":70:91   */\n      iszero\n        /* \"#utility.yul\":59:91   */\n      swap1\n      pop\n        /* \"#utility.yul\":7:97   */\n      swap2\n      swap1\n      pop\n      jump\t// out\n        /* \"#utility.yul\":103:212   */\n    tag_223:\n        /* \"#utility.yul\":184:205   */\n      tag_301\n        /* \"#utility.yul\":199:204   */\n      dup2\n        /* \"#utility.yul\":184:205   */\n      tag_222\n      jump\t// in\n    tag_301:\n        /* \"#utility.yul\":179:182   */\n      dup3\n        /* \"#utility.yul\":172:206   */\n      mstore\n        /* \"#utility.yul\":103:212   */\n      pop\n      pop\n      jump\t// out\n        /* \"#utility.yul\":218:428   */\n    tag_25:\n        /* \"#utility.yul\":305:309   */\n      0x00\n        /* \"#utility.yul\":343:345   */\n      0x20\n        /* \"#utility.yul\":332:341   */\n      dup3\n        /* \"#utility.yul\":328:346   */\n      add\n        /* \"#utility.yul\":320:346   */\n      swap1\n      pop\n        /* \"#utility.yul\":356:421   */\n      tag_303\n        /* \"#utility.yul\":418:419   */\n      0x00\n        /* \"#utility.yul\":407:416   */\n      dup4\n        /* \"#utility.yul\":403:420   */\n      add\n        /* \"#utility.yul\":394:400   */\n      dup5\n        /* \"#utility.yul\":356:421   */\n      tag_223\n      jump\t// in\n    tag_303:\n        /* \"#utility.yul\":218:428   */\n      swap3\n      swap2\n      pop\n      pop\n      jump\t// out\n        /* \"#utility.yul\":434:509   */\n    tag_224:\n        /* \"#utility.yul\":467:473   */\n      0x00\n        /* \"#utility.yul\":500:502   */\n      0x40\n        /* \"#utility.yul\":494:503   */\n      mload\n        /* \"#utility.yul\":484:503   */\n      swap1\n      pop\n        /* \"#utility.yul\":434:509   */\n      swap1\n      jump\t// out\n        /* \"#utility.yul\":515:632   */\n    tag_225:\n        /* \"#utility.yul\":624:625   */\n      0x00\n        /* \"#utility.yul\":621:622   */\n      dup1\n        /* \"#utility.yul\":614:626   */\n      revert\n        /* \"#utility.yul\":638:755   */\n    tag_226:\n        /* \"#utility.yul\":747:748   */\n      0x00\n        /* \"#utility.yul\":744:745   */\n      dup1\n        /* \"#utility.yul\":737:749   */\n      revert\n        /* \"#utility.yul\":761:878   */\n    tag_227:\n        /* \"#utility.yul\":870:871   */\n      0x00\n        /* \"#utility.yul\":867:868   */\n      dup1\n        /* \"#utility.yul\":860:872   */\n      revert\n        /* \"#utility.yul\":884:1001   */\n    tag_228:\n        /* \"#utility.yul\":993:994   */\n      0x00\n        /* \"#utility.yul\":990:991   */\n      dup1\n        /* \"#utility.yul\":983:995   */\n      revert\n        /* \"#utility.yul\":1007:1109   */\n    tag_229:\n        /* \"#utility.yul\":1048:1054   */\n      0x00\n        /* \"#utility.yul\":1099:1101   */\n      0x1f\n        /* \"#utility.yul\":1095:1102   */\n      not\n        /* \"#utility.yul\":1090:1092   */\n      0x1f\n        /* \"#utility.yul\":1083:1088   */\n      dup4\n        /* \"#utility.yul\":1079:1093   */\n      add\n        /* \"#utility.yul\":1075:1103   */\n      and\n        /* \"#utility.yul\":1065:1103   */\n      swap1\n      pop\n        /* \"#utility.yul\":1007:1109   */\n      swap2\n      swap1\n      pop\n      jump\t// out\n        /* \"#utility.yul\":1115:1295   */\n    tag_230:\n        /* \"#utility.yul\":1163:1240   */\n      0x4e487b7100000000000000000000000000000000000000000000000000000000\n        /* \"#utility.yul\":1160:1161   */\n      0x00\n        /* \"#utility.yul\":1153:1241   */\n      mstore\n        /* \"#utility.yul\":1260:1264   */\n      0x41\n        /* \"#utility.yul\":1257:1258   */\n      0x04\n        /* \"#utility.yul\":1250:1265   */\n      mstore\n        /* \"#utility.yul\":1284:1288   */\n      0x24\n        /* \"#utility.yul\":1281:1282   */\n      0x00\n        /* \"#utility.yul\":1274:1289   */\n      revert\n        /* \"#utility.yul\":1301:1582   */\n    tag_231:\n        /* \"#utility.yul\":1384:1411   */\n      tag_312\n        /* \"#utility.yul\":1406:1410   */\n      dup3\n        /* \"#utility.yul\":1384:1411   */\n      tag_229\n      jump\t// in\n    tag_312:\n        /* \"#utility.yul\":1376:1382   */\n      dup2\n        /* \"#utility.yul\":1372:1412   */\n      add\n        /* \"#utility.yul\":1514:1520   */\n      dup2\n        /* \"#utility.yul\":1502:1512   */\n      dup2\n        /* \"#utility.yul\":1499:1521   */\n      lt\n        /* \"#utility.yul\":1478:1496   */\n      0xffffffffffffffff\n        /* \"#utility.yul\":1466:1476   */\n      dup3\n        /* \"#utility.yul\":1463:1497   */\n      gt\n        /* \"#utility.yul\":1460:1522   */\n      or\n        /* \"#utility.yul\":1457:1545   */\n      iszero\n      tag_313\n      jumpi\n        /* \"#utility.yul\":1525:1543   */\n      tag_314\n      tag_230\n      jump\t// in\n    tag_314:\n        /* \"#utility.yul\":1457:1545   */\n    tag_313:\n        /* \"#utility.yul\":1565:1575   */\n      dup1\n        /* \"#utility.yul\":1561:1563   */\n      0x40\n        /* \"#utility.yul\":1554:1576   */\n      mstore\n        /* \"#utility.yul\":1344:1582   */\n      pop\n        /* \"#utility.yul\":1301:1582   */\n      pop\n      pop\n      jump\t// out\n        /* \"#utility.yul\":1588:1717   */\n    tag_232:\n        /* \"#utility.yul\":1622:1628   */\n      0x00\n        /* \"#utility.yul\":1649:1669   */\n      tag_316\n      tag_224\n      jump\t// in\n    tag_316:\n        /* \"#utility.yul\":1639:1669   */\n      swap1\n      pop\n        /* \"#utility.yul\":1678:1711   */\n      tag_317\n        /* \"#utility.yul\":1706:1710   */\n      dup3\n        /* \"#utility.yul\":1698:1704   */\n      dup3\n        /* \"#utility.yul\":1678:1711   */\n      tag_231\n      jump\t// in\n    tag_317:\n        /* \"#utility.yul\":1588:1717   */\n      swap2\n      swap1\n      pop\n      jump\t// out\n        /* \"#utility.yul\":1723:2031   */\n    tag_233:\n        /* \"#utility.yul\":1785:1789   */\n      0x00\n        /* \"#utility.yul\":1875:1893   */\n      0xffffffffffffffff\n        /* \"#utility.yul\":1867:1873   */\n      dup3\n        /* \"#utility.yul\":1864:1894   */\n      gt\n        /* \"#utility.yul\":1861:1917   */\n      iszero\n      tag_319\n      jumpi\n        /* \"#utility.yul\":1897:1915   */\n      tag_320\n      tag_230\n      jump\t// in\n    tag_320:\n        /* \"#utility.yul\":1861:1917   */\n    tag_319:\n        /* \"#utility.yul\":1935:1964   */\n      tag_321\n        /* \"#utility.yul\":1957:1963   */\n      dup3\n        /* \"#utility.yul\":1935:1964   */\n      tag_229\n      jump\t// in\n    tag_321:\n        /* \"#utility.yul\":1927:1964   */\n      swap1\n      pop\n        /* \"#utility.yul\":2019:2023   */\n      0x20\n        /* \"#utility.yul\":2013:2017   */\n      dup2\n        /* \"#utility.yul\":2009:2024   */\n      add\n        /* \"#utility.yul\":2001:2024   */\n      swap1\n      pop\n        /* \"#utility.yul\":1723:2031   */\n      swap2\n      swap1\n      pop\n      jump\t// out\n        /* \"#utility.yul\":2037:2183   */\n    tag_234:\n        /* \"#utility.yul\":2134:2140   */\n      dup3\n        /* \"#utility.yul\":2129:2132   */\n      dup2\n        /* \"#utility.yul\":2124:2127   */\n      dup4\n        /* \"#utility.yul\":2111:2141   */\n      calldatacopy\n        /* \"#utility.yul\":2175:2176   */\n      0x00\n        /* \"#utility.yul\":2166:2172   */\n      dup4\n        /* \"#utility.yul\":2161:2164   */\n      dup4\n        /* \"#utility.yul\":2157:2173   */\n      add\n        /* \"#utility.yul\":2150:2177   */\n      mstore\n        /* \"#utility.yul\":2037:2183   */\n      pop\n      pop\n      pop\n      jump\t// out\n        /* \"#utility.yul\":2189:2614   */\n    tag_235:\n        /* \"#utility.yul\":2267:2272   */\n      0x00\n        /* \"#utility.yul\":2292:2358   */\n      tag_324\n        /* \"#utility.yul\":2308:2357   */\n      tag_325\n        /* \"#utility.yul\":2350:2356   */\n      dup5\n        /* \"#utility.yul\":2308:2357   */\n      tag_233\n      jump\t// in\n    tag_325:\n        /* \"#utility.yul\":2292:2358   */\n      tag_232\n      jump\t// in\n    tag_324:\n        /* \"#utility.yul\":2283:2358   */\n      swap1\n      pop\n        /* \"#utility.yul\":2381:2387   */\n      dup3\n        /* \"#utility.yul\":2374:2379   */\n      dup2\n        /* \"#utility.yul\":2367:2388   */\n      mstore\n        /* \"#utility.yul\":2419:2423   */\n      0x20\n        /* \"#utility.yul\":2412:2417   */\n      dup2\n        /* \"#utility.yul\":2408:2424   */\n      add\n        /* \"#utility.yul\":2457:2460   */\n      dup5\n        /* \"#utility.yul\":2448:2454   */\n      dup5\n        /* \"#utility.yul\":2443:2446   */\n      dup5\n        /* \"#utility.yul\":2439:2455   */\n      add\n        /* \"#utility.yul\":2436:2461   */\n      gt\n        /* \"#utility.yul\":2433:2545   */\n      iszero\n      tag_326\n      jumpi\n        /* \"#utility.yul\":2464:2543   */\n      tag_327\n      tag_228\n      jump\t// in\n    tag_327:\n        /* \"#utility.yul\":2433:2545   */\n    tag_326:\n        /* \"#utility.yul\":2554:2608   */\n      tag_328\n        /* \"#utility.yul\":2601:2607   */\n      dup5\n        /* \"#utility.yul\":2596:2599   */\n      dup3\n        /* \"#utility.yul\":2591:2594   */\n      dup6\n        /* \"#utility.yul\":2554:2608   */\n      tag_234\n      jump\t// in\n    tag_328:\n        /* \"#utility.yul\":2273:2614   */\n      pop\n        /* \"#utility.yul\":2189:2614   */\n      swap4\n      swap3\n      pop\n      pop\n      pop\n      jump\t// out\n        /* \"#utility.yul\":2634:2974   */\n    tag_236:\n        /* \"#utility.yul\":2690:2695   */\n      0x00\n        /* \"#utility.yul\":2739:2742   */\n      dup3\n        /* \"#utility.yul\":2732:2736   */\n      0x1f\n        /* \"#utility.yul\":2724:2730   */\n      dup4\n        /* \"#utility.yul\":2720:2737   */\n      add\n        /* \"#utility.yul\":2716:2743   */\n      slt\n        /* \"#utility.yul\":2706:2828   */\n      tag_330\n      jumpi\n        /* \"#utility.yul\":2747:2826   */\n      tag_331\n      tag_227\n      jump\t// in\n    tag_331:\n        /* \"#utility.yul\":2706:2828   */\n    tag_330:\n        /* \"#utility.yul\":2864:2870   */\n      dup2\n        /* \"#utility.yul\":2851:2871   */\n      calldataload\n        /* \"#utility.yul\":2889:2968   */\n      tag_332\n        /* \"#utility.yul\":2964:2967   */\n      dup5\n        /* \"#utility.yul\":2956:2962   */\n      dup3\n        /* \"#utility.yul\":2949:2953   */\n      0x20\n        /* \"#utility.yul\":2941:2947   */\n      dup7\n        /* \"#utility.yul\":2937:2954   */\n      add\n        /* \"#utility.yul\":2889:2968   */\n      tag_235\n      jump\t// in\n    tag_332:\n        /* \"#utility.yul\":2880:2968   */\n      swap2\n      pop\n        /* \"#utility.yul\":2696:2974   */\n      pop\n        /* \"#utility.yul\":2634:2974   */\n      swap3\n      swap2\n      pop\n      pop\n      jump\t// out\n        /* \"#utility.yul\":2980:3489   */\n    tag_29:\n        /* \"#utility.yul\":3049:3055   */\n      0x00\n        /* \"#utility.yul\":3098:3100   */\n      0x20\n        /* \"#utility.yul\":3086:3095   */\n      dup3\n        /* \"#utility.yul\":3077:3084   */\n      dup5\n        /* \"#utility.yul\":3073:3096   */\n      sub\n        /* \"#utility.yul\":3069:3101   */\n      slt\n        /* \"#utility.yul\":3066:3185   */\n      iszero\n      tag_334\n      jumpi\n        /* \"#utility.yul\":3104:3183   */\n      tag_335\n      tag_225\n      jump\t// in\n    tag_335:\n        /* \"#utility.yul\":3066:3185   */\n    tag_334:\n        /* \"#utility.yul\":3252:3253   */\n      0x00\n        /* \"#utility.yul\":3241:3250   */\n      dup3\n        /* \"#utility.yul\":3237:3254   */\n      add\n        /* \"#utility.yul\":3224:3255   */\n      calldataload\n        /* \"#utility.yul\":3282:3300   */\n      0xffffffffffffffff\n        /* \"#utility.yul\":3274:3280   */\n      dup2\n        /* \"#utility.yul\":3271:3301   */\n      gt\n        /* \"#utility.yul\":3268:3385   */\n      iszero\n      tag_336\n      jumpi\n        /* \"#utility.yul\":3304:3383   */\n      tag_337\n      tag_226\n      jump\t// in\n    tag_337:\n        /* \"#utility.yul\":3268:3385   */\n    tag_336:\n        /* \"#utility.yul\":3409:3472   */\n      tag_338\n        /* \"#utility.yul\":3464:3471   */\n      dup5\n        /* \"#utility.yul\":3455:3461   */\n      dup3\n        /* \"#utility.yul\":3444:3453   */\n      dup6\n        /* \"#utility.yul\":3440:3462   */\n      add\n        /* \"#utility.yul\":3409:3472   */\n      tag_236\n      jump\t// in\n    tag_338:\n        /* \"#utility.yul\":3399:3472   */\n      swap2\n      pop\n        /* \"#utility.yul\":3195:3482   */\n      pop\n        /* \"#utility.yul\":2980:3489   */\n      swap3\n      swap2\n      pop\n      pop\n      jump\t// out\n        /* \"#utility.yul\":3495:3572   */\n    tag_237:\n        /* \"#utility.yul\":3532:3539   */\n      0x00\n        /* \"#utility.yul\":3561:3566   */\n      dup2\n        /* \"#utility.yul\":3550:3566   */\n      swap1\n      pop\n        /* \"#utility.yul\":3495:3572   */\n      swap2\n      swap1\n      pop\n      jump\t// out\n        /* \"#utility.yul\":3578:3696   */\n    tag_238:\n        /* \"#utility.yul\":3665:3689   */\n      tag_341\n        /* \"#utility.yul\":3683:3688   */\n      dup2\n        /* \"#utility.yul\":3665:3689   */\n      tag_237\n      jump\t// in\n    tag_341:\n        /* \"#utility.yul\":3660:3663   */\n      dup3\n        /* \"#utility.yul\":3653:3690   */\n      mstore\n        /* \"#utility.yul\":3578:3696   */\n      pop\n      pop\n      jump\t// out\n        /* \"#utility.yul\":3702:3924   */\n    tag_35:\n        /* \"#utility.yul\":3795:3799   */\n      0x00\n        /* \"#utility.yul\":3833:3835   */\n      0x20\n        /* \"#utility.yul\":3822:3831   */\n      dup3\n        /* \"#utility.yul\":3818:3836   */\n      add\n        /* \"#utility.yul\":3810:3836   */\n      swap1\n      pop\n        /* \"#utility.yul\":3846:3917   */\n      tag_343\n        /* \"#utility.yul\":3914:3915   */\n      0x00\n        /* \"#utility.yul\":3903:3912   */\n      dup4\n        /* \"#utility.yul\":3899:3916   */\n      add\n        /* \"#utility.yul\":3890:3896   */\n      dup5\n        /* \"#utility.yul\":3846:3917   */\n      tag_238\n      jump\t// in\n    tag_343:\n        /* \"#utility.yul\":3702:3924   */\n      swap3\n      swap2\n      pop\n      pop\n      jump\t// out\n        /* \"#utility.yul\":3930:4056   */\n    tag_239:\n        /* \"#utility.yul\":3967:3974   */\n      0x00\n        /* \"#utility.yul\":4007:4049   */\n      0xffffffffffffffffffffffffffffffffffffffff\n        /* \"#utility.yul\":4000:4005   */\n      dup3\n        /* \"#utility.yul\":3996:4050   */\n      and\n        /* \"#utility.yul\":3985:4050   */\n      swap1\n      pop\n        /* \"#utility.yul\":3930:4056   */\n      swap2\n      swap1\n      pop\n      jump\t// out\n        /* \"#utility.yul\":4062:4166   */\n    tag_240:\n        /* \"#utility.yul\":4107:4114   */\n      0x00\n        /* \"#utility.yul\":4136:4160   */\n      tag_346\n        /* \"#utility.yul\":4154:4159   */\n      dup3\n        /* \"#utility.yul\":4136:4160   */\n      tag_239\n      jump\t// in\n    tag_346:\n        /* \"#utility.yul\":4125:4160   */\n      swap1\n      pop\n        /* \"#utility.yul\":4062:4166   */\n      swap2\n      swap1\n      pop\n      jump\t// out\n        /* \"#utility.yul\":4172:4314   */\n    tag_241:\n        /* \"#utility.yul\":4275:4307   */\n      tag_348\n        /* \"#utility.yul\":4301:4306   */\n      dup2\n        /* \"#utility.yul\":4275:4307   */\n      tag_240\n      jump\t// in\n    tag_348:\n        /* \"#utility.yul\":4270:4273   */\n      dup3\n        /* \"#utility.yul\":4263:4308   */\n      mstore\n        /* \"#utility.yul\":4172:4314   */\n      pop\n      pop\n      jump\t// out\n        /* \"#utility.yul\":4320:4574   */\n    tag_40:\n        /* \"#utility.yul\":4429:4433   */\n      0x00\n        /* \"#utility.yul\":4467:4469   */\n      0x20\n        /* \"#utility.yul\":4456:4465   */\n      dup3\n        /* \"#utility.yul\":4452:4470   */\n      add\n        /* \"#utility.yul\":4444:4470   */\n      swap1\n      pop\n        /* \"#utility.yul\":4480:4567   */\n      tag_350\n        /* \"#utility.yul\":4564:4565   */\n      0x00\n        /* \"#utility.yul\":4553:4562   */\n      dup4\n        /* \"#utility.yul\":4549:4566   */\n      add\n        /* \"#utility.yul\":4540:4546   */\n      dup5\n        /* \"#utility.yul\":4480:4567   */\n      tag_241\n      jump\t// in\n    tag_350:\n        /* \"#utility.yul\":4320:4574   */\n      swap3\n      swap2\n      pop\n      pop\n      jump\t// out\n        /* \"#utility.yul\":4580:4676   */\n    tag_242:\n        /* \"#utility.yul\":4617:4624   */\n      0x00\n        /* \"#utility.yul\":4646:4670   */\n      tag_352\n        /* \"#utility.yul\":4664:4669   */\n      dup3\n        /* \"#utility.yul\":4646:4670   */\n      tag_239\n      jump\t// in\n    tag_352:\n        /* \"#utility.yul\":4635:4670   */\n      swap1\n      pop\n        /* \"#utility.yul\":4580:4676   */\n      swap2\n      swap1\n      pop\n      jump\t// out\n        /* \"#utility.yul\":4682:4804   */\n    tag_243:\n        /* \"#utility.yul\":4755:4779   */\n      tag_354\n        /* \"#utility.yul\":4773:4778   */\n      dup2\n        /* \"#utility.yul\":4755:4779   */\n      tag_242\n      jump\t// in\n    tag_354:\n        /* \"#utility.yul\":4748:4753   */\n      dup2\n        /* \"#utility.yul\":4745:4780   */\n      eq\n        /* \"#utility.yul\":4735:4798   */\n      tag_355\n      jumpi\n        /* \"#utility.yul\":4794:4795   */\n      0x00\n        /* \"#utility.yul\":4791:4792   */\n      dup1\n        /* \"#utility.yul\":4784:4796   */\n      revert\n        /* \"#utility.yul\":4735:4798   */\n    tag_355:\n        /* \"#utility.yul\":4682:4804   */\n      pop\n      jump\t// out\n        /* \"#utility.yul\":4810:4949   */\n    tag_244:\n        /* \"#utility.yul\":4856:4861   */\n      0x00\n        /* \"#utility.yul\":4894:4900   */\n      dup2\n        /* \"#utility.yul\":4881:4901   */\n      calldataload\n        /* \"#utility.yul\":4872:4901   */\n      swap1\n      pop\n        /* \"#utility.yul\":4910:4943   */\n      tag_357\n        /* \"#utility.yul\":4937:4942   */\n      dup2\n        /* \"#utility.yul\":4910:4943   */\n      tag_243\n      jump\t// in\n    tag_357:\n        /* \"#utility.yul\":4810:4949   */\n      swap3\n      swap2\n      pop\n      pop\n      jump\t// out\n        /* \"#utility.yul\":4955:5284   */\n    tag_48:\n        /* \"#utility.yul\":5014:5020   */\n      0x00\n        /* \"#utility.yul\":5063:5065   */\n      0x20\n        /* \"#utility.yul\":5051:5060   */\n      dup3\n        /* \"#utility.yul\":5042:5049   */\n      dup5\n        /* \"#utility.yul\":5038:5061   */\n      sub\n        /* \"#utility.yul\":5034:5066   */\n      slt\n        /* \"#utility.yul\":5031:5150   */\n      iszero\n      tag_359\n      jumpi\n        /* \"#utility.yul\":5069:5148   */\n      tag_360\n      tag_225\n      jump\t// in\n    tag_360:\n        /* \"#utility.yul\":5031:5150   */\n    tag_359:\n        /* \"#utility.yul\":5189:5190   */\n      0x00\n        /* \"#utility.yul\":5214:5267   */\n      tag_361\n        /* \"#utility.yul\":5259:5266   */\n      dup5\n        /* \"#utility.yul\":5250:5256   */\n      dup3\n        /* \"#utility.yul\":5239:5248   */\n      dup6\n        /* \"#utility.yul\":5235:5257   */\n      add\n        /* \"#utility.yul\":5214:5267   */\n      tag_244\n      jump\t// in\n    tag_361:\n        /* \"#utility.yul\":5204:5267   */\n      swap2\n      pop\n        /* \"#utility.yul\":5160:5277   */\n      pop\n        /* \"#utility.yul\":4955:5284   */\n      swap3\n      swap2\n      pop\n      pop\n      jump\t// out\n        /* \"#utility.yul\":5290:5408   */\n    tag_245:\n        /* \"#utility.yul\":5377:5401   */\n      tag_363\n        /* \"#utility.yul\":5395:5400   */\n      dup2\n        /* \"#utility.yul\":5377:5401   */\n      tag_242\n      jump\t// in\n    tag_363:\n        /* \"#utility.yul\":5372:5375   */\n      dup3\n        /* \"#utility.yul\":5365:5402   */\n      mstore\n        /* \"#utility.yul\":5290:5408   */\n      pop\n      pop\n      jump\t// out\n        /* \"#utility.yul\":5414:5491   */\n    tag_246:\n        /* \"#utility.yul\":5451:5458   */\n      0x00\n        /* \"#utility.yul\":5480:5485   */\n      dup2\n        /* \"#utility.yul\":5469:5485   */\n      swap1\n      pop\n        /* \"#utility.yul\":5414:5491   */\n      swap2\n      swap1\n      pop\n      jump\t// out\n        /* \"#utility.yul\":5497:5615   */\n    tag_247:\n        /* \"#utility.yul\":5584:5608   */\n      tag_366\n        /* \"#utility.yul\":5602:5607   */\n      dup2\n        /* \"#utility.yul\":5584:5608   */\n      tag_246\n      jump\t// in\n    tag_366:\n        /* \"#utility.yul\":5579:5582   */\n      dup3\n        /* \"#utility.yul\":5572:5609   */\n      mstore\n        /* \"#utility.yul\":5497:5615   */\n      pop\n      pop\n      jump\t// out\n        /* \"#utility.yul\":5621:5801   */\n    tag_120:\n        /* \"#utility.yul\":5669:5746   */\n      0x4e487b7100000000000000000000000000000000000000000000000000000000\n        /* \"#utility.yul\":5666:5667   */\n      0x00\n        /* \"#utility.yul\":5659:5747   */\n      mstore\n        /* \"#utility.yul\":5766:5770   */\n      0x21\n        /* \"#utility.yul\":5763:5764   */\n      0x04\n        /* \"#utility.yul\":5756:5771   */\n      mstore\n        /* \"#utility.yul\":5790:5794   */\n      0x24\n        /* \"#utility.yul\":5787:5788   */\n      0x00\n        /* \"#utility.yul\":5780:5795   */\n      revert\n        /* \"#utility.yul\":5807:5919   */\n    tag_248:\n        /* \"#utility.yul\":5887:5888   */\n      0x04\n        /* \"#utility.yul\":5880:5885   */\n      dup2\n        /* \"#utility.yul\":5877:5889   */\n      lt\n        /* \"#utility.yul\":5867:5913   */\n      tag_369\n      jumpi\n        /* \"#utility.yul\":5893:5911   */\n      tag_370\n      tag_120\n      jump\t// in\n    tag_370:\n        /* \"#utility.yul\":5867:5913   */\n    tag_369:\n        /* \"#utility.yul\":5807:5919   */\n      pop\n      jump\t// out\n        /* \"#utility.yul\":5925:6050   */\n    tag_249:\n        /* \"#utility.yul\":5969:5976   */\n      0x00\n        /* \"#utility.yul\":5998:6003   */\n      dup2\n        /* \"#utility.yul\":5987:6003   */\n      swap1\n      pop\n        /* \"#utility.yul\":6004:6044   */\n      tag_372\n        /* \"#utility.yul\":6038:6043   */\n      dup3\n        /* \"#utility.yul\":6004:6044   */\n      tag_248\n      jump\t// in\n    tag_372:\n        /* \"#utility.yul\":5925:6050   */\n      swap2\n      swap1\n      pop\n      jump\t// out\n        /* \"#utility.yul\":6056:6181   */\n    tag_250:\n        /* \"#utility.yul\":6111:6120   */\n      0x00\n        /* \"#utility.yul\":6144:6175   */\n      tag_374\n        /* \"#utility.yul\":6169:6174   */\n      dup3\n        /* \"#utility.yul\":6144:6175   */\n      tag_249\n      jump\t// in\n    tag_374:\n        /* \"#utility.yul\":6131:6175   */\n      swap1\n      pop\n        /* \"#utility.yul\":6056:6181   */\n      swap2\n      swap1\n      pop\n      jump\t// out\n        /* \"#utility.yul\":6187:6328   */\n    tag_251:\n        /* \"#utility.yul\":6279:6321   */\n      tag_376\n        /* \"#utility.yul\":6315:6320   */\n      dup2\n        /* \"#utility.yul\":6279:6321   */\n      tag_250\n      jump\t// in\n    tag_376:\n        /* \"#utility.yul\":6274:6277   */\n      dup3\n        /* \"#utility.yul\":6267:6322   */\n      mstore\n        /* \"#utility.yul\":6187:6328   */\n      pop\n      pop\n      jump\t// out\n        /* \"#utility.yul\":6334:6433   */\n    tag_252:\n        /* \"#utility.yul\":6386:6392   */\n      0x00\n        /* \"#utility.yul\":6420:6425   */\n      dup2\n        /* \"#utility.yul\":6414:6426   */\n      mload\n        /* \"#utility.yul\":6404:6426   */\n      swap1\n      pop\n        /* \"#utility.yul\":6334:6433   */\n      swap2\n      swap1\n      pop\n      jump\t// out\n        /* \"#utility.yul\":6439:6608   */\n    tag_253:\n        /* \"#utility.yul\":6523:6534   */\n      0x00\n        /* \"#utility.yul\":6557:6563   */\n      dup3\n        /* \"#utility.yul\":6552:6555   */\n      dup3\n        /* \"#utility.yul\":6545:6564   */\n      mstore\n        /* \"#utility.yul\":6597:6601   */\n      0x20\n        /* \"#utility.yul\":6592:6595   */\n      dup3\n        /* \"#utility.yul\":6588:6602   */\n      add\n        /* \"#utility.yul\":6573:6602   */\n      swap1\n      pop\n        /* \"#utility.yul\":6439:6608   */\n      swap3\n      swap2\n      pop\n      pop\n      jump\t// out\n        /* \"#utility.yul\":6614:6860   */\n    tag_254:\n        /* \"#utility.yul\":6695:6696   */\n      0x00\n        /* \"#utility.yul\":6705:6818   */\n    tag_380:\n        /* \"#utility.yul\":6719:6725   */\n      dup4\n        /* \"#utility.yul\":6716:6717   */\n      dup2\n        /* \"#utility.yul\":6713:6726   */\n      lt\n        /* \"#utility.yul\":6705:6818   */\n      iszero\n      tag_382\n      jumpi\n        /* \"#utility.yul\":6804:6805   */\n      dup1\n        /* \"#utility.yul\":6799:6802   */\n      dup3\n        /* \"#utility.yul\":6795:6806   */\n      add\n        /* \"#utility.yul\":6789:6807   */\n      mload\n        /* \"#utility.yul\":6785:6786   */\n      dup2\n        /* \"#utility.yul\":6780:6783   */\n      dup5\n        /* \"#utility.yul\":6776:6787   */\n      add\n        /* \"#utility.yul\":6769:6808   */\n      mstore\n        /* \"#utility.yul\":6741:6743   */\n      0x20\n        /* \"#utility.yul\":6738:6739   */\n      dup2\n        /* \"#utility.yul\":6734:6744   */\n      add\n        /* \"#utility.yul\":6729:6744   */\n      swap1\n      pop\n        /* \"#utility.yul\":6705:6818   */\n      jump(tag_380)\n    tag_382:\n        /* \"#utility.yul\":6852:6853   */\n      0x00\n        /* \"#utility.yul\":6843:6849   */\n      dup5\n        /* \"#utility.yul\":6838:6841   */\n      dup5\n        /* \"#utility.yul\":6834:6850   */\n      add\n        /* \"#utility.yul\":6827:6854   */\n      mstore\n        /* \"#utility.yul\":6676:6860   */\n      pop\n        /* \"#utility.yul\":6614:6860   */\n      pop\n      pop\n      pop\n      jump\t// out\n        /* \"#utility.yul\":6866:7243   */\n    tag_255:\n        /* \"#utility.yul\":6954:6957   */\n      0x00\n        /* \"#utility.yul\":6982:7021   */\n      tag_384\n        /* \"#utility.yul\":7015:7020   */\n      dup3\n        /* \"#utility.yul\":6982:7021   */\n      tag_252\n      jump\t// in\n    tag_384:\n        /* \"#utility.yul\":7037:7108   */\n      tag_385\n        /* \"#utility.yul\":7101:7107   */\n      dup2\n        /* \"#utility.yul\":7096:7099   */\n      dup6\n        /* \"#utility.yul\":7037:7108   */\n      tag_253\n      jump\t// in\n    tag_385:\n        /* \"#utility.yul\":7030:7108   */\n      swap4\n      pop\n        /* \"#utility.yul\":7117:7182   */\n      tag_386\n        /* \"#utility.yul\":7175:7181   */\n      dup2\n        /* \"#utility.yul\":7170:7173   */\n      dup6\n        /* \"#utility.yul\":7163:7167   */\n      0x20\n        /* \"#utility.yul\":7156:7161   */\n      dup7\n        /* \"#utility.yul\":7152:7168   */\n      add\n        /* \"#utility.yul\":7117:7182   */\n      tag_254\n      jump\t// in\n    tag_386:\n        /* \"#utility.yul\":7207:7236   */\n      tag_387\n        /* \"#utility.yul\":7229:7235   */\n      dup2\n        /* \"#utility.yul\":7207:7236   */\n      tag_229\n      jump\t// in\n    tag_387:\n        /* \"#utility.yul\":7202:7205   */\n      dup5\n        /* \"#utility.yul\":7198:7237   */\n      add\n        /* \"#utility.yul\":7191:7237   */\n      swap2\n      pop\n        /* \"#utility.yul\":6958:7243   */\n      pop\n        /* \"#utility.yul\":6866:7243   */\n      swap3\n      swap2\n      pop\n      pop\n      jump\t// out\n        /* \"#utility.yul\":7249:8002   */\n    tag_51:\n        /* \"#utility.yul\":7473:7477   */\n      0x00\n        /* \"#utility.yul\":7511:7514   */\n      0xa0\n        /* \"#utility.yul\":7500:7509   */\n      dup3\n        /* \"#utility.yul\":7496:7515   */\n      add\n        /* \"#utility.yul\":7488:7515   */\n      swap1\n      pop\n        /* \"#utility.yul\":7525:7596   */\n      tag_389\n        /* \"#utility.yul\":7593:7594   */\n      0x00\n        /* \"#utility.yul\":7582:7591   */\n      dup4\n        /* \"#utility.yul\":7578:7595   */\n      add\n        /* \"#utility.yul\":7569:7575   */\n      dup9\n        /* \"#utility.yul\":7525:7596   */\n      tag_245\n      jump\t// in\n    tag_389:\n        /* \"#utility.yul\":7606:7678   */\n      tag_390\n        /* \"#utility.yul\":7674:7676   */\n      0x20\n        /* \"#utility.yul\":7663:7672   */\n      dup4\n        /* \"#utility.yul\":7659:7677   */\n      add\n        /* \"#utility.yul\":7650:7656   */\n      dup8\n        /* \"#utility.yul\":7606:7678   */\n      tag_247\n      jump\t// in\n    tag_390:\n        /* \"#utility.yul\":7688:7765   */\n      tag_391\n        /* \"#utility.yul\":7761:7763   */\n      0x40\n        /* \"#utility.yul\":7750:7759   */\n      dup4\n        /* \"#utility.yul\":7746:7764   */\n      add\n        /* \"#utility.yul\":7737:7743   */\n      dup7\n        /* \"#utility.yul\":7688:7765   */\n      tag_251\n      jump\t// in\n    tag_391:\n        /* \"#utility.yul\":7812:7821   */\n      dup2\n        /* \"#utility.yul\":7806:7810   */\n      dup2\n        /* \"#utility.yul\":7802:7822   */\n      sub\n        /* \"#utility.yul\":7797:7799   */\n      0x60\n        /* \"#utility.yul\":7786:7795   */\n      dup4\n        /* \"#utility.yul\":7782:7800   */\n      add\n        /* \"#utility.yul\":7775:7823   */\n      mstore\n        /* \"#utility.yul\":7840:7918   */\n      tag_392\n        /* \"#utility.yul\":7913:7917   */\n      dup2\n        /* \"#utility.yul\":7904:7910   */\n      dup6\n        /* \"#utility.yul\":7840:7918   */\n      tag_255\n      jump\t// in\n    tag_392:\n        /* \"#utility.yul\":7832:7918   */\n      swap1\n      pop\n        /* \"#utility.yul\":7928:7995   */\n      tag_393\n        /* \"#utility.yul\":7990:7993   */\n      0x80\n        /* \"#utility.yul\":7979:7988   */\n      dup4\n        /* \"#utility.yul\":7975:7994   */\n      add\n        /* \"#utility.yul\":7966:7972   */\n      dup5\n        /* \"#utility.yul\":7928:7995   */\n      tag_223\n      jump\t// in\n    tag_393:\n        /* \"#utility.yul\":7249:8002   */\n      swap7\n      swap6\n      pop\n      pop\n      pop\n      pop\n      pop\n      pop\n      jump\t// out\n        /* \"#utility.yul\":8008:8130   */\n    tag_256:\n        /* \"#utility.yul\":8081:8105   */\n      tag_395\n        /* \"#utility.yul\":8099:8104   */\n      dup2\n        /* \"#utility.yul\":8081:8105   */\n      tag_246\n      jump\t// in\n    tag_395:\n        /* \"#utility.yul\":8074:8079   */\n      dup2\n        /* \"#utility.yul\":8071:8106   */\n      eq\n        /* \"#utility.yul\":8061:8124   */\n      tag_396\n      jumpi\n        /* \"#utility.yul\":8120:8121   */\n      0x00\n        /* \"#utility.yul\":8117:8118   */\n      dup1\n        /* \"#utility.yul\":8110:8122   */\n      revert\n        /* \"#utility.yul\":8061:8124   */\n    tag_396:\n        /* \"#utility.yul\":8008:8130   */\n      pop\n      jump\t// out\n        /* \"#utility.yul\":8136:8275   */\n    tag_257:\n        /* \"#utility.yul\":8182:8187   */\n      0x00\n        /* \"#utility.yul\":8220:8226   */\n      dup2\n        /* \"#utility.yul\":8207:8227   */\n      calldataload\n        /* \"#utility.yul\":8198:8227   */\n      swap1\n      pop\n        /* \"#utility.yul\":8236:8269   */\n      tag_398\n        /* \"#utility.yul\":8263:8268   */\n      dup2\n        /* \"#utility.yul\":8236:8269   */\n      tag_256\n      jump\t// in\n    tag_398:\n        /* \"#utility.yul\":8136:8275   */\n      swap3\n      swap2\n      pop\n      pop\n      jump\t// out\n        /* \"#utility.yul\":8281:8610   */\n    tag_67:\n        /* \"#utility.yul\":8340:8346   */\n      0x00\n        /* \"#utility.yul\":8389:8391   */\n      0x20\n        /* \"#utility.yul\":8377:8386   */\n      dup3\n        /* \"#utility.yul\":8368:8375   */\n      dup5\n        /* \"#utility.yul\":8364:8387   */\n      sub\n        /* \"#utility.yul\":8360:8392   */\n      slt\n        /* \"#utility.yul\":8357:8476   */\n      iszero\n      tag_400\n      jumpi\n        /* \"#utility.yul\":8395:8474   */\n      tag_401\n      tag_225\n      jump\t// in\n    tag_401:\n        /* \"#utility.yul\":8357:8476   */\n    tag_400:\n        /* \"#utility.yul\":8515:8516   */\n      0x00\n        /* \"#utility.yul\":8540:8593   */\n      tag_402\n        /* \"#utility.yul\":8585:8592   */\n      dup5\n        /* \"#utility.yul\":8576:8582   */\n      dup3\n        /* \"#utility.yul\":8565:8574   */\n      dup6\n        /* \"#utility.yul\":8561:8583   */\n      add\n        /* \"#utility.yul\":8540:8593   */\n      tag_257\n      jump\t// in\n    tag_402:\n        /* \"#utility.yul\":8530:8593   */\n      swap2\n      pop\n        /* \"#utility.yul\":8486:8603   */\n      pop\n        /* \"#utility.yul\":8281:8610   */\n      swap3\n      swap2\n      pop\n      pop\n      jump\t// out\n        /* \"#utility.yul\":8616:8795   */\n    tag_258:\n        /* \"#utility.yul\":8756:8787   */\n      0x5468652067616d6520697320616c72656164792066696e69736865642e000000\n        /* \"#utility.yul\":8752:8753   */\n      0x00\n        /* \"#utility.yul\":8744:8750   */\n      dup3\n        /* \"#utility.yul\":8740:8754   */\n      add\n        /* \"#utility.yul\":8733:8788   */\n      mstore\n        /* \"#utility.yul\":8616:8795   */\n      pop\n      jump\t// out\n        /* \"#utility.yul\":8801:9167   */\n    tag_259:\n        /* \"#utility.yul\":8943:8946   */\n      0x00\n        /* \"#utility.yul\":8964:9031   */\n      tag_405\n        /* \"#utility.yul\":9028:9030   */\n      0x1d\n        /* \"#utility.yul\":9023:9026   */\n      dup4\n        /* \"#utility.yul\":8964:9031   */\n      tag_253\n      jump\t// in\n    tag_405:\n        /* \"#utility.yul\":8957:9031   */\n      swap2\n      pop\n        /* \"#utility.yul\":9040:9133   */\n      tag_406\n        /* \"#utility.yul\":9129:9132   */\n      dup3\n        /* \"#utility.yul\":9040:9133   */\n      tag_258\n      jump\t// in\n    tag_406:\n        /* \"#utility.yul\":9158:9160   */\n      0x20\n        /* \"#utility.yul\":9153:9156   */\n      dup3\n        /* \"#utility.yul\":9149:9161   */\n      add\n        /* \"#utility.yul\":9142:9161   */\n      swap1\n      pop\n        /* \"#utility.yul\":8801:9167   */\n      swap2\n      swap1\n      pop\n      jump\t// out\n        /* \"#utility.yul\":9173:9592   */\n    tag_84:\n        /* \"#utility.yul\":9339:9343   */\n      0x00\n        /* \"#utility.yul\":9377:9379   */\n      0x20\n        /* \"#utility.yul\":9366:9375   */\n      dup3\n        /* \"#utility.yul\":9362:9380   */\n      add\n        /* \"#utility.yul\":9354:9380   */\n      swap1\n      pop\n        /* \"#utility.yul\":9426:9435   */\n      dup2\n        /* \"#utility.yul\":9420:9424   */\n      dup2\n        /* \"#utility.yul\":9416:9436   */\n      sub\n        /* \"#utility.yul\":9412:9413   */\n      0x00\n        /* \"#utility.yul\":9401:9410   */\n      dup4\n        /* \"#utility.yul\":9397:9414   */\n      add\n        /* \"#utility.yul\":9390:9437   */\n      mstore\n        /* \"#utility.yul\":9454:9585   */\n      tag_408\n        /* \"#utility.yul\":9580:9584   */\n      dup2\n        /* \"#utility.yul\":9454:9585   */\n      tag_259\n      jump\t// in\n    tag_408:\n        /* \"#utility.yul\":9446:9585   */\n      swap1\n      pop\n        /* \"#utility.yul\":9173:9592   */\n      swap2\n      swap1\n      pop\n      jump\t// out\n        /* \"#utility.yul\":9598:9772   */\n    tag_260:\n        /* \"#utility.yul\":9738:9764   */\n      0x496e73756666696369656e742062657420616d6f756e742e0000000000000000\n        /* \"#utility.yul\":9734:9735   */\n      0x00\n        /* \"#utility.yul\":9726:9732   */\n      dup3\n        /* \"#utility.yul\":9722:9736   */\n      add\n        /* \"#utility.yul\":9715:9765   */\n      mstore\n        /* \"#utility.yul\":9598:9772   */\n      pop\n      jump\t// out\n        /* \"#utility.yul\":9778:10144   */\n    tag_261:\n        /* \"#utility.yul\":9920:9923   */\n      0x00\n        /* \"#utility.yul\":9941:10008   */\n      tag_411\n        /* \"#utility.yul\":10005:10007   */\n      0x18\n        /* \"#utility.yul\":10000:10003   */\n      dup4\n        /* \"#utility.yul\":9941:10008   */\n      tag_253\n      jump\t// in\n    tag_411:\n        /* \"#utility.yul\":9934:10008   */\n      swap2\n      pop\n        /* \"#utility.yul\":10017:10110   */\n      tag_412\n        /* \"#utility.yul\":10106:10109   */\n      dup3\n        /* \"#utility.yul\":10017:10110   */\n      tag_260\n      jump\t// in\n    tag_412:\n        /* \"#utility.yul\":10135:10137   */\n      0x20\n        /* \"#utility.yul\":10130:10133   */\n      dup3\n        /* \"#utility.yul\":10126:10138   */\n      add\n        /* \"#utility.yul\":10119:10138   */\n      swap1\n      pop\n        /* \"#utility.yul\":9778:10144   */\n      swap2\n      swap1\n      pop\n      jump\t// out\n        /* \"#utility.yul\":10150:10569   */\n    tag_88:\n        /* \"#utility.yul\":10316:10320   */\n      0x00\n        /* \"#utility.yul\":10354:10356   */\n      0x20\n        /* \"#utility.yul\":10343:10352   */\n      dup3\n        /* \"#utility.yul\":10339:10357   */\n      add\n        /* \"#utility.yul\":10331:10357   */\n      swap1\n      pop\n        /* \"#utility.yul\":10403:10412   */\n      dup2\n        /* \"#utility.yul\":10397:10401   */\n      dup2\n        /* \"#utility.yul\":10393:10413   */\n      sub\n        /* \"#utility.yul\":10389:10390   */\n      0x00\n        /* \"#utility.yul\":10378:10387   */\n      dup4\n        /* \"#utility.yul\":10374:10391   */\n      add\n        /* \"#utility.yul\":10367:10414   */\n      mstore\n        /* \"#utility.yul\":10431:10562   */\n      tag_414\n        /* \"#utility.yul\":10557:10561   */\n      dup2\n        /* \"#utility.yul\":10431:10562   */\n      tag_261\n      jump\t// in\n    tag_414:\n        /* \"#utility.yul\":10423:10562   */\n      swap1\n      pop\n        /* \"#utility.yul\":10150:10569   */\n      swap2\n      swap1\n      pop\n      jump\t// out\n        /* \"#utility.yul\":10575:10798   */\n    tag_262:\n        /* \"#utility.yul\":10715:10749   */\n      0x426f746820706c61796572732061726520616c72656164792072656769737465\n        /* \"#utility.yul\":10711:10712   */\n      0x00\n        /* \"#utility.yul\":10703:10709   */\n      dup3\n        /* \"#utility.yul\":10699:10713   */\n      add\n        /* \"#utility.yul\":10692:10750   */\n      mstore\n        /* \"#utility.yul\":10784:10790   */\n      0x7265642e00000000000000000000000000000000000000000000000000000000\n        /* \"#utility.yul\":10779:10781   */\n      0x20\n        /* \"#utility.yul\":10771:10777   */\n      dup3\n        /* \"#utility.yul\":10767:10782   */\n      add\n        /* \"#utility.yul\":10760:10791   */\n      mstore\n        /* \"#utility.yul\":10575:10798   */\n      pop\n      jump\t// out\n        /* \"#utility.yul\":10804:11170   */\n    tag_263:\n        /* \"#utility.yul\":10946:10949   */\n      0x00\n        /* \"#utility.yul\":10967:11034   */\n      tag_417\n        /* \"#utility.yul\":11031:11033   */\n      0x24\n        /* \"#utility.yul\":11026:11029   */\n      dup4\n        /* \"#utility.yul\":10967:11034   */\n      tag_253\n      jump\t// in\n    tag_417:\n        /* \"#utility.yul\":10960:11034   */\n      swap2\n      pop\n        /* \"#utility.yul\":11043:11136   */\n      tag_418\n        /* \"#utility.yul\":11132:11135   */\n      dup3\n        /* \"#utility.yul\":11043:11136   */\n      tag_262\n      jump\t// in\n    tag_418:\n        /* \"#utility.yul\":11161:11163   */\n      0x40\n        /* \"#utility.yul\":11156:11159   */\n      dup3\n        /* \"#utility.yul\":11152:11164   */\n      add\n        /* \"#utility.yul\":11145:11164   */\n      swap1\n      pop\n        /* \"#utility.yul\":10804:11170   */\n      swap2\n      swap1\n      pop\n      jump\t// out\n        /* \"#utility.yul\":11176:11595   */\n    tag_94:\n        /* \"#utility.yul\":11342:11346   */\n      0x00\n        /* \"#utility.yul\":11380:11382   */\n      0x20\n        /* \"#utility.yul\":11369:11378   */\n      dup3\n        /* \"#utility.yul\":11365:11383   */\n      add\n        /* \"#utility.yul\":11357:11383   */\n      swap1\n      pop\n        /* \"#utility.yul\":11429:11438   */\n      dup2\n        /* \"#utility.yul\":11423:11427   */\n      dup2\n        /* \"#utility.yul\":11419:11439   */\n      sub\n        /* \"#utility.yul\":11415:11416   */\n      0x00\n        /* \"#utility.yul\":11404:11413   */\n      dup4\n        /* \"#utility.yul\":11400:11417   */\n      add\n        /* \"#utility.yul\":11393:11440   */\n      mstore\n        /* \"#utility.yul\":11457:11588   */\n      tag_420\n        /* \"#utility.yul\":11583:11587   */\n      dup2\n        /* \"#utility.yul\":11457:11588   */\n      tag_263\n      jump\t// in\n    tag_420:\n        /* \"#utility.yul\":11449:11588   */\n      swap1\n      pop\n        /* \"#utility.yul\":11176:11595   */\n      swap2\n      swap1\n      pop\n      jump\t// out\n        /* \"#utility.yul\":11601:11823   */\n    tag_264:\n        /* \"#utility.yul\":11741:11775   */\n      0x596f7520617265206e6f742072656769737465726564206173206120706c6179\n        /* \"#utility.yul\":11737:11738   */\n      0x00\n        /* \"#utility.yul\":11729:11735   */\n      dup3\n        /* \"#utility.yul\":11725:11739   */\n      add\n        /* \"#utility.yul\":11718:11776   */\n      mstore\n        /* \"#utility.yul\":11810:11815   */\n      0x65722e0000000000000000000000000000000000000000000000000000000000\n        /* \"#utility.yul\":11805:11807   */\n      0x20\n        /* \"#utility.yul\":11797:11803   */\n      dup3\n        /* \"#utility.yul\":11793:11808   */\n      add\n        /* \"#utility.yul\":11786:11816   */\n      mstore\n        /* \"#utility.yul\":11601:11823   */\n      pop\n      jump\t// out\n        /* \"#utility.yul\":11829:12195   */\n    tag_265:\n        /* \"#utility.yul\":11971:11974   */\n      0x00\n        /* \"#utility.yul\":11992:12059   */\n      tag_423\n        /* \"#utility.yul\":12056:12058   */\n      0x23\n        /* \"#utility.yul\":12051:12054   */\n      dup4\n        /* \"#utility.yul\":11992:12059   */\n      tag_253\n      jump\t// in\n    tag_423:\n        /* \"#utility.yul\":11985:12059   */\n      swap2\n      pop\n        /* \"#utility.yul\":12068:12161   */\n      tag_424\n        /* \"#utility.yul\":12157:12160   */\n      dup3\n        /* \"#utility.yul\":12068:12161   */\n      tag_264\n      jump\t// in\n    tag_424:\n        /* \"#utility.yul\":12186:12188   */\n      0x40\n        /* \"#utility.yul\":12181:12184   */\n      dup3\n        /* \"#utility.yul\":12177:12189   */\n      add\n        /* \"#utility.yul\":12170:12189   */\n      swap1\n      pop\n        /* \"#utility.yul\":11829:12195   */\n      swap2\n      swap1\n      pop\n      jump\t// out\n        /* \"#utility.yul\":12201:12620   */\n    tag_101:\n        /* \"#utility.yul\":12367:12371   */\n      0x00\n        /* \"#utility.yul\":12405:12407   */\n      0x20\n        /* \"#utility.yul\":12394:12403   */\n      dup3\n        /* \"#utility.yul\":12390:12408   */\n      add\n        /* \"#utility.yul\":12382:12408   */\n      swap1\n      pop\n        /* \"#utility.yul\":12454:12463   */\n      dup2\n        /* \"#utility.yul\":12448:12452   */\n      dup2\n        /* \"#utility.yul\":12444:12464   */\n      sub\n        /* \"#utility.yul\":12440:12441   */\n      0x00\n        /* \"#utility.yul\":12429:12438   */\n      dup4\n        /* \"#utility.yul\":12425:12442   */\n      add\n        /* \"#utility.yul\":12418:12465   */\n      mstore\n        /* \"#utility.yul\":12482:12613   */\n      tag_426\n        /* \"#utility.yul\":12608:12612   */\n      dup2\n        /* \"#utility.yul\":12482:12613   */\n      tag_265\n      jump\t// in\n    tag_426:\n        /* \"#utility.yul\":12474:12613   */\n      swap1\n      pop\n        /* \"#utility.yul\":12201:12620   */\n      swap2\n      swap1\n      pop\n      jump\t// out\n        /* \"#utility.yul\":12626:12774   */\n    tag_266:\n        /* \"#utility.yul\":12728:12739   */\n      0x00\n        /* \"#utility.yul\":12765:12768   */\n      dup2\n        /* \"#utility.yul\":12750:12768   */\n      swap1\n      pop\n        /* \"#utility.yul\":12626:12774   */\n      swap3\n      swap2\n      pop\n      pop\n      jump\t// out\n        /* \"#utility.yul\":12780:13170   */\n    tag_267:\n        /* \"#utility.yul\":12886:12889   */\n      0x00\n        /* \"#utility.yul\":12914:12953   */\n      tag_429\n        /* \"#utility.yul\":12947:12952   */\n      dup3\n        /* \"#utility.yul\":12914:12953   */\n      tag_252\n      jump\t// in\n    tag_429:\n        /* \"#utility.yul\":12969:13058   */\n      tag_430\n        /* \"#utility.yul\":13051:13057   */\n      dup2\n        /* \"#utility.yul\":13046:13049   */\n      dup6\n        /* \"#utility.yul\":12969:13058   */\n      tag_266\n      jump\t// in\n    tag_430:\n        /* \"#utility.yul\":12962:13058   */\n      swap4\n      pop\n        /* \"#utility.yul\":13067:13132   */\n      tag_431\n        /* \"#utility.yul\":13125:13131   */\n      dup2\n        /* \"#utility.yul\":13120:13123   */\n      dup6\n        /* \"#utility.yul\":13113:13117   */\n      0x20\n        /* \"#utility.yul\":13106:13111   */\n      dup7\n        /* \"#utility.yul\":13102:13118   */\n      add\n        /* \"#utility.yul\":13067:13132   */\n      tag_254\n      jump\t// in\n    tag_431:\n        /* \"#utility.yul\":13157:13163   */\n      dup1\n        /* \"#utility.yul\":13152:13155   */\n      dup5\n        /* \"#utility.yul\":13148:13164   */\n      add\n        /* \"#utility.yul\":13141:13164   */\n      swap2\n      pop\n        /* \"#utility.yul\":12890:13170   */\n      pop\n        /* \"#utility.yul\":12780:13170   */\n      swap3\n      swap2\n      pop\n      pop\n      jump\t// out\n        /* \"#utility.yul\":13176:13451   */\n    tag_107:\n        /* \"#utility.yul\":13308:13311   */\n      0x00\n        /* \"#utility.yul\":13330:13425   */\n      tag_433\n        /* \"#utility.yul\":13421:13424   */\n      dup3\n        /* \"#utility.yul\":13412:13418   */\n      dup5\n        /* \"#utility.yul\":13330:13425   */\n      tag_267\n      jump\t// in\n    tag_433:\n        /* \"#utility.yul\":13323:13425   */\n      swap2\n      pop\n        /* \"#utility.yul\":13442:13445   */\n      dup2\n        /* \"#utility.yul\":13435:13445   */\n      swap1\n      pop\n        /* \"#utility.yul\":13176:13451   */\n      swap3\n      swap2\n      pop\n      pop\n      jump\t// out\n        /* \"#utility.yul\":13457:13626   */\n    tag_268:\n        /* \"#utility.yul\":13597:13618   */\n      0x496e76616c696420636c656172206d6f76652e00000000000000000000000000\n        /* \"#utility.yul\":13593:13594   */\n      0x00\n        /* \"#utility.yul\":13585:13591   */\n      dup3\n        /* \"#utility.yul\":13581:13595   */\n      add\n        /* \"#utility.yul\":13574:13619   */\n      mstore\n        /* \"#utility.yul\":13457:13626   */\n      pop\n      jump\t// out\n        /* \"#utility.yul\":13632:13998   */\n    tag_269:\n        /* \"#utility.yul\":13774:13777   */\n      0x00\n        /* \"#utility.yul\":13795:13862   */\n      tag_436\n        /* \"#utility.yul\":13859:13861   */\n      0x13\n        /* \"#utility.yul\":13854:13857   */\n      dup4\n        /* \"#utility.yul\":13795:13862   */\n      tag_253\n      jump\t// in\n    tag_436:\n        /* \"#utility.yul\":13788:13862   */\n      swap2\n      pop\n        /* \"#utility.yul\":13871:13964   */\n      tag_437\n        /* \"#utility.yul\":13960:13963   */\n      dup3\n        /* \"#utility.yul\":13871:13964   */\n      tag_268\n      jump\t// in\n    tag_437:\n        /* \"#utility.yul\":13989:13991   */\n      0x20\n        /* \"#utility.yul\":13984:13987   */\n      dup3\n        /* \"#utility.yul\":13980:13992   */\n      add\n        /* \"#utility.yul\":13973:13992   */\n      swap1\n      pop\n        /* \"#utility.yul\":13632:13998   */\n      swap2\n      swap1\n      pop\n      jump\t// out\n        /* \"#utility.yul\":14004:14423   */\n    tag_110:\n        /* \"#utility.yul\":14170:14174   */\n      0x00\n        /* \"#utility.yul\":14208:14210   */\n      0x20\n        /* \"#utility.yul\":14197:14206   */\n      dup3\n        /* \"#utility.yul\":14193:14211   */\n      add\n        /* \"#utility.yul\":14185:14211   */\n      swap1\n      pop\n        /* \"#utility.yul\":14257:14266   */\n      dup2\n        /* \"#utility.yul\":14251:14255   */\n      dup2\n        /* \"#utility.yul\":14247:14267   */\n      sub\n        /* \"#utility.yul\":14243:14244   */\n      0x00\n        /* \"#utility.yul\":14232:14241   */\n      dup4\n        /* \"#utility.yul\":14228:14245   */\n      add\n        /* \"#utility.yul\":14221:14268   */\n      mstore\n        /* \"#utility.yul\":14285:14416   */\n      tag_439\n        /* \"#utility.yul\":14411:14415   */\n      dup2\n        /* \"#utility.yul\":14285:14416   */\n      tag_269\n      jump\t// in\n    tag_439:\n        /* \"#utility.yul\":14277:14416   */\n      swap1\n      pop\n        /* \"#utility.yul\":14004:14423   */\n      swap2\n      swap1\n      pop\n      jump\t// out\n        /* \"#utility.yul\":14429:14650   */\n    tag_270:\n        /* \"#utility.yul\":14569:14603   */\n      0x596f7527766520616c72656164792072657665616c656420796f7572206d6f76\n        /* \"#utility.yul\":14565:14566   */\n      0x00\n        /* \"#utility.yul\":14557:14563   */\n      dup3\n        /* \"#utility.yul\":14553:14567   */\n      add\n        /* \"#utility.yul\":14546:14604   */\n      mstore\n        /* \"#utility.yul\":14638:14642   */\n      0x652e000000000000000000000000000000000000000000000000000000000000\n        /* \"#utility.yul\":14633:14635   */\n      0x20\n        /* \"#utility.yul\":14625:14631   */\n      dup3\n        /* \"#utility.yul\":14621:14636   */\n      add\n        /* \"#utility.yul\":14614:14643   */\n      mstore\n        /* \"#utility.yul\":14429:14650   */\n      pop\n      jump\t// out\n        /* \"#utility.yul\":14656:15022   */\n    tag_271:\n        /* \"#utility.yul\":14798:14801   */\n      0x00\n        /* \"#utility.yul\":14819:14886   */\n      tag_442\n        /* \"#utility.yul\":14883:14885   */\n      0x22\n        /* \"#utility.yul\":14878:14881   */\n      dup4\n        /* \"#utility.yul\":14819:14886   */\n      tag_253\n      jump\t// in\n    tag_442:\n        /* \"#utility.yul\":14812:14886   */\n      swap2\n      pop\n        /* \"#utility.yul\":14895:14988   */\n      tag_443\n        /* \"#utility.yul\":14984:14987   */\n      dup3\n        /* \"#utility.yul\":14895:14988   */\n      tag_270\n      jump\t// in\n    tag_443:\n        /* \"#utility.yul\":15013:15015   */\n      0x40\n        /* \"#utility.yul\":15008:15011   */\n      dup3\n        /* \"#utility.yul\":15004:15016   */\n      add\n        /* \"#utility.yul\":14997:15016   */\n      swap1\n      pop\n        /* \"#utility.yul\":14656:15022   */\n      swap2\n      swap1\n      pop\n      jump\t// out\n        /* \"#utility.yul\":15028:15447   */\n    tag_113:\n        /* \"#utility.yul\":15194:15198   */\n      0x00\n        /* \"#utility.yul\":15232:15234   */\n      0x20\n        /* \"#utility.yul\":15221:15230   */\n      dup3\n        /* \"#utility.yul\":15217:15235   */\n      add\n        /* \"#utility.yul\":15209:15235   */\n      swap1\n      pop\n        /* \"#utility.yul\":15281:15290   */\n      dup2\n        /* \"#utility.yul\":15275:15279   */\n      dup2\n        /* \"#utility.yul\":15271:15291   */\n      sub\n        /* \"#utility.yul\":15267:15268   */\n      0x00\n        /* \"#utility.yul\":15256:15265   */\n      dup4\n        /* \"#utility.yul\":15252:15269   */\n      add\n        /* \"#utility.yul\":15245:15292   */\n      mstore\n        /* \"#utility.yul\":15309:15440   */\n      tag_445\n        /* \"#utility.yul\":15435:15439   */\n      dup2\n        /* \"#utility.yul\":15309:15440   */\n      tag_271\n      jump\t// in\n    tag_445:\n        /* \"#utility.yul\":15301:15440   */\n      swap1\n      pop\n        /* \"#utility.yul\":15028:15447   */\n      swap2\n      swap1\n      pop\n      jump\t// out\n        /* \"#utility.yul\":15453:15633   */\n    tag_272:\n        /* \"#utility.yul\":15501:15578   */\n      0x4e487b7100000000000000000000000000000000000000000000000000000000\n        /* \"#utility.yul\":15498:15499   */\n      0x00\n        /* \"#utility.yul\":15491:15579   */\n      mstore\n        /* \"#utility.yul\":15598:15602   */\n      0x22\n        /* \"#utility.yul\":15595:15596   */\n      0x04\n        /* \"#utility.yul\":15588:15603   */\n      mstore\n        /* \"#utility.yul\":15622:15626   */\n      0x24\n        /* \"#utility.yul\":15619:15620   */\n      0x00\n        /* \"#utility.yul\":15612:15627   */\n      revert\n        /* \"#utility.yul\":15639:15959   */\n    tag_131:\n        /* \"#utility.yul\":15683:15689   */\n      0x00\n        /* \"#utility.yul\":15720:15721   */\n      0x02\n        /* \"#utility.yul\":15714:15718   */\n      dup3\n        /* \"#utility.yul\":15710:15722   */\n      div\n        /* \"#utility.yul\":15700:15722   */\n      swap1\n      pop\n        /* \"#utility.yul\":15767:15768   */\n      0x01\n        /* \"#utility.yul\":15761:15765   */\n      dup3\n        /* \"#utility.yul\":15757:15769   */\n      and\n        /* \"#utility.yul\":15788:15806   */\n      dup1\n        /* \"#utility.yul\":15778:15859   */\n      tag_448\n      jumpi\n        /* \"#utility.yul\":15844:15848   */\n      0x7f\n        /* \"#utility.yul\":15836:15842   */\n      dup3\n        /* \"#utility.yul\":15832:15849   */\n      and\n        /* \"#utility.yul\":15822:15849   */\n      swap2\n      pop\n        /* \"#utility.yul\":15778:15859   */\n    tag_448:\n        /* \"#utility.yul\":15906:15908   */\n      0x20\n        /* \"#utility.yul\":15898:15904   */\n      dup3\n        /* \"#utility.yul\":15895:15909   */\n      lt\n        /* \"#utility.yul\":15875:15893   */\n      dup2\n        /* \"#utility.yul\":15872:15910   */\n      sub\n        /* \"#utility.yul\":15869:15953   */\n      tag_449\n      jumpi\n        /* \"#utility.yul\":15925:15943   */\n      tag_450\n      tag_272\n      jump\t// in\n    tag_450:\n        /* \"#utility.yul\":15869:15953   */\n    tag_449:\n        /* \"#utility.yul\":15690:15959   */\n      pop\n        /* \"#utility.yul\":15639:15959   */\n      swap2\n      swap1\n      pop\n      jump\t// out\n        /* \"#utility.yul\":15965:16106   */\n    tag_273:\n        /* \"#utility.yul\":16014:16018   */\n      0x00\n        /* \"#utility.yul\":16037:16040   */\n      dup2\n        /* \"#utility.yul\":16029:16040   */\n      swap1\n      pop\n        /* \"#utility.yul\":16060:16063   */\n      dup2\n        /* \"#utility.yul\":16057:16058   */\n      0x00\n        /* \"#utility.yul\":16050:16064   */\n      mstore\n        /* \"#utility.yul\":16094:16098   */\n      0x20\n        /* \"#utility.yul\":16091:16092   */\n      0x00\n        /* \"#utility.yul\":16081:16099   */\n      keccak256\n        /* \"#utility.yul\":16073:16099   */\n      swap1\n      pop\n        /* \"#utility.yul\":15965:16106   */\n      swap2\n      swap1\n      pop\n      jump\t// out\n        /* \"#utility.yul\":16112:16205   */\n    tag_274:\n        /* \"#utility.yul\":16149:16155   */\n      0x00\n        /* \"#utility.yul\":16196:16198   */\n      0x20\n        /* \"#utility.yul\":16191:16193   */\n      0x1f\n        /* \"#utility.yul\":16184:16189   */\n      dup4\n        /* \"#utility.yul\":16180:16194   */\n      add\n        /* \"#utility.yul\":16176:16199   */\n      div\n        /* \"#utility.yul\":16166:16199   */\n      swap1\n      pop\n        /* \"#utility.yul\":16112:16205   */\n      swap2\n      swap1\n      pop\n      jump\t// out\n        /* \"#utility.yul\":16211:16318   */\n    tag_275:\n        /* \"#utility.yul\":16255:16263   */\n      0x00\n        /* \"#utility.yul\":16305:16310   */\n      dup3\n        /* \"#utility.yul\":16299:16303   */\n      dup3\n        /* \"#utility.yul\":16295:16311   */\n      shl\n        /* \"#utility.yul\":16274:16311   */\n      swap1\n      pop\n        /* \"#utility.yul\":16211:16318   */\n      swap3\n      swap2\n      pop\n      pop\n      jump\t// out\n        /* \"#utility.yul\":16324:16717   */\n    tag_276:\n        /* \"#utility.yul\":16393:16399   */\n      0x00\n        /* \"#utility.yul\":16443:16444   */\n      0x08\n        /* \"#utility.yul\":16431:16441   */\n      dup4\n        /* \"#utility.yul\":16427:16445   */\n      mul\n        /* \"#utility.yul\":16466:16563   */\n      tag_455\n        /* \"#utility.yul\":16496:16562   */\n      0xffffffffffffffffffffffffffffffffffffffffffffffffffffffffffffffff\n        /* \"#utility.yul\":16485:16494   */\n      dup3\n        /* \"#utility.yul\":16466:16563   */\n      tag_275\n      jump\t// in\n    tag_455:\n        /* \"#utility.yul\":16584:16623   */\n      tag_456\n        /* \"#utility.yul\":16614:16622   */\n      dup7\n        /* \"#utility.yul\":16603:16612   */\n      dup4\n        /* \"#utility.yul\":16584:16623   */\n      tag_275\n      jump\t// in\n    tag_456:\n        /* \"#utility.yul\":16572:16623   */\n      swap6\n      pop\n        /* \"#utility.yul\":16656:16660   */\n      dup1\n        /* \"#utility.yul\":16652:16661   */\n      not\n        /* \"#utility.yul\":16645:16650   */\n      dup5\n        /* \"#utility.yul\":16641:16662   */\n      and\n        /* \"#utility.yul\":16632:16662   */\n      swap4\n      pop\n        /* \"#utility.yul\":16705:16709   */\n      dup1\n        /* \"#utility.yul\":16695:16703   */\n      dup7\n        /* \"#utility.yul\":16691:16710   */\n      and\n        /* \"#utility.yul\":16684:16689   */\n      dup5\n        /* \"#utility.yul\":16681:16711   */\n      or\n        /* \"#utility.yul\":16671:16711   */\n      swap3\n      pop\n        /* \"#utility.yul\":16400:16717   */\n      pop\n      pop\n        /* \"#utility.yul\":16324:16717   */\n      swap4\n      swap3\n      pop\n      pop\n      pop\n      jump\t// out\n        /* \"#utility.yul\":16723:16783   */\n    tag_277:\n        /* \"#utility.yul\":16751:16754   */\n      0x00\n        /* \"#utility.yul\":16772:16777   */\n      dup2\n        /* \"#utility.yul\":16765:16777   */\n      swap1\n      pop\n        /* \"#utility.yul\":16723:16783   */\n      swap2\n      swap1\n      pop\n      jump\t// out\n        /* \"#utility.yul\":16789:16931   */\n    tag_278:\n        /* \"#utility.yul\":16839:16848   */\n      0x00\n        /* \"#utility.yul\":16872:16925   */\n      tag_459\n        /* \"#utility.yul\":16890:16924   */\n      tag_460\n        /* \"#utility.yul\":16899:16923   */\n      tag_461\n        /* \"#utility.yul\":16917:16922   */\n      dup5\n        /* \"#utility.yul\":16899:16923   */\n      tag_237\n      jump\t// in\n    tag_461:\n        /* \"#utility.yul\":16890:16924   */\n      tag_277\n      jump\t// in\n    tag_460:\n        /* \"#utility.yul\":16872:16925   */\n      tag_237\n      jump\t// in\n    tag_459:\n        /* \"#utility.yul\":16859:16925   */\n      swap1\n      pop\n        /* \"#utility.yul\":16789:16931   */\n      swap2\n      swap1\n      pop\n      jump\t// out\n        /* \"#utility.yul\":16937:17012   */\n    tag_279:\n        /* \"#utility.yul\":16980:16983   */\n      0x00\n        /* \"#utility.yul\":17001:17006   */\n      dup2\n        /* \"#utility.yul\":16994:17006   */\n      swap1\n      pop\n        /* \"#utility.yul\":16937:17012   */\n      swap2\n      swap1\n      pop\n      jump\t// out\n        /* \"#utility.yul\":17018:17287   */\n    tag_280:\n        /* \"#utility.yul\":17128:17167   */\n      tag_464\n        /* \"#utility.yul\":17159:17166   */\n      dup4\n        /* \"#utility.yul\":17128:17167   */\n      tag_278\n      jump\t// in\n    tag_464:\n        /* \"#utility.yul\":17189:17280   */\n      tag_465\n        /* \"#utility.yul\":17238:17279   */\n      tag_466\n        /* \"#utility.yul\":17262:17278   */\n      dup3\n        /* \"#utility.yul\":17238:17279   */\n      tag_279\n      jump\t// in\n    tag_466:\n        /* \"#utility.yul\":17230:17236   */\n      dup5\n        /* \"#utility.yul\":17223:17227   */\n      dup5\n        /* \"#utility.yul\":17217:17228   */\n      sload\n        /* \"#utility.yul\":17189:17280   */\n      tag_276\n      jump\t// in\n    tag_465:\n        /* \"#utility.yul\":17183:17187   */\n      dup3\n        /* \"#utility.yul\":17176:17281   */\n      sstore\n        /* \"#utility.yul\":17094:17287   */\n      pop\n        /* \"#utility.yul\":17018:17287   */\n      pop\n      pop\n      pop\n      jump\t// out\n        /* \"#utility.yul\":17293:17366   */\n    tag_281:\n        /* \"#utility.yul\":17338:17341   */\n      0x00\n        /* \"#utility.yul\":17293:17366   */\n      swap1\n      jump\t// out\n        /* \"#utility.yul\":17372:17561   */\n    tag_282:\n        /* \"#utility.yul\":17449:17481   */\n      tag_469\n      tag_281\n      jump\t// in\n    tag_469:\n        /* \"#utility.yul\":17490:17555   */\n      tag_470\n        /* \"#utility.yul\":17548:17554   */\n      dup2\n        /* \"#utility.yul\":17540:17546   */\n      dup5\n        /* \"#utility.yul\":17534:17538   */\n      dup5\n        /* \"#utility.yul\":17490:17555   */\n      tag_280\n      jump\t// in\n    tag_470:\n        /* \"#utility.yul\":17425:17561   */\n      pop\n        /* \"#utility.yul\":17372:17561   */\n      pop\n      pop\n      jump\t// out\n        /* \"#utility.yul\":17567:17753   */\n    tag_283:\n        /* \"#utility.yul\":17627:17747   */\n    tag_472:\n        /* \"#utility.yul\":17644:17647   */\n      dup2\n        /* \"#utility.yul\":17637:17642   */\n      dup2\n        /* \"#utility.yul\":17634:17648   */\n      lt\n        /* \"#utility.yul\":17627:17747   */\n      iszero\n      tag_474\n      jumpi\n        /* \"#utility.yul\":17698:17737   */\n      tag_475\n        /* \"#utility.yul\":17735:17736   */\n      0x00\n        /* \"#utility.yul\":17728:17733   */\n      dup3\n        /* \"#utility.yul\":17698:17737   */\n      tag_282\n      jump\t// in\n    tag_475:\n        /* \"#utility.yul\":17671:17672   */\n      0x01\n        /* \"#utility.yul\":17664:17669   */\n      dup2\n        /* \"#utility.yul\":17660:17673   */\n      add\n        /* \"#utility.yul\":17651:17673   */\n      swap1\n      pop\n        /* \"#utility.yul\":17627:17747   */\n      jump(tag_472)\n    tag_474:\n        /* \"#utility.yul\":17567:17753   */\n      pop\n      pop\n      jump\t// out\n        /* \"#utility.yul\":17759:18302   */\n    tag_284:\n        /* \"#utility.yul\":17860:17862   */\n      0x1f\n        /* \"#utility.yul\":17855:17858   */\n      dup3\n        /* \"#utility.yul\":17852:17863   */\n      gt\n        /* \"#utility.yul\":17849:18295   */\n      iszero\n      tag_477\n      jumpi\n        /* \"#utility.yul\":17894:17932   */\n      tag_478\n        /* \"#utility.yul\":17926:17931   */\n      dup2\n        /* \"#utility.yul\":17894:17932   */\n      tag_273\n      jump\t// in\n    tag_478:\n        /* \"#utility.yul\":17978:18007   */\n      tag_479\n        /* \"#utility.yul\":17996:18006   */\n      dup5\n        /* \"#utility.yul\":17978:18007   */\n      tag_274\n      jump\t// in\n    tag_479:\n        /* \"#utility.yul\":17968:17976   */\n      dup2\n        /* \"#utility.yul\":17964:18008   */\n      add\n        /* \"#utility.yul\":18161:18163   */\n      0x20\n        /* \"#utility.yul\":18149:18159   */\n      dup6\n        /* \"#utility.yul\":18146:18164   */\n      lt\n        /* \"#utility.yul\":18143:18192   */\n      iszero\n      tag_480\n      jumpi\n        /* \"#utility.yul\":18182:18190   */\n      dup2\n        /* \"#utility.yul\":18167:18190   */\n      swap1\n      pop\n        /* \"#utility.yul\":18143:18192   */\n    tag_480:\n        /* \"#utility.yul\":18205:18285   */\n      tag_481\n        /* \"#utility.yul\":18261:18283   */\n      tag_482\n        /* \"#utility.yul\":18279:18282   */\n      dup6\n        /* \"#utility.yul\":18261:18283   */\n      tag_274\n      jump\t// in\n    tag_482:\n        /* \"#utility.yul\":18251:18259   */\n      dup4\n        /* \"#utility.yul\":18247:18284   */\n      add\n        /* \"#utility.yul\":18234:18245   */\n      dup3\n        /* \"#utility.yul\":18205:18285   */\n      tag_283\n      jump\t// in\n    tag_481:\n        /* \"#utility.yul\":17864:18295   */\n      pop\n      pop\n        /* \"#utility.yul\":17849:18295   */\n    tag_477:\n        /* \"#utility.yul\":17759:18302   */\n      pop\n      pop\n      pop\n      jump\t// out\n        /* \"#utility.yul\":18308:18425   */\n    tag_285:\n        /* \"#utility.yul\":18362:18370   */\n      0x00\n        /* \"#utility.yul\":18412:18417   */\n      dup3\n        /* \"#utility.yul\":18406:18410   */\n      dup3\n        /* \"#utility.yul\":18402:18418   */\n      shr\n        /* \"#utility.yul\":18381:18418   */\n      swap1\n      pop\n        /* \"#utility.yul\":18308:18425   */\n      swap3\n      swap2\n      pop\n      pop\n      jump\t// out\n        /* \"#utility.yul\":18431:18600   */\n    tag_286:\n        /* \"#utility.yul\":18475:18481   */\n      0x00\n        /* \"#utility.yul\":18508:18559   */\n      tag_485\n        /* \"#utility.yul\":18556:18557   */\n      0x00\n        /* \"#utility.yul\":18552:18558   */\n      not\n        /* \"#utility.yul\":18544:18549   */\n      dup5\n        /* \"#utility.yul\":18541:18542   */\n      0x08\n        /* \"#utility.yul\":18537:18550   */\n      mul\n        /* \"#utility.yul\":18508:18559   */\n      tag_285\n      jump\t// in\n    tag_485:\n        /* \"#utility.yul\":18504:18560   */\n      not\n        /* \"#utility.yul\":18589:18593   */\n      dup1\n        /* \"#utility.yul\":18583:18587   */\n      dup4\n        /* \"#utility.yul\":18579:18594   */\n      and\n        /* \"#utility.yul\":18569:18594   */\n      swap2\n      pop\n        /* \"#utility.yul\":18482:18600   */\n      pop\n        /* \"#utility.yul\":18431:18600   */\n      swap3\n      swap2\n      pop\n      pop\n      jump\t// out\n        /* \"#utility.yul\":18605:18900   */\n    tag_287:\n        /* \"#utility.yul\":18681:18685   */\n      0x00\n        /* \"#utility.yul\":18827:18856   */\n      tag_487\n        /* \"#utility.yul\":18852:18855   */\n      dup4\n        /* \"#utility.yul\":18846:18850   */\n      dup4\n        /* \"#utility.yul\":18827:18856   */\n      tag_286\n      jump\t// in\n    tag_487:\n        /* \"#utility.yul\":18819:18856   */\n      swap2\n      pop\n        /* \"#utility.yul\":18889:18892   */\n      dup3\n        /* \"#utility.yul\":18886:18887   */\n      0x02\n        /* \"#utility.yul\":18882:18893   */\n      mul\n        /* \"#utility.yul\":18876:18880   */\n      dup3\n        /* \"#utility.yul\":18873:18894   */\n      or\n        /* \"#utility.yul\":18865:18894   */\n      swap1\n      pop\n        /* \"#utility.yul\":18605:18900   */\n      swap3\n      swap2\n      pop\n      pop\n      jump\t// out\n        /* \"#utility.yul\":18905:20300   */\n    tag_115:\n        /* \"#utility.yul\":19022:19059   */\n      tag_489\n        /* \"#utility.yul\":19055:19058   */\n      dup3\n        /* \"#utility.yul\":19022:19059   */\n      tag_252\n      jump\t// in\n    tag_489:\n        /* \"#utility.yul\":19124:19142   */\n      0xffffffffffffffff\n        /* \"#utility.yul\":19116:19122   */\n      dup2\n        /* \"#utility.yul\":19113:19143   */\n      gt\n        /* \"#utility.yul\":19110:19166   */\n      iszero\n      tag_490\n      jumpi\n        /* \"#utility.yul\":19146:19164   */\n      tag_491\n      tag_230\n      jump\t// in\n    tag_491:\n        /* \"#utility.yul\":19110:19166   */\n    tag_490:\n        /* \"#utility.yul\":19190:19228   */\n      tag_492\n        /* \"#utility.yul\":19222:19226   */\n      dup3\n        /* \"#utility.yul\":19216:19227   */\n      sload\n        /* \"#utility.yul\":19190:19228   */\n      tag_131\n      jump\t// in\n    tag_492:\n        /* \"#utility.yul\":19275:19342   */\n      tag_493\n        /* \"#utility.yul\":19335:19341   */\n      dup3\n        /* \"#utility.yul\":19327:19333   */\n      dup3\n        /* \"#utility.yul\":19321:19325   */\n      dup6\n        /* \"#utility.yul\":19275:19342   */\n      tag_284\n      jump\t// in\n    tag_493:\n        /* \"#utility.yul\":19369:19370   */\n      0x00\n        /* \"#utility.yul\":19393:19397   */\n      0x20\n        /* \"#utility.yul\":19380:19397   */\n      swap1\n      pop\n        /* \"#utility.yul\":19425:19427   */\n      0x1f\n        /* \"#utility.yul\":19417:19423   */\n      dup4\n        /* \"#utility.yul\":19414:19428   */\n      gt\n        /* \"#utility.yul\":19442:19443   */\n      0x01\n        /* \"#utility.yul\":19437:20055   */\n      dup2\n      eq\n      tag_495\n      jumpi\n        /* \"#utility.yul\":20099:20100   */\n      0x00\n        /* \"#utility.yul\":20116:20122   */\n      dup5\n        /* \"#utility.yul\":20113:20190   */\n      iszero\n      tag_496\n      jumpi\n        /* \"#utility.yul\":20165:20174   */\n      dup3\n        /* \"#utility.yul\":20160:20163   */\n      dup8\n        /* \"#utility.yul\":20156:20175   */\n      add\n        /* \"#utility.yul\":20150:20176   */\n      mload\n        /* \"#utility.yul\":20141:20176   */\n      swap1\n      pop\n        /* \"#utility.yul\":20113:20190   */\n    tag_496:\n        /* \"#utility.yul\":20216:20283   */\n      tag_497\n        /* \"#utility.yul\":20276:20282   */\n      dup6\n        /* \"#utility.yul\":20269:20274   */\n      dup3\n        /* \"#utility.yul\":20216:20283   */\n      tag_287\n      jump\t// in\n    tag_497:\n        /* \"#utility.yul\":20210:20214   */\n      dup7\n        /* \"#utility.yul\":20203:20284   */\n      sstore\n        /* \"#utility.yul\":20072:20294   */\n      pop\n        /* \"#utility.yul\":19407:20294   */\n      jump(tag_494)\n        /* \"#utility.yul\":19437:20055   */\n    tag_495:\n        /* \"#utility.yul\":19489:19493   */\n      0x1f\n        /* \"#utility.yul\":19485:19494   */\n      not\n        /* \"#utility.yul\":19477:19483   */\n      dup5\n        /* \"#utility.yul\":19473:19495   */\n      and\n        /* \"#utility.yul\":19523:19560   */\n      tag_498\n        /* \"#utility.yul\":19555:19559   */\n      dup7\n        /* \"#utility.yul\":19523:19560   */\n      tag_273\n      jump\t// in\n    tag_498:\n        /* \"#utility.yul\":19582:19583   */\n      0x00\n        /* \"#utility.yul\":19596:19804   */\n    tag_499:\n        /* \"#utility.yul\":19610:19617   */\n      dup3\n        /* \"#utility.yul\":19607:19608   */\n      dup2\n        /* \"#utility.yul\":19604:19618   */\n      lt\n        /* \"#utility.yul\":19596:19804   */\n      iszero\n      tag_501\n      jumpi\n        /* \"#utility.yul\":19689:19698   */\n      dup5\n        /* \"#utility.yul\":19684:19687   */\n      dup10\n        /* \"#utility.yul\":19680:19699   */\n      add\n        /* \"#utility.yul\":19674:19700   */\n      mload\n        /* \"#utility.yul\":19666:19672   */\n      dup3\n        /* \"#utility.yul\":19659:19701   */\n      sstore\n        /* \"#utility.yul\":19740:19741   */\n      0x01\n        /* \"#utility.yul\":19732:19738   */\n      dup3\n        /* \"#utility.yul\":19728:19742   */\n      add\n        /* \"#utility.yul\":19718:19742   */\n      swap2\n      pop\n        /* \"#utility.yul\":19787:19789   */\n      0x20\n        /* \"#utility.yul\":19776:19785   */\n      dup6\n        /* \"#utility.yul\":19772:19790   */\n      add\n        /* \"#utility.yul\":19759:19790   */\n      swap5\n      pop\n        /* \"#utility.yul\":19633:19637   */\n      0x20\n        /* \"#utility.yul\":19630:19631   */\n      dup2\n        /* \"#utility.yul\":19626:19638   */\n      add\n        /* \"#utility.yul\":19621:19638   */\n      swap1\n      pop\n        /* \"#utility.yul\":19596:19804   */\n      jump(tag_499)\n    tag_501:\n        /* \"#utility.yul\":19832:19838   */\n      dup7\n        /* \"#utility.yul\":19823:19830   */\n      dup4\n        /* \"#utility.yul\":19820:19839   */\n      lt\n        /* \"#utility.yul\":19817:19996   */\n      iszero\n      tag_502\n      jumpi\n        /* \"#utility.yul\":19890:19899   */\n      dup5\n        /* \"#utility.yul\":19885:19888   */\n      dup10\n        /* \"#utility.yul\":19881:19900   */\n      add\n        /* \"#utility.yul\":19875:19901   */\n      mload\n        /* \"#utility.yul\":19933:19981   */\n      tag_503\n        /* \"#utility.yul\":19975:19979   */\n      0x1f\n        /* \"#utility.yul\":19967:19973   */\n      dup10\n        /* \"#utility.yul\":19963:19980   */\n      and\n        /* \"#utility.yul\":19952:19961   */\n      dup3\n        /* \"#utility.yul\":19933:19981   */\n      tag_286\n      jump\t// in\n    tag_503:\n        /* \"#utility.yul\":19925:19931   */\n      dup4\n        /* \"#utility.yul\":19918:19982   */\n      sstore\n        /* \"#utility.yul\":19840:19996   */\n      pop\n        /* \"#utility.yul\":19817:19996   */\n    tag_502:\n        /* \"#utility.yul\":20042:20043   */\n      0x01\n        /* \"#utility.yul\":20038:20039   */\n      0x02\n        /* \"#utility.yul\":20030:20036   */\n      dup9\n        /* \"#utility.yul\":20026:20040   */\n      mul\n        /* \"#utility.yul\":20022:20044   */\n      add\n        /* \"#utility.yul\":20016:20020   */\n      dup9\n        /* \"#utility.yul\":20009:20045   */\n      sstore\n        /* \"#utility.yul\":19444:20055   */\n      pop\n      pop\n      pop\n        /* \"#utility.yul\":19407:20294   */\n    tag_494:\n      pop\n        /* \"#utility.yul\":18997:20300   */\n      pop\n      pop\n      pop\n        /* \"#utility.yul\":18905:20300   */\n      pop\n      pop\n      jump\t// out\n        /* \"#utility.yul\":20306:20478   */\n    tag_288:\n        /* \"#utility.yul\":20446:20470   */\n      0x596f7527766520616c726561647920706c617965642e00000000000000000000\n        /* \"#utility.yul\":20442:20443   */\n      0x00\n        /* \"#utility.yul\":20434:20440   */\n      dup3\n        /* \"#utility.yul\":20430:20444   */\n      add\n        /* \"#utility.yul\":20423:20471   */\n      mstore\n        /* \"#utility.yul\":20306:20478   */\n      pop\n      jump\t// out\n        /* \"#utility.yul\":20484:20850   */\n    tag_289:\n        /* \"#utility.yul\":20626:20629   */\n      0x00\n        /* \"#utility.yul\":20647:20714   */\n      tag_506\n        /* \"#utility.yul\":20711:20713   */\n      0x16\n        /* \"#utility.yul\":20706:20709   */\n      dup4\n        /* \"#utility.yul\":20647:20714   */\n      tag_253\n      jump\t// in\n    tag_506:\n        /* \"#utility.yul\":20640:20714   */\n      swap2\n      pop\n        /* \"#utility.yul\":20723:20816   */\n      tag_507\n        /* \"#utility.yul\":20812:20815   */\n      dup3\n        /* \"#utility.yul\":20723:20816   */\n      tag_288\n      jump\t// in\n    tag_507:\n        /* \"#utility.yul\":20841:20843   */\n      0x20\n        /* \"#utility.yul\":20836:20839   */\n      dup3\n        /* \"#utility.yul\":20832:20844   */\n      add\n        /* \"#utility.yul\":20825:20844   */\n      swap1\n      pop\n        /* \"#utility.yul\":20484:20850   */\n      swap2\n      swap1\n      pop\n      jump\t// out\n        /* \"#utility.yul\":20856:21275   */\n    tag_148:\n        /* \"#utility.yul\":21022:21026   */\n      0x00\n        /* \"#utility.yul\":21060:21062   */\n      0x20\n        /* \"#utility.yul\":21049:21058   */\n      dup3\n        /* \"#utility.yul\":21045:21063   */\n      add\n        /* \"#utility.yul\":21037:21063   */\n      swap1\n      pop\n        /* \"#utility.yul\":21109:21118   */\n      dup2\n        /* \"#utility.yul\":21103:21107   */\n      dup2\n        /* \"#utility.yul\":21099:21119   */\n      sub\n        /* \"#utility.yul\":21095:21096   */\n      0x00\n        /* \"#utility.yul\":21084:21093   */\n      dup4\n        /* \"#utility.yul\":21080:21097   */\n      add\n        /* \"#utility.yul\":21073:21120   */\n      mstore\n        /* \"#utility.yul\":21137:21268   */\n      tag_509\n        /* \"#utility.yul\":21263:21267   */\n      dup2\n        /* \"#utility.yul\":21137:21268   */\n      tag_289\n      jump\t// in\n    tag_509:\n        /* \"#utility.yul\":21129:21268   */\n      swap1\n      pop\n        /* \"#utility.yul\":20856:21275   */\n      swap2\n      swap1\n      pop\n      jump\t// out\n        /* \"#utility.yul\":21281:21435   */\n    tag_290:\n        /* \"#utility.yul\":21421:21427   */\n      0x526f636b00000000000000000000000000000000000000000000000000000000\n        /* \"#utility.yul\":21417:21418   */\n      0x00\n        /* \"#utility.yul\":21409:21415   */\n      dup3\n        /* \"#utility.yul\":21405:21419   */\n      add\n        /* \"#utility.yul\":21398:21428   */\n      mstore\n        /* \"#utility.yul\":21281:21435   */\n      pop\n      jump\t// out\n        /* \"#utility.yul\":21441:21841   */\n    tag_291:\n        /* \"#utility.yul\":21601:21604   */\n      0x00\n        /* \"#utility.yul\":21622:21706   */\n      tag_512\n        /* \"#utility.yul\":21704:21705   */\n      0x04\n        /* \"#utility.yul\":21699:21702   */\n      dup4\n        /* \"#utility.yul\":21622:21706   */\n      tag_266\n      jump\t// in\n    tag_512:\n        /* \"#utility.yul\":21615:21706   */\n      swap2\n      pop\n        /* \"#utility.yul\":21715:21808   */\n      tag_513\n        /* \"#utility.yul\":21804:21807   */\n      dup3\n        /* \"#utility.yul\":21715:21808   */\n      tag_290\n      jump\t// in\n    tag_513:\n        /* \"#utility.yul\":21833:21834   */\n      0x04\n        /* \"#utility.yul\":21828:21831   */\n      dup3\n        /* \"#utility.yul\":21824:21835   */\n      add\n        /* \"#utility.yul\":21817:21835   */\n      swap1\n      pop\n        /* \"#utility.yul\":21441:21841   */\n      swap2\n      swap1\n      pop\n      jump\t// out\n        /* \"#utility.yul\":21847:22228   */\n    tag_156:\n        /* \"#utility.yul\":22032:22035   */\n      0x00\n        /* \"#utility.yul\":22054:22202   */\n      tag_515\n        /* \"#utility.yul\":22198:22201   */\n      dup3\n        /* \"#utility.yul\":22054:22202   */\n      tag_291\n      jump\t// in\n    tag_515:\n        /* \"#utility.yul\":22047:22202   */\n      swap2\n      pop\n        /* \"#utility.yul\":22219:22222   */\n      dup2\n        /* \"#utility.yul\":22212:22222   */\n      swap1\n      pop\n        /* \"#utility.yul\":21847:22228   */\n      swap2\n      swap1\n      pop\n      jump\t// out\n        /* \"#utility.yul\":22234:22389   */\n    tag_292:\n        /* \"#utility.yul\":22374:22381   */\n      0x5061706572000000000000000000000000000000000000000000000000000000\n        /* \"#utility.yul\":22370:22371   */\n      0x00\n        /* \"#utility.yul\":22362:22368   */\n      dup3\n        /* \"#utility.yul\":22358:22372   */\n      add\n        /* \"#utility.yul\":22351:22382   */\n      mstore\n        /* \"#utility.yul\":22234:22389   */\n      pop\n      jump\t// out\n        /* \"#utility.yul\":22395:22795   */\n    tag_293:\n        /* \"#utility.yul\":22555:22558   */\n      0x00\n        /* \"#utility.yul\":22576:22660   */\n      tag_518\n        /* \"#utility.yul\":22658:22659   */\n      0x05\n        /* \"#utility.yul\":22653:22656   */\n      dup4\n        /* \"#utility.yul\":22576:22660   */\n      tag_266\n      jump\t// in\n    tag_518:\n        /* \"#utility.yul\":22569:22660   */\n      swap2\n      pop\n        /* \"#utility.yul\":22669:22762   */\n      tag_519\n        /* \"#utility.yul\":22758:22761   */\n      dup3\n        /* \"#utility.yul\":22669:22762   */\n      tag_292\n      jump\t// in\n    tag_519:\n        /* \"#utility.yul\":22787:22788   */\n      0x05\n        /* \"#utility.yul\":22782:22785   */\n      dup3\n        /* \"#utility.yul\":22778:22789   */\n      add\n        /* \"#utility.yul\":22771:22789   */\n      swap1\n      pop\n        /* \"#utility.yul\":22395:22795   */\n      swap2\n      swap1\n      pop\n      jump\t// out\n        /* \"#utility.yul\":22801:23182   */\n    tag_161:\n        /* \"#utility.yul\":22986:22989   */\n      0x00\n        /* \"#utility.yul\":23008:23156   */\n      tag_521\n        /* \"#utility.yul\":23152:23155   */\n      dup3\n        /* \"#utility.yul\":23008:23156   */\n      tag_293\n      jump\t// in\n    tag_521:\n        /* \"#utility.yul\":23001:23156   */\n      swap2\n      pop\n        /* \"#utility.yul\":23173:23176   */\n      dup2\n        /* \"#utility.yul\":23166:23176   */\n      swap1\n      pop\n        /* \"#utility.yul\":22801:23182   */\n      swap2\n      swap1\n      pop\n      jump\t// out\n        /* \"#utility.yul\":23188:23346   */\n    tag_294:\n        /* \"#utility.yul\":23328:23338   */\n      0x53636973736f7273000000000000000000000000000000000000000000000000\n        /* \"#utility.yul\":23324:23325   */\n      0x00\n        /* \"#utility.yul\":23316:23322   */\n      dup3\n        /* \"#utility.yul\":23312:23326   */\n      add\n        /* \"#utility.yul\":23305:23339   */\n      mstore\n        /* \"#utility.yul\":23188:23346   */\n      pop\n      jump\t// out\n        /* \"#utility.yul\":23352:23752   */\n    tag_295:\n        /* \"#utility.yul\":23512:23515   */\n      0x00\n        /* \"#utility.yul\":23533:23617   */\n      tag_524\n        /* \"#utility.yul\":23615:23616   */\n      0x08\n        /* \"#utility.yul\":23610:23613   */\n      dup4\n        /* \"#utility.yul\":23533:23617   */\n      tag_266\n      jump\t// in\n    tag_524:\n        /* \"#utility.yul\":23526:23617   */\n      swap2\n      pop\n        /* \"#utility.yul\":23626:23719   */\n      tag_525\n        /* \"#utility.yul\":23715:23718   */\n      dup3\n        /* \"#utility.yul\":23626:23719   */\n      tag_294\n      jump\t// in\n    tag_525:\n        /* \"#utility.yul\":23744:23745   */\n      0x08\n        /* \"#utility.yul\":23739:23742   */\n      dup3\n        /* \"#utility.yul\":23735:23746   */\n      add\n        /* \"#utility.yul\":23728:23746   */\n      swap1\n      pop\n        /* \"#utility.yul\":23352:23752   */\n      swap2\n      swap1\n      pop\n      jump\t// out\n        /* \"#utility.yul\":23758:24139   */\n    tag_166:\n        /* \"#utility.yul\":23943:23946   */\n      0x00\n        /* \"#utility.yul\":23965:24113   */\n      tag_527\n        /* \"#utility.yul\":24109:24112   */\n      dup3\n        /* \"#utility.yul\":23965:24113   */\n      tag_295\n      jump\t// in\n    tag_527:\n        /* \"#utility.yul\":23958:24113   */\n      swap2\n      pop\n        /* \"#utility.yul\":24130:24133   */\n      dup2\n        /* \"#utility.yul\":24123:24133   */\n      swap1\n      pop\n        /* \"#utility.yul\":23758:24139   */\n      swap2\n      swap1\n      pop\n      jump\t// out\n        /* \"#utility.yul\":24145:24369   */\n    tag_296:\n        /* \"#utility.yul\":24285:24319   */\n      0x426f746820706c6179657273206d7573742072657665616c207468656972206d\n        /* \"#utility.yul\":24281:24282   */\n      0x00\n        /* \"#utility.yul\":24273:24279   */\n      dup3\n        /* \"#utility.yul\":24269:24283   */\n      add\n        /* \"#utility.yul\":24262:24320   */\n      mstore\n        /* \"#utility.yul\":24354:24361   */\n      0x6f7665732e000000000000000000000000000000000000000000000000000000\n        /* \"#utility.yul\":24349:24351   */\n      0x20\n        /* \"#utility.yul\":24341:24347   */\n      dup3\n        /* \"#utility.yul\":24337:24352   */\n      add\n        /* \"#utility.yul\":24330:24362   */\n      mstore\n        /* \"#utility.yul\":24145:24369   */\n      pop\n      jump\t// out\n        /* \"#utility.yul\":24375:24741   */\n    tag_297:\n        /* \"#utility.yul\":24517:24520   */\n      0x00\n        /* \"#utility.yul\":24538:24605   */\n      tag_530\n        /* \"#utility.yul\":24602:24604   */\n      0x25\n        /* \"#utility.yul\":24597:24600   */\n      dup4\n        /* \"#utility.yul\":24538:24605   */\n      tag_253\n      jump\t// in\n    tag_530:\n        /* \"#utility.yul\":24531:24605   */\n      swap2\n      pop\n        /* \"#utility.yul\":24614:24707   */\n      tag_531\n        /* \"#utility.yul\":24703:24706   */\n      dup3\n        /* \"#utility.yul\":24614:24707   */\n      tag_296\n      jump\t// in\n    tag_531:\n        /* \"#utility.yul\":24732:24734   */\n      0x40\n        /* \"#utility.yul\":24727:24730   */\n      dup3\n        /* \"#utility.yul\":24723:24735   */\n      add\n        /* \"#utility.yul\":24716:24735   */\n      swap1\n      pop\n        /* \"#utility.yul\":24375:24741   */\n      swap2\n      swap1\n      pop\n      jump\t// out\n        /* \"#utility.yul\":24747:25166   */\n    tag_174:\n        /* \"#utility.yul\":24913:24917   */\n      0x00\n        /* \"#utility.yul\":24951:24953   */\n      0x20\n        /* \"#utility.yul\":24940:24949   */\n      dup3\n        /* \"#utility.yul\":24936:24954   */\n      add\n        /* \"#utility.yul\":24928:24954   */\n      swap1\n      pop\n        /* \"#utility.yul\":25000:25009   */\n      dup2\n        /* \"#utility.yul\":24994:24998   */\n      dup2\n        /* \"#utility.yul\":24990:25010   */\n      sub\n        /* \"#utility.yul\":24986:24987   */\n      0x00\n        /* \"#utility.yul\":24975:24984   */\n      dup4\n        /* \"#utility.yul\":24971:24988   */\n      add\n        /* \"#utility.yul\":24964:25011   */\n      mstore\n        /* \"#utility.yul\":25028:25159   */\n      tag_533\n        /* \"#utility.yul\":25154:25158   */\n      dup2\n        /* \"#utility.yul\":25028:25159   */\n      tag_297\n      jump\t// in\n    tag_533:\n        /* \"#utility.yul\":25020:25159   */\n      swap1\n      pop\n        /* \"#utility.yul\":24747:25166   */\n      swap2\n      swap1\n      pop\n      jump\t// out\n\n    auxdata: 0xa2646970667358221220befff06f30d2855e28cf21bc5dd5c903949d3ccf47eaa7b846e729632833d01964736f6c63430008120033\n}\n",
				"bytecode": {
					"linkReferences": {},
					"object": "6080604052655af3107a400060025534801561001a57600080fd5b5060008060006101000a81548173ffffffffffffffffffffffffffffffffffffffff021916908373ffffffffffffffffffffffffffffffffffffffff1602179055506000600160006101000a81548173ffffffffffffffffffffffffffffffffffffffff021916908373ffffffffffffffffffffffffffffffffffffffff160217905550612490806100ad6000396000f3fe6080604052600436106100dd5760003560e01c8063807c85041161007f578063c7a1865b11610059578063c7a1865b14610283578063d30895e4146102ac578063da91254c146102d7578063f0f3249714610302576100dd565b8063807c8504146102025780638b7afe2e1461022d578063c38a8afd14610258576100dd565b806351dcb1c3116100bb57806351dcb1c31461014057806359a5f12d1461016b5780636f9fb98a1461019657806379131a19146101c1576100dd565b80631aa3a008146100e257806343445ca8146100ec5780634c26124714610117575b600080fd5b6100ea61032d565b005b3480156100f857600080fd5b50610101610535565b60405161010e9190611784565b60405180910390f35b34801561012357600080fd5b5061013e600480360381019061013991906118f9565b610627565b005b34801561014c57600080fd5b50610155610ab6565b604051610162919061195b565b60405180910390f35b34801561017757600080fd5b50610180610bba565b60405161018d91906119b7565b60405180910390f35b3480156101a257600080fd5b506101ab610be0565b6040516101b8919061195b565b60405180910390f35b3480156101cd57600080fd5b506101e860048036038101906101e39190611a10565b610be8565b6040516101f9959493929190611b5b565b60405180910390f35b34801561020e57600080fd5b50610217610ce0565b6040516102249190611784565b60405180910390f35b34801561023957600080fd5b50610242610dc4565b60405161024f919061195b565b60405180910390f35b34801561026457600080fd5b5061026d610dca565b60405161027a919061195b565b60405180910390f35b34801561028f57600080fd5b506102aa60048036038101906102a59190611be1565b610dd0565b005b3480156102b857600080fd5b506102c1610fd7565b6040516102ce91906119b7565b60405180910390f35b3480156102e357600080fd5b506102ec610ffb565b6040516102f9919061195b565b60405180910390f35b34801561030e57600080fd5b506103176110c0565b6040516103249190611784565b60405180910390f35b600560009054906101000a900460ff161561037d576040517f08c379a000000000000000000000000000000000000000000000000000000000815260040161037490611c5a565b60405180910390fd5b6002543410156103c2576040517f08c379a00000000000000000000000000000000000000000000000000000000081526004016103b990611cc6565b60405180910390fd5b600073ffffffffffffffffffffffffffffffffffffffff1660008054906101000a900473ffffffffffffffffffffffffffffffffffffffff1673ffffffffffffffffffffffffffffffffffffffff160361045b57336000806101000a81548173ffffffffffffffffffffffffffffffffffffffff021916908373ffffffffffffffffffffffffffffffffffffffff160217905550610533565b600073ffffffffffffffffffffffffffffffffffffffff16600160009054906101000a900473ffffffffffffffffffffffffffffffffffffffff1673ffffffffffffffffffffffffffffffffffffffff16036104f75733600160006101000a81548173ffffffffffffffffffffffffffffffffffffffff021916908373ffffffffffffffffffffffffffffffffffffffff160217905550610532565b6040517f08c379a000000000000000000000000000000000000000000000000000000000815260040161052990611d58565b60405180910390fd5b5b565b6000600460008060009054906101000a900473ffffffffffffffffffffffffffffffffffffffff1673ffffffffffffffffffffffffffffffffffffffff1673ffffffffffffffffffffffffffffffffffffffff16815260200190815260200160002060040160009054906101000a900460ff168015610622575060046000600160009054906101000a900473ffffffffffffffffffffffffffffffffffffffff1673ffffffffffffffffffffffffffffffffffffffff1673ffffffffffffffffffffffffffffffffffffffff16815260200190815260200160002060040160009054906101000a900460ff165b905090565b60008054906101000a900473ffffffffffffffffffffffffffffffffffffffff1673ffffffffffffffffffffffffffffffffffffffff163373ffffffffffffffffffffffffffffffffffffffff1614806106ce5750600160009054906101000a900473ffffffffffffffffffffffffffffffffffffffff1673ffffffffffffffffffffffffffffffffffffffff163373ffffffffffffffffffffffffffffffffffffffff16145b61070d576040517f08c379a000000000000000000000000000000000000000000000000000000000815260040161070490611dea565b60405180910390fd5b600560009054906101000a900460ff161561075d576040517f08c379a000000000000000000000000000000000000000000000000000000000815260040161075490611c5a565b60405180910390fd5b600460003373ffffffffffffffffffffffffffffffffffffffff1673ffffffffffffffffffffffffffffffffffffffff16815260200190815260200160002060010154816040516020016107b19190611e46565b6040516020818303038152906040528051906020012014610807576040517f08c379a00000000000000000000000000000000000000000000000000000000081526004016107fe90611ea9565b60405180910390fd5b60001515600460003373ffffffffffffffffffffffffffffffffffffffff1673ffffffffffffffffffffffffffffffffffffffff16815260200190815260200160002060040160009054906101000a900460ff1615151461089d576040517f08c379a000000000000000000000000000000000000000000000000000000000815260040161089490611f3b565b60405180910390fd5b80600460003373ffffffffffffffffffffffffffffffffffffffff1673ffffffffffffffffffffffffffffffffffffffff16815260200190815260200160002060030190816108ec9190612167565b506108f6816110d3565b600460003373ffffffffffffffffffffffffffffffffffffffff1673ffffffffffffffffffffffffffffffffffffffff16815260200190815260200160002060020160006101000a81548160ff0219169083600381111561095a57610959611a65565b5b02179055506001600460003373ffffffffffffffffffffffffffffffffffffffff1673ffffffffffffffffffffffffffffffffffffffff16815260200190815260200160002060040160006101000a81548160ff021916908315150217905550600460008060009054906101000a900473ffffffffffffffffffffffffffffffffffffffff1673ffffffffffffffffffffffffffffffffffffffff1673ffffffffffffffffffffffffffffffffffffffff16815260200190815260200160002060040160009054906101000a900460ff168015610aa5575060046000600160009054906101000a900473ffffffffffffffffffffffffffffffffffffffff1673ffffffffffffffffffffffffffffffffffffffff1673ffffffffffffffffffffffffffffffffffffffff16815260200190815260200160002060040160009054906101000a900460ff165b15610ab357610ab26111ed565b5b50565b6000600460008060009054906101000a900473ffffffffffffffffffffffffffffffffffffffff1673ffffffffffffffffffffffffffffffffffffffff1673ffffffffffffffffffffffffffffffffffffffff16815260200190815260200160002060040160009054906101000a900460ff161580610ba4575060046000600160009054906101000a900473ffffffffffffffffffffffffffffffffffffffff1673ffffffffffffffffffffffffffffffffffffffff1673ffffffffffffffffffffffffffffffffffffffff16815260200190815260200160002060040160009054906101000a900460ff16155b15610bb25760009050610bb7565b600090505b90565b600160009054906101000a900473ffffffffffffffffffffffffffffffffffffffff1681565b600047905090565b60046020528060005260406000206000915090508060000160009054906101000a900473ffffffffffffffffffffffffffffffffffffffff16908060010154908060020160009054906101000a900460ff1690806003018054610c4a90611f8a565b80601f0160208091040260200160405190810160405280929190818152602001828054610c7690611f8a565b8015610cc35780601f10610c9857610100808354040283529160200191610cc3565b820191906000526020600020905b815481529060010190602001808311610ca657829003601f168201915b5050505050908060040160009054906101000a900460ff16905085565b60008060001b600460008060009054906101000a900473ffffffffffffffffffffffffffffffffffffffff1673ffffffffffffffffffffffffffffffffffffffff1673ffffffffffffffffffffffffffffffffffffffff1681526020019081526020016000206001015414158015610dbf57506000801b60046000600160009054906101000a900473ffffffffffffffffffffffffffffffffffffffff1673ffffffffffffffffffffffffffffffffffffffff1673ffffffffffffffffffffffffffffffffffffffff1681526020019081526020016000206001015414155b905090565b60035481565b60025481565b60008054906101000a900473ffffffffffffffffffffffffffffffffffffffff1673ffffffffffffffffffffffffffffffffffffffff163373ffffffffffffffffffffffffffffffffffffffff161480610e775750600160009054906101000a900473ffffffffffffffffffffffffffffffffffffffff1673ffffffffffffffffffffffffffffffffffffffff163373ffffffffffffffffffffffffffffffffffffffff16145b610eb6576040517f08c379a0000000000000000000000000000000000000000000000000000000008152600401610ead90611dea565b60405180910390fd5b600560009054906101000a900460ff1615610f06576040517f08c379a0000000000000000000000000000000000000000000000000000000008152600401610efd90611c5a565b60405180910390fd5b6000801b600460003373ffffffffffffffffffffffffffffffffffffffff1673ffffffffffffffffffffffffffffffffffffffff1681526020019081526020016000206001015414610f8d576040517f08c379a0000000000000000000000000000000000000000000000000000000008152600401610f8490612285565b60405180910390fd5b80600460003373ffffffffffffffffffffffffffffffffffffffff1673ffffffffffffffffffffffffffffffffffffffff1681526020019081526020016000206001018190555050565b60008054906101000a900473ffffffffffffffffffffffffffffffffffffffff1681565b60008060009054906101000a900473ffffffffffffffffffffffffffffffffffffffff1673ffffffffffffffffffffffffffffffffffffffff163373ffffffffffffffffffffffffffffffffffffffff160361105a57600190506110bd565b600160009054906101000a900473ffffffffffffffffffffffffffffffffffffffff1673ffffffffffffffffffffffffffffffffffffffff163373ffffffffffffffffffffffffffffffffffffffff16036110b857600290506110bd565b600090505b90565b600560009054906101000a900460ff1681565b60006040516020016110e4906122f1565b604051602081830303815290604052805190602001208260405160200161110b9190611e46565b604051602081830303815290604052805190602001200361112f57600190506111e8565b60405160200161113e90612352565b60405160208183030381529060405280519060200120826040516020016111659190611e46565b604051602081830303815290604052805190602001200361118957600290506111e8565b604051602001611198906123b3565b60405160208183030381529060405280519060200120826040516020016111bf9190611e46565b60405160208183030381529060405280519060200120036111e357600390506111e8565b600090505b919050565b600460008060009054906101000a900473ffffffffffffffffffffffffffffffffffffffff1673ffffffffffffffffffffffffffffffffffffffff1673ffffffffffffffffffffffffffffffffffffffff16815260200190815260200160002060040160009054906101000a900460ff1680156112d8575060046000600160009054906101000a900473ffffffffffffffffffffffffffffffffffffffff1673ffffffffffffffffffffffffffffffffffffffff1673ffffffffffffffffffffffffffffffffffffffff16815260200190815260200160002060040160009054906101000a900460ff165b611317576040517f08c379a000000000000000000000000000000000000000000000000000000000815260040161130e9061243a565b60405180910390fd5b600560009054906101000a900460ff1615611367576040517f08c379a000000000000000000000000000000000000000000000000000000000815260040161135e90611c5a565b60405180910390fd5b6000600460008060009054906101000a900473ffffffffffffffffffffffffffffffffffffffff1673ffffffffffffffffffffffffffffffffffffffff1673ffffffffffffffffffffffffffffffffffffffff16815260200190815260200160002060020160009054906101000a900460ff169050600060046000600160009054906101000a900473ffffffffffffffffffffffffffffffffffffffff1673ffffffffffffffffffffffffffffffffffffffff1673ffffffffffffffffffffffffffffffffffffffff16815260200190815260200160002060020160009054906101000a900460ff16905080600381111561146557611464611a65565b5b82600381111561147857611477611a65565b5b036115565760008054906101000a900473ffffffffffffffffffffffffffffffffffffffff1673ffffffffffffffffffffffffffffffffffffffff166108fc6002549081150290604051600060405180830381858888f193505050501580156114e5573d6000803e3d6000fd5b50600160009054906101000a900473ffffffffffffffffffffffffffffffffffffffff1673ffffffffffffffffffffffffffffffffffffffff166108fc6002549081150290604051600060405180830381858888f19350505050158015611550573d6000803e3d6000fd5b5061174a565b6001600381111561156a57611569611a65565b5b82600381111561157d5761157c611a65565b5b1480156115ad575060038081111561159857611597611a65565b5b8160038111156115ab576115aa611a65565b5b145b8061160c5750600260038111156115c7576115c6611a65565b5b8260038111156115da576115d9611a65565b5b14801561160b5750600160038111156115f6576115f5611a65565b5b81600381111561160957611608611a65565b5b145b5b8061166a575060038081111561162557611624611a65565b5b82600381111561163857611637611a65565b5b14801561166957506002600381111561165457611653611a65565b5b81600381111561166757611666611a65565b5b145b5b156116dd5760008054906101000a900473ffffffffffffffffffffffffffffffffffffffff1673ffffffffffffffffffffffffffffffffffffffff166108fc6003549081150290604051600060405180830381858888f193505050501580156116d7573d6000803e3d6000fd5b50611749565b600160009054906101000a900473ffffffffffffffffffffffffffffffffffffffff1673ffffffffffffffffffffffffffffffffffffffff166108fc6003549081150290604051600060405180830381858888f19350505050158015611747573d6000803e3d6000fd5b505b5b6001600560006101000a81548160ff0219169083151502179055505050565b60008115159050919050565b61177e81611769565b82525050565b60006020820190506117996000830184611775565b92915050565b6000604051905090565b600080fd5b600080fd5b600080fd5b600080fd5b6000601f19601f8301169050919050565b7f4e487b7100000000000000000000000000000000000000000000000000000000600052604160045260246000fd5b611806826117bd565b810181811067ffffffffffffffff82111715611825576118246117ce565b5b80604052505050565b600061183861179f565b905061184482826117fd565b919050565b600067ffffffffffffffff821115611864576118636117ce565b5b61186d826117bd565b9050602081019050919050565b82818337600083830152505050565b600061189c61189784611849565b61182e565b9050828152602081018484840111156118b8576118b76117b8565b5b6118c384828561187a565b509392505050565b600082601f8301126118e0576118df6117b3565b5b81356118f0848260208601611889565b91505092915050565b60006020828403121561190f5761190e6117a9565b5b600082013567ffffffffffffffff81111561192d5761192c6117ae565b5b611939848285016118cb565b91505092915050565b6000819050919050565b61195581611942565b82525050565b6000602082019050611970600083018461194c565b92915050565b600073ffffffffffffffffffffffffffffffffffffffff82169050919050565b60006119a182611976565b9050919050565b6119b181611996565b82525050565b60006020820190506119cc60008301846119a8565b92915050565b60006119dd82611976565b9050919050565b6119ed816119d2565b81146119f857600080fd5b50565b600081359050611a0a816119e4565b92915050565b600060208284031215611a2657611a256117a9565b5b6000611a34848285016119fb565b91505092915050565b611a46816119d2565b82525050565b6000819050919050565b611a5f81611a4c565b82525050565b7f4e487b7100000000000000000000000000000000000000000000000000000000600052602160045260246000fd5b60048110611aa557611aa4611a65565b5b50565b6000819050611ab682611a94565b919050565b6000611ac682611aa8565b9050919050565b611ad681611abb565b82525050565b600081519050919050565b600082825260208201905092915050565b60005b83811015611b16578082015181840152602081019050611afb565b60008484015250505050565b6000611b2d82611adc565b611b378185611ae7565b9350611b47818560208601611af8565b611b50816117bd565b840191505092915050565b600060a082019050611b706000830188611a3d565b611b7d6020830187611a56565b611b8a6040830186611acd565b8181036060830152611b9c8185611b22565b9050611bab6080830184611775565b9695505050505050565b611bbe81611a4c565b8114611bc957600080fd5b50565b600081359050611bdb81611bb5565b92915050565b600060208284031215611bf757611bf66117a9565b5b6000611c0584828501611bcc565b91505092915050565b7f5468652067616d6520697320616c72656164792066696e69736865642e000000600082015250565b6000611c44601d83611ae7565b9150611c4f82611c0e565b602082019050919050565b60006020820190508181036000830152611c7381611c37565b9050919050565b7f496e73756666696369656e742062657420616d6f756e742e0000000000000000600082015250565b6000611cb0601883611ae7565b9150611cbb82611c7a565b602082019050919050565b60006020820190508181036000830152611cdf81611ca3565b9050919050565b7f426f746820706c61796572732061726520616c7265616479207265676973746560008201527f7265642e00000000000000000000000000000000000000000000000000000000602082015250565b6000611d42602483611ae7565b9150611d4d82611ce6565b604082019050919050565b60006020820190508181036000830152611d7181611d35565b9050919050565b7f596f7520617265206e6f742072656769737465726564206173206120706c617960008201527f65722e0000000000000000000000000000000000000000000000000000000000602082015250565b6000611dd4602383611ae7565b9150611ddf82611d78565b604082019050919050565b60006020820190508181036000830152611e0381611dc7565b9050919050565b600081905092915050565b6000611e2082611adc565b611e2a8185611e0a565b9350611e3a818560208601611af8565b80840191505092915050565b6000611e528284611e15565b915081905092915050565b7f496e76616c696420636c656172206d6f76652e00000000000000000000000000600082015250565b6000611e93601383611ae7565b9150611e9e82611e5d565b602082019050919050565b60006020820190508181036000830152611ec281611e86565b9050919050565b7f596f7527766520616c72656164792072657665616c656420796f7572206d6f7660008201527f652e000000000000000000000000000000000000000000000000000000000000602082015250565b6000611f25602283611ae7565b9150611f3082611ec9565b604082019050919050565b60006020820190508181036000830152611f5481611f18565b9050919050565b7f4e487b7100000000000000000000000000000000000000000000000000000000600052602260045260246000fd5b60006002820490506001821680611fa257607f821691505b602082108103611fb557611fb4611f5b565b5b50919050565b60008190508160005260206000209050919050565b60006020601f8301049050919050565b600082821b905092915050565b60006008830261201d7fffffffffffffffffffffffffffffffffffffffffffffffffffffffffffffffff82611fe0565b6120278683611fe0565b95508019841693508086168417925050509392505050565b6000819050919050565b600061206461205f61205a84611942565b61203f565b611942565b9050919050565b6000819050919050565b61207e83612049565b61209261208a8261206b565b848454611fed565b825550505050565b600090565b6120a761209a565b6120b2818484612075565b505050565b5b818110156120d6576120cb60008261209f565b6001810190506120b8565b5050565b601f82111561211b576120ec81611fbb565b6120f584611fd0565b81016020851015612104578190505b61211861211085611fd0565b8301826120b7565b50505b505050565b600082821c905092915050565b600061213e60001984600802612120565b1980831691505092915050565b6000612157838361212d565b9150826002028217905092915050565b61217082611adc565b67ffffffffffffffff811115612189576121886117ce565b5b6121938254611f8a565b61219e8282856120da565b600060209050601f8311600181146121d157600084156121bf578287015190505b6121c9858261214b565b865550612231565b601f1984166121df86611fbb565b60005b82811015612207578489015182556001820191506020850194506020810190506121e2565b868310156122245784890151612220601f89168261212d565b8355505b6001600288020188555050505b505050505050565b7f596f7527766520616c726561647920706c617965642e00000000000000000000600082015250565b600061226f601683611ae7565b915061227a82612239565b602082019050919050565b6000602082019050818103600083015261229e81612262565b9050919050565b7f526f636b00000000000000000000000000000000000000000000000000000000600082015250565b60006122db600483611e0a565b91506122e6826122a5565b600482019050919050565b60006122fc826122ce565b9150819050919050565b7f5061706572000000000000000000000000000000000000000000000000000000600082015250565b600061233c600583611e0a565b915061234782612306565b600582019050919050565b600061235d8261232f565b9150819050919050565b7f53636973736f7273000000000000000000000000000000000000000000000000600082015250565b600061239d600883611e0a565b91506123a882612367565b600882019050919050565b60006123be82612390565b9150819050919050565b7f426f746820706c6179657273206d7573742072657665616c207468656972206d60008201527f6f7665732e000000000000000000000000000000000000000000000000000000602082015250565b6000612424602583611ae7565b915061242f826123c8565b604082019050919050565b6000602082019050818103600083015261245381612417565b905091905056fea2646970667358221220befff06f30d2855e28cf21bc5dd5c903949d3ccf47eaa7b846e729632833d01964736f6c63430008120033",
					"opcodes": "PUSH1 0x80 PUSH1 0x40 MSTORE PUSH6 0x5AF3107A4000 PUSH1 0x2 SSTORE CALLVALUE DUP1 ISZERO PUSH2 0x1A JUMPI PUSH1 0x0 DUP1 REVERT JUMPDEST POP PUSH1 0x0 DUP1 PUSH1 0x0 PUSH2 0x100 EXP DUP2 SLOAD DUP2 PUSH20 0xFFFFFFFFFFFFFFFFFFFFFFFFFFFFFFFFFFFFFFFF MUL NOT AND SWAP1 DUP4 PUSH20 0xFFFFFFFFFFFFFFFFFFFFFFFFFFFFFFFFFFFFFFFF AND MUL OR SWAP1 SSTORE POP PUSH1 0x0 PUSH1 0x1 PUSH1 0x0 PUSH2 0x100 EXP DUP2 SLOAD DUP2 PUSH20 0xFFFFFFFFFFFFFFFFFFFFFFFFFFFFFFFFFFFFFFFF MUL NOT AND SWAP1 DUP4 PUSH20 0xFFFFFFFFFFFFFFFFFFFFFFFFFFFFFFFFFFFFFFFF AND MUL OR SWAP1 SSTORE POP PUSH2 0x2490 DUP1 PUSH2 0xAD PUSH1 0x0 CODECOPY PUSH1 0x0 RETURN INVALID PUSH1 0x80 PUSH1 0x40 MSTORE PUSH1 0x4 CALLDATASIZE LT PUSH2 0xDD JUMPI PUSH1 0x0 CALLDATALOAD PUSH1 0xE0 SHR DUP1 PUSH4 0x807C8504 GT PUSH2 0x7F JUMPI DUP1 PUSH4 0xC7A1865B GT PUSH2 0x59 JUMPI DUP1 PUSH4 0xC7A1865B EQ PUSH2 0x283 JUMPI DUP1 PUSH4 0xD30895E4 EQ PUSH2 0x2AC JUMPI DUP1 PUSH4 0xDA91254C EQ PUSH2 0x2D7 JUMPI DUP1 PUSH4 0xF0F32497 EQ PUSH2 0x302 JUMPI PUSH2 0xDD JUMP JUMPDEST DUP1 PUSH4 0x807C8504 EQ PUSH2 0x202 JUMPI DUP1 PUSH4 0x8B7AFE2E EQ PUSH2 0x22D JUMPI DUP1 PUSH4 0xC38A8AFD EQ PUSH2 0x258 JUMPI PUSH2 0xDD JUMP JUMPDEST DUP1 PUSH4 0x51DCB1C3 GT PUSH2 0xBB JUMPI DUP1 PUSH4 0x51DCB1C3 EQ PUSH2 0x140 JUMPI DUP1 PUSH4 0x59A5F12D EQ PUSH2 0x16B JUMPI DUP1 PUSH4 0x6F9FB98A EQ PUSH2 0x196 JUMPI DUP1 PUSH4 0x79131A19 EQ PUSH2 0x1C1 JUMPI PUSH2 0xDD JUMP JUMPDEST DUP1 PUSH4 0x1AA3A008 EQ PUSH2 0xE2 JUMPI DUP1 PUSH4 0x43445CA8 EQ PUSH2 0xEC JUMPI DUP1 PUSH4 0x4C261247 EQ PUSH2 0x117 JUMPI JUMPDEST PUSH1 0x0 DUP1 REVERT JUMPDEST PUSH2 0xEA PUSH2 0x32D JUMP JUMPDEST STOP JUMPDEST CALLVALUE DUP1 ISZERO PUSH2 0xF8 JUMPI PUSH1 0x0 DUP1 REVERT JUMPDEST POP PUSH2 0x101 PUSH2 0x535 JUMP JUMPDEST PUSH1 0x40 MLOAD PUSH2 0x10E SWAP2 SWAP1 PUSH2 0x1784 JUMP JUMPDEST PUSH1 0x40 MLOAD DUP1 SWAP2 SUB SWAP1 RETURN JUMPDEST CALLVALUE DUP1 ISZERO PUSH2 0x123 JUMPI PUSH1 0x0 DUP1 REVERT JUMPDEST POP PUSH2 0x13E PUSH1 0x4 DUP1 CALLDATASIZE SUB DUP2 ADD SWAP1 PUSH2 0x139 SWAP2 SWAP1 PUSH2 0x18F9 JUMP JUMPDEST PUSH2 0x627 JUMP JUMPDEST STOP JUMPDEST CALLVALUE DUP1 ISZERO PUSH2 0x14C JUMPI PUSH1 0x0 DUP1 REVERT JUMPDEST POP PUSH2 0x155 PUSH2 0xAB6 JUMP JUMPDEST PUSH1 0x40 MLOAD PUSH2 0x162 SWAP2 SWAP1 PUSH2 0x195B JUMP JUMPDEST PUSH1 0x40 MLOAD DUP1 SWAP2 SUB SWAP1 RETURN JUMPDEST CALLVALUE DUP1 ISZERO PUSH2 0x177 JUMPI PUSH1 0x0 DUP1 REVERT JUMPDEST POP PUSH2 0x180 PUSH2 0xBBA JUMP JUMPDEST PUSH1 0x40 MLOAD PUSH2 0x18D SWAP2 SWAP1 PUSH2 0x19B7 JUMP JUMPDEST PUSH1 0x40 MLOAD DUP1 SWAP2 SUB SWAP1 RETURN JUMPDEST CALLVALUE DUP1 ISZERO PUSH2 0x1A2 JUMPI PUSH1 0x0 DUP1 REVERT JUMPDEST POP PUSH2 0x1AB PUSH2 0xBE0 JUMP JUMPDEST PUSH1 0x40 MLOAD PUSH2 0x1B8 SWAP2 SWAP1 PUSH2 0x195B JUMP JUMPDEST PUSH1 0x40 MLOAD DUP1 SWAP2 SUB SWAP1 RETURN JUMPDEST CALLVALUE DUP1 ISZERO PUSH2 0x1CD JUMPI PUSH1 0x0 DUP1 REVERT JUMPDEST POP PUSH2 0x1E8 PUSH1 0x4 DUP1 CALLDATASIZE SUB DUP2 ADD SWAP1 PUSH2 0x1E3 SWAP2 SWAP1 PUSH2 0x1A10 JUMP JUMPDEST PUSH2 0xBE8 JUMP JUMPDEST PUSH1 0x40 MLOAD PUSH2 0x1F9 SWAP6 SWAP5 SWAP4 SWAP3 SWAP2 SWAP1 PUSH2 0x1B5B JUMP JUMPDEST PUSH1 0x40 MLOAD DUP1 SWAP2 SUB SWAP1 RETURN JUMPDEST CALLVALUE DUP1 ISZERO PUSH2 0x20E JUMPI PUSH1 0x0 DUP1 REVERT JUMPDEST POP PUSH2 0x217 PUSH2 0xCE0 JUMP JUMPDEST PUSH1 0x40 MLOAD PUSH2 0x224 SWAP2 SWAP1 PUSH2 0x1784 JUMP JUMPDEST PUSH1 0x40 MLOAD DUP1 SWAP2 SUB SWAP1 RETURN JUMPDEST CALLVALUE DUP1 ISZERO PUSH2 0x239 JUMPI PUSH1 0x0 DUP1 REVERT JUMPDEST POP PUSH2 0x242 PUSH2 0xDC4 JUMP JUMPDEST PUSH1 0x40 MLOAD PUSH2 0x24F SWAP2 SWAP1 PUSH2 0x195B JUMP JUMPDEST PUSH1 0x40 MLOAD DUP1 SWAP2 SUB SWAP1 RETURN JUMPDEST CALLVALUE DUP1 ISZERO PUSH2 0x264 JUMPI PUSH1 0x0 DUP1 REVERT JUMPDEST POP PUSH2 0x26D PUSH2 0xDCA JUMP JUMPDEST PUSH1 0x40 MLOAD PUSH2 0x27A SWAP2 SWAP1 PUSH2 0x195B JUMP JUMPDEST PUSH1 0x40 MLOAD DUP1 SWAP2 SUB SWAP1 RETURN JUMPDEST CALLVALUE DUP1 ISZERO PUSH2 0x28F JUMPI PUSH1 0x0 DUP1 REVERT JUMPDEST POP PUSH2 0x2AA PUSH1 0x4 DUP1 CALLDATASIZE SUB DUP2 ADD SWAP1 PUSH2 0x2A5 SWAP2 SWAP1 PUSH2 0x1BE1 JUMP JUMPDEST PUSH2 0xDD0 JUMP JUMPDEST STOP JUMPDEST CALLVALUE DUP1 ISZERO PUSH2 0x2B8 JUMPI PUSH1 0x0 DUP1 REVERT JUMPDEST POP PUSH2 0x2C1 PUSH2 0xFD7 JUMP JUMPDEST PUSH1 0x40 MLOAD PUSH2 0x2CE SWAP2 SWAP1 PUSH2 0x19B7 JUMP JUMPDEST PUSH1 0x40 MLOAD DUP1 SWAP2 SUB SWAP1 RETURN JUMPDEST CALLVALUE DUP1 ISZERO PUSH2 0x2E3 JUMPI PUSH1 0x0 DUP1 REVERT JUMPDEST POP PUSH2 0x2EC PUSH2 0xFFB JUMP JUMPDEST PUSH1 0x40 MLOAD PUSH2 0x2F9 SWAP2 SWAP1 PUSH2 0x195B JUMP JUMPDEST PUSH1 0x40 MLOAD DUP1 SWAP2 SUB SWAP1 RETURN JUMPDEST CALLVALUE DUP1 ISZERO PUSH2 0x30E JUMPI PUSH1 0x0 DUP1 REVERT JUMPDEST POP PUSH2 0x317 PUSH2 0x10C0 JUMP JUMPDEST PUSH1 0x40 MLOAD PUSH2 0x324 SWAP2 SWAP1 PUSH2 0x1784 JUMP JUMPDEST PUSH1 0x40 MLOAD DUP1 SWAP2 SUB SWAP1 RETURN JUMPDEST PUSH1 0x5 PUSH1 0x0 SWAP1 SLOAD SWAP1 PUSH2 0x100 EXP SWAP1 DIV PUSH1 0xFF AND ISZERO PUSH2 0x37D JUMPI PUSH1 0x40 MLOAD PUSH32 0x8C379A000000000000000000000000000000000000000000000000000000000 DUP2 MSTORE PUSH1 0x4 ADD PUSH2 0x374 SWAP1 PUSH2 0x1C5A JUMP JUMPDEST PUSH1 0x40 MLOAD DUP1 SWAP2 SUB SWAP1 REVERT JUMPDEST PUSH1 0x2 SLOAD CALLVALUE LT ISZERO PUSH2 0x3C2 JUMPI PUSH1 0x40 MLOAD PUSH32 0x8C379A000000000000000000000000000000000000000000000000000000000 DUP2 MSTORE PUSH1 0x4 ADD PUSH2 0x3B9 SWAP1 PUSH2 0x1CC6 JUMP JUMPDEST PUSH1 0x40 MLOAD DUP1 SWAP2 SUB SWAP1 REVERT JUMPDEST PUSH1 0x0 PUSH20 0xFFFFFFFFFFFFFFFFFFFFFFFFFFFFFFFFFFFFFFFF AND PUSH1 0x0 DUP1 SLOAD SWAP1 PUSH2 0x100 EXP SWAP1 DIV PUSH20 0xFFFFFFFFFFFFFFFFFFFFFFFFFFFFFFFFFFFFFFFF AND PUSH20 0xFFFFFFFFFFFFFFFFFFFFFFFFFFFFFFFFFFFFFFFF AND SUB PUSH2 0x45B JUMPI CALLER PUSH1 0x0 DUP1 PUSH2 0x100 EXP DUP2 SLOAD DUP2 PUSH20 0xFFFFFFFFFFFFFFFFFFFFFFFFFFFFFFFFFFFFFFFF MUL NOT AND SWAP1 DUP4 PUSH20 0xFFFFFFFFFFFFFFFFFFFFFFFFFFFFFFFFFFFFFFFF AND MUL OR SWAP1 SSTORE POP PUSH2 0x533 JUMP JUMPDEST PUSH1 0x0 PUSH20 0xFFFFFFFFFFFFFFFFFFFFFFFFFFFFFFFFFFFFFFFF AND PUSH1 0x1 PUSH1 0x0 SWAP1 SLOAD SWAP1 PUSH2 0x100 EXP SWAP1 DIV PUSH20 0xFFFFFFFFFFFFFFFFFFFFFFFFFFFFFFFFFFFFFFFF AND PUSH20 0xFFFFFFFFFFFFFFFFFFFFFFFFFFFFFFFFFFFFFFFF AND SUB PUSH2 0x4F7 JUMPI CALLER PUSH1 0x1 PUSH1 0x0 PUSH2 0x100 EXP DUP2 SLOAD DUP2 PUSH20 0xFFFFFFFFFFFFFFFFFFFFFFFFFFFFFFFFFFFFFFFF MUL NOT AND SWAP1 DUP4 PUSH20 0xFFFFFFFFFFFFFFFFFFFFFFFFFFFFFFFFFFFFFFFF AND MUL OR SWAP1 SSTORE POP PUSH2 0x532 JUMP JUMPDEST PUSH1 0x40 MLOAD PUSH32 0x8C379A000000000000000000000000000000000000000000000000000000000 DUP2 MSTORE PUSH1 0x4 ADD PUSH2 0x529 SWAP1 PUSH2 0x1D58 JUMP JUMPDEST PUSH1 0x40 MLOAD DUP1 SWAP2 SUB SWAP1 REVERT JUMPDEST JUMPDEST JUMP JUMPDEST PUSH1 0x0 PUSH1 0x4 PUSH1 0x0 DUP1 PUSH1 0x0 SWAP1 SLOAD SWAP1 PUSH2 0x100 EXP SWAP1 DIV PUSH20 0xFFFFFFFFFFFFFFFFFFFFFFFFFFFFFFFFFFFFFFFF AND PUSH20 0xFFFFFFFFFFFFFFFFFFFFFFFFFFFFFFFFFFFFFFFF AND PUSH20 0xFFFFFFFFFFFFFFFFFFFFFFFFFFFFFFFFFFFFFFFF AND DUP2 MSTORE PUSH1 0x20 ADD SWAP1 DUP2 MSTORE PUSH1 0x20 ADD PUSH1 0x0 KECCAK256 PUSH1 0x4 ADD PUSH1 0x0 SWAP1 SLOAD SWAP1 PUSH2 0x100 EXP SWAP1 DIV PUSH1 0xFF AND DUP1 ISZERO PUSH2 0x622 JUMPI POP PUSH1 0x4 PUSH1 0x0 PUSH1 0x1 PUSH1 0x0 SWAP1 SLOAD SWAP1 PUSH2 0x100 EXP SWAP1 DIV PUSH20 0xFFFFFFFFFFFFFFFFFFFFFFFFFFFFFFFFFFFFFFFF AND PUSH20 0xFFFFFFFFFFFFFFFFFFFFFFFFFFFFFFFFFFFFFFFF AND PUSH20 0xFFFFFFFFFFFFFFFFFFFFFFFFFFFFFFFFFFFFFFFF AND DUP2 MSTORE PUSH1 0x20 ADD SWAP1 DUP2 MSTORE PUSH1 0x20 ADD PUSH1 0x0 KECCAK256 PUSH1 0x4 ADD PUSH1 0x0 SWAP1 SLOAD SWAP1 PUSH2 0x100 EXP SWAP1 DIV PUSH1 0xFF AND JUMPDEST SWAP1 POP SWAP1 JUMP JUMPDEST PUSH1 0x0 DUP1 SLOAD SWAP1 PUSH2 0x100 EXP SWAP1 DIV PUSH20 0xFFFFFFFFFFFFFFFFFFFFFFFFFFFFFFFFFFFFFFFF AND PUSH20 0xFFFFFFFFFFFFFFFFFFFFFFFFFFFFFFFFFFFFFFFF AND CALLER PUSH20 0xFFFFFFFFFFFFFFFFFFFFFFFFFFFFFFFFFFFFFFFF AND EQ DUP1 PUSH2 0x6CE JUMPI POP PUSH1 0x1 PUSH1 0x0 SWAP1 SLOAD SWAP1 PUSH2 0x100 EXP SWAP1 DIV PUSH20 0xFFFFFFFFFFFFFFFFFFFFFFFFFFFFFFFFFFFFFFFF AND PUSH20 0xFFFFFFFFFFFFFFFFFFFFFFFFFFFFFFFFFFFFFFFF AND CALLER PUSH20 0xFFFFFFFFFFFFFFFFFFFFFFFFFFFFFFFFFFFFFFFF AND EQ JUMPDEST PUSH2 0x70D JUMPI PUSH1 0x40 MLOAD PUSH32 0x8C379A000000000000000000000000000000000000000000000000000000000 DUP2 MSTORE PUSH1 0x4 ADD PUSH2 0x704 SWAP1 PUSH2 0x1DEA JUMP JUMPDEST PUSH1 0x40 MLOAD DUP1 SWAP2 SUB SWAP1 REVERT JUMPDEST PUSH1 0x5 PUSH1 0x0 SWAP1 SLOAD SWAP1 PUSH2 0x100 EXP SWAP1 DIV PUSH1 0xFF AND ISZERO PUSH2 0x75D JUMPI PUSH1 0x40 MLOAD PUSH32 0x8C379A000000000000000000000000000000000000000000000000000000000 DUP2 MSTORE PUSH1 0x4 ADD PUSH2 0x754 SWAP1 PUSH2 0x1C5A JUMP JUMPDEST PUSH1 0x40 MLOAD DUP1 SWAP2 SUB SWAP1 REVERT JUMPDEST PUSH1 0x4 PUSH1 0x0 CALLER PUSH20 0xFFFFFFFFFFFFFFFFFFFFFFFFFFFFFFFFFFFFFFFF AND PUSH20 0xFFFFFFFFFFFFFFFFFFFFFFFFFFFFFFFFFFFFFFFF AND DUP2 MSTORE PUSH1 0x20 ADD SWAP1 DUP2 MSTORE PUSH1 0x20 ADD PUSH1 0x0 KECCAK256 PUSH1 0x1 ADD SLOAD DUP2 PUSH1 0x40 MLOAD PUSH1 0x20 ADD PUSH2 0x7B1 SWAP2 SWAP1 PUSH2 0x1E46 JUMP JUMPDEST PUSH1 0x40 MLOAD PUSH1 0x20 DUP2 DUP4 SUB SUB DUP2 MSTORE SWAP1 PUSH1 0x40 MSTORE DUP1 MLOAD SWAP1 PUSH1 0x20 ADD KECCAK256 EQ PUSH2 0x807 JUMPI PUSH1 0x40 MLOAD PUSH32 0x8C379A000000000000000000000000000000000000000000000000000000000 DUP2 MSTORE PUSH1 0x4 ADD PUSH2 0x7FE SWAP1 PUSH2 0x1EA9 JUMP JUMPDEST PUSH1 0x40 MLOAD DUP1 SWAP2 SUB SWAP1 REVERT JUMPDEST PUSH1 0x0 ISZERO ISZERO PUSH1 0x4 PUSH1 0x0 CALLER PUSH20 0xFFFFFFFFFFFFFFFFFFFFFFFFFFFFFFFFFFFFFFFF AND PUSH20 0xFFFFFFFFFFFFFFFFFFFFFFFFFFFFFFFFFFFFFFFF AND DUP2 MSTORE PUSH1 0x20 ADD SWAP1 DUP2 MSTORE PUSH1 0x20 ADD PUSH1 0x0 KECCAK256 PUSH1 0x4 ADD PUSH1 0x0 SWAP1 SLOAD SWAP1 PUSH2 0x100 EXP SWAP1 DIV PUSH1 0xFF AND ISZERO ISZERO EQ PUSH2 0x89D JUMPI PUSH1 0x40 MLOAD PUSH32 0x8C379A000000000000000000000000000000000000000000000000000000000 DUP2 MSTORE PUSH1 0x4 ADD PUSH2 0x894 SWAP1 PUSH2 0x1F3B JUMP JUMPDEST PUSH1 0x40 MLOAD DUP1 SWAP2 SUB SWAP1 REVERT JUMPDEST DUP1 PUSH1 0x4 PUSH1 0x0 CALLER PUSH20 0xFFFFFFFFFFFFFFFFFFFFFFFFFFFFFFFFFFFFFFFF AND PUSH20 0xFFFFFFFFFFFFFFFFFFFFFFFFFFFFFFFFFFFFFFFF AND DUP2 MSTORE PUSH1 0x20 ADD SWAP1 DUP2 MSTORE PUSH1 0x20 ADD PUSH1 0x0 KECCAK256 PUSH1 0x3 ADD SWAP1 DUP2 PUSH2 0x8EC SWAP2 SWAP1 PUSH2 0x2167 JUMP JUMPDEST POP PUSH2 0x8F6 DUP2 PUSH2 0x10D3 JUMP JUMPDEST PUSH1 0x4 PUSH1 0x0 CALLER PUSH20 0xFFFFFFFFFFFFFFFFFFFFFFFFFFFFFFFFFFFFFFFF AND PUSH20 0xFFFFFFFFFFFFFFFFFFFFFFFFFFFFFFFFFFFFFFFF AND DUP2 MSTORE PUSH1 0x20 ADD SWAP1 DUP2 MSTORE PUSH1 0x20 ADD PUSH1 0x0 KECCAK256 PUSH1 0x2 ADD PUSH1 0x0 PUSH2 0x100 EXP DUP2 SLOAD DUP2 PUSH1 0xFF MUL NOT AND SWAP1 DUP4 PUSH1 0x3 DUP2 GT ISZERO PUSH2 0x95A JUMPI PUSH2 0x959 PUSH2 0x1A65 JUMP JUMPDEST JUMPDEST MUL OR SWAP1 SSTORE POP PUSH1 0x1 PUSH1 0x4 PUSH1 0x0 CALLER PUSH20 0xFFFFFFFFFFFFFFFFFFFFFFFFFFFFFFFFFFFFFFFF AND PUSH20 0xFFFFFFFFFFFFFFFFFFFFFFFFFFFFFFFFFFFFFFFF AND DUP2 MSTORE PUSH1 0x20 ADD SWAP1 DUP2 MSTORE PUSH1 0x20 ADD PUSH1 0x0 KECCAK256 PUSH1 0x4 ADD PUSH1 0x0 PUSH2 0x100 EXP DUP2 SLOAD DUP2 PUSH1 0xFF MUL NOT AND SWAP1 DUP4 ISZERO ISZERO MUL OR SWAP1 SSTORE POP PUSH1 0x4 PUSH1 0x0 DUP1 PUSH1 0x0 SWAP1 SLOAD SWAP1 PUSH2 0x100 EXP SWAP1 DIV PUSH20 0xFFFFFFFFFFFFFFFFFFFFFFFFFFFFFFFFFFFFFFFF AND PUSH20 0xFFFFFFFFFFFFFFFFFFFFFFFFFFFFFFFFFFFFFFFF AND PUSH20 0xFFFFFFFFFFFFFFFFFFFFFFFFFFFFFFFFFFFFFFFF AND DUP2 MSTORE PUSH1 0x20 ADD SWAP1 DUP2 MSTORE PUSH1 0x20 ADD PUSH1 0x0 KECCAK256 PUSH1 0x4 ADD PUSH1 0x0 SWAP1 SLOAD SWAP1 PUSH2 0x100 EXP SWAP1 DIV PUSH1 0xFF AND DUP1 ISZERO PUSH2 0xAA5 JUMPI POP PUSH1 0x4 PUSH1 0x0 PUSH1 0x1 PUSH1 0x0 SWAP1 SLOAD SWAP1 PUSH2 0x100 EXP SWAP1 DIV PUSH20 0xFFFFFFFFFFFFFFFFFFFFFFFFFFFFFFFFFFFFFFFF AND PUSH20 0xFFFFFFFFFFFFFFFFFFFFFFFFFFFFFFFFFFFFFFFF AND PUSH20 0xFFFFFFFFFFFFFFFFFFFFFFFFFFFFFFFFFFFFFFFF AND DUP2 MSTORE PUSH1 0x20 ADD SWAP1 DUP2 MSTORE PUSH1 0x20 ADD PUSH1 0x0 KECCAK256 PUSH1 0x4 ADD PUSH1 0x0 SWAP1 SLOAD SWAP1 PUSH2 0x100 EXP SWAP1 DIV PUSH1 0xFF AND JUMPDEST ISZERO PUSH2 0xAB3 JUMPI PUSH2 0xAB2 PUSH2 0x11ED JUMP JUMPDEST JUMPDEST POP JUMP JUMPDEST PUSH1 0x0 PUSH1 0x4 PUSH1 0x0 DUP1 PUSH1 0x0 SWAP1 SLOAD SWAP1 PUSH2 0x100 EXP SWAP1 DIV PUSH20 0xFFFFFFFFFFFFFFFFFFFFFFFFFFFFFFFFFFFFFFFF AND PUSH20 0xFFFFFFFFFFFFFFFFFFFFFFFFFFFFFFFFFFFFFFFF AND PUSH20 0xFFFFFFFFFFFFFFFFFFFFFFFFFFFFFFFFFFFFFFFF AND DUP2 MSTORE PUSH1 0x20 ADD SWAP1 DUP2 MSTORE PUSH1 0x20 ADD PUSH1 0x0 KECCAK256 PUSH1 0x4 ADD PUSH1 0x0 SWAP1 SLOAD SWAP1 PUSH2 0x100 EXP SWAP1 DIV PUSH1 0xFF AND ISZERO DUP1 PUSH2 0xBA4 JUMPI POP PUSH1 0x4 PUSH1 0x0 PUSH1 0x1 PUSH1 0x0 SWAP1 SLOAD SWAP1 PUSH2 0x100 EXP SWAP1 DIV PUSH20 0xFFFFFFFFFFFFFFFFFFFFFFFFFFFFFFFFFFFFFFFF AND PUSH20 0xFFFFFFFFFFFFFFFFFFFFFFFFFFFFFFFFFFFFFFFF AND PUSH20 0xFFFFFFFFFFFFFFFFFFFFFFFFFFFFFFFFFFFFFFFF AND DUP2 MSTORE PUSH1 0x20 ADD SWAP1 DUP2 MSTORE PUSH1 0x20 ADD PUSH1 0x0 KECCAK256 PUSH1 0x4 ADD PUSH1 0x0 SWAP1 SLOAD SWAP1 PUSH2 0x100 EXP SWAP1 DIV PUSH1 0xFF AND ISZERO JUMPDEST ISZERO PUSH2 0xBB2 JUMPI PUSH1 0x0 SWAP1 POP PUSH2 0xBB7 JUMP JUMPDEST PUSH1 0x0 SWAP1 POP JUMPDEST SWAP1 JUMP JUMPDEST PUSH1 0x1 PUSH1 0x0 SWAP1 SLOAD SWAP1 PUSH2 0x100 EXP SWAP1 DIV PUSH20 0xFFFFFFFFFFFFFFFFFFFFFFFFFFFFFFFFFFFFFFFF AND DUP2 JUMP JUMPDEST PUSH1 0x0 SELFBALANCE SWAP1 POP SWAP1 JUMP JUMPDEST PUSH1 0x4 PUSH1 0x20 MSTORE DUP1 PUSH1 0x0 MSTORE PUSH1 0x40 PUSH1 0x0 KECCAK256 PUSH1 0x0 SWAP2 POP SWAP1 POP DUP1 PUSH1 0x0 ADD PUSH1 0x0 SWAP1 SLOAD SWAP1 PUSH2 0x100 EXP SWAP1 DIV PUSH20 0xFFFFFFFFFFFFFFFFFFFFFFFFFFFFFFFFFFFFFFFF AND SWAP1 DUP1 PUSH1 0x1 ADD SLOAD SWAP1 DUP1 PUSH1 0x2 ADD PUSH1 0x0 SWAP1 SLOAD SWAP1 PUSH2 0x100 EXP SWAP1 DIV PUSH1 0xFF AND SWAP1 DUP1 PUSH1 0x3 ADD DUP1 SLOAD PUSH2 0xC4A SWAP1 PUSH2 0x1F8A JUMP JUMPDEST DUP1 PUSH1 0x1F ADD PUSH1 0x20 DUP1 SWAP2 DIV MUL PUSH1 0x20 ADD PUSH1 0x40 MLOAD SWAP1 DUP2 ADD PUSH1 0x40 MSTORE DUP1 SWAP3 SWAP2 SWAP1 DUP2 DUP2 MSTORE PUSH1 0x20 ADD DUP3 DUP1 SLOAD PUSH2 0xC76 SWAP1 PUSH2 0x1F8A JUMP JUMPDEST DUP1 ISZERO PUSH2 0xCC3 JUMPI DUP1 PUSH1 0x1F LT PUSH2 0xC98 JUMPI PUSH2 0x100 DUP1 DUP4 SLOAD DIV MUL DUP4 MSTORE SWAP2 PUSH1 0x20 ADD SWAP2 PUSH2 0xCC3 JUMP JUMPDEST DUP3 ADD SWAP2 SWAP1 PUSH1 0x0 MSTORE PUSH1 0x20 PUSH1 0x0 KECCAK256 SWAP1 JUMPDEST DUP2 SLOAD DUP2 MSTORE SWAP1 PUSH1 0x1 ADD SWAP1 PUSH1 0x20 ADD DUP1 DUP4 GT PUSH2 0xCA6 JUMPI DUP3 SWAP1 SUB PUSH1 0x1F AND DUP3 ADD SWAP2 JUMPDEST POP POP POP POP POP SWAP1 DUP1 PUSH1 0x4 ADD PUSH1 0x0 SWAP1 SLOAD SWAP1 PUSH2 0x100 EXP SWAP1 DIV PUSH1 0xFF AND SWAP1 POP DUP6 JUMP JUMPDEST PUSH1 0x0 DUP1 PUSH1 0x0 SHL PUSH1 0x4 PUSH1 0x0 DUP1 PUSH1 0x0 SWAP1 SLOAD SWAP1 PUSH2 0x100 EXP SWAP1 DIV PUSH20 0xFFFFFFFFFFFFFFFFFFFFFFFFFFFFFFFFFFFFFFFF AND PUSH20 0xFFFFFFFFFFFFFFFFFFFFFFFFFFFFFFFFFFFFFFFF AND PUSH20 0xFFFFFFFFFFFFFFFFFFFFFFFFFFFFFFFFFFFFFFFF AND DUP2 MSTORE PUSH1 0x20 ADD SWAP1 DUP2 MSTORE PUSH1 0x20 ADD PUSH1 0x0 KECCAK256 PUSH1 0x1 ADD SLOAD EQ ISZERO DUP1 ISZERO PUSH2 0xDBF JUMPI POP PUSH1 0x0 DUP1 SHL PUSH1 0x4 PUSH1 0x0 PUSH1 0x1 PUSH1 0x0 SWAP1 SLOAD SWAP1 PUSH2 0x100 EXP SWAP1 DIV PUSH20 0xFFFFFFFFFFFFFFFFFFFFFFFFFFFFFFFFFFFFFFFF AND PUSH20 0xFFFFFFFFFFFFFFFFFFFFFFFFFFFFFFFFFFFFFFFF AND PUSH20 0xFFFFFFFFFFFFFFFFFFFFFFFFFFFFFFFFFFFFFFFF AND DUP2 MSTORE PUSH1 0x20 ADD SWAP1 DUP2 MSTORE PUSH1 0x20 ADD PUSH1 0x0 KECCAK256 PUSH1 0x1 ADD SLOAD EQ ISZERO JUMPDEST SWAP1 POP SWAP1 JUMP JUMPDEST PUSH1 0x3 SLOAD DUP2 JUMP JUMPDEST PUSH1 0x2 SLOAD DUP2 JUMP JUMPDEST PUSH1 0x0 DUP1 SLOAD SWAP1 PUSH2 0x100 EXP SWAP1 DIV PUSH20 0xFFFFFFFFFFFFFFFFFFFFFFFFFFFFFFFFFFFFFFFF AND PUSH20 0xFFFFFFFFFFFFFFFFFFFFFFFFFFFFFFFFFFFFFFFF AND CALLER PUSH20 0xFFFFFFFFFFFFFFFFFFFFFFFFFFFFFFFFFFFFFFFF AND EQ DUP1 PUSH2 0xE77 JUMPI POP PUSH1 0x1 PUSH1 0x0 SWAP1 SLOAD SWAP1 PUSH2 0x100 EXP SWAP1 DIV PUSH20 0xFFFFFFFFFFFFFFFFFFFFFFFFFFFFFFFFFFFFFFFF AND PUSH20 0xFFFFFFFFFFFFFFFFFFFFFFFFFFFFFFFFFFFFFFFF AND CALLER PUSH20 0xFFFFFFFFFFFFFFFFFFFFFFFFFFFFFFFFFFFFFFFF AND EQ JUMPDEST PUSH2 0xEB6 JUMPI PUSH1 0x40 MLOAD PUSH32 0x8C379A000000000000000000000000000000000000000000000000000000000 DUP2 MSTORE PUSH1 0x4 ADD PUSH2 0xEAD SWAP1 PUSH2 0x1DEA JUMP JUMPDEST PUSH1 0x40 MLOAD DUP1 SWAP2 SUB SWAP1 REVERT JUMPDEST PUSH1 0x5 PUSH1 0x0 SWAP1 SLOAD SWAP1 PUSH2 0x100 EXP SWAP1 DIV PUSH1 0xFF AND ISZERO PUSH2 0xF06 JUMPI PUSH1 0x40 MLOAD PUSH32 0x8C379A000000000000000000000000000000000000000000000000000000000 DUP2 MSTORE PUSH1 0x4 ADD PUSH2 0xEFD SWAP1 PUSH2 0x1C5A JUMP JUMPDEST PUSH1 0x40 MLOAD DUP1 SWAP2 SUB SWAP1 REVERT JUMPDEST PUSH1 0x0 DUP1 SHL PUSH1 0x4 PUSH1 0x0 CALLER PUSH20 0xFFFFFFFFFFFFFFFFFFFFFFFFFFFFFFFFFFFFFFFF AND PUSH20 0xFFFFFFFFFFFFFFFFFFFFFFFFFFFFFFFFFFFFFFFF AND DUP2 MSTORE PUSH1 0x20 ADD SWAP1 DUP2 MSTORE PUSH1 0x20 ADD PUSH1 0x0 KECCAK256 PUSH1 0x1 ADD SLOAD EQ PUSH2 0xF8D JUMPI PUSH1 0x40 MLOAD PUSH32 0x8C379A000000000000000000000000000000000000000000000000000000000 DUP2 MSTORE PUSH1 0x4 ADD PUSH2 0xF84 SWAP1 PUSH2 0x2285 JUMP JUMPDEST PUSH1 0x40 MLOAD DUP1 SWAP2 SUB SWAP1 REVERT JUMPDEST DUP1 PUSH1 0x4 PUSH1 0x0 CALLER PUSH20 0xFFFFFFFFFFFFFFFFFFFFFFFFFFFFFFFFFFFFFFFF AND PUSH20 0xFFFFFFFFFFFFFFFFFFFFFFFFFFFFFFFFFFFFFFFF AND DUP2 MSTORE PUSH1 0x20 ADD SWAP1 DUP2 MSTORE PUSH1 0x20 ADD PUSH1 0x0 KECCAK256 PUSH1 0x1 ADD DUP2 SWAP1 SSTORE POP POP JUMP JUMPDEST PUSH1 0x0 DUP1 SLOAD SWAP1 PUSH2 0x100 EXP SWAP1 DIV PUSH20 0xFFFFFFFFFFFFFFFFFFFFFFFFFFFFFFFFFFFFFFFF AND DUP2 JUMP JUMPDEST PUSH1 0x0 DUP1 PUSH1 0x0 SWAP1 SLOAD SWAP1 PUSH2 0x100 EXP SWAP1 DIV PUSH20 0xFFFFFFFFFFFFFFFFFFFFFFFFFFFFFFFFFFFFFFFF AND PUSH20 0xFFFFFFFFFFFFFFFFFFFFFFFFFFFFFFFFFFFFFFFF AND CALLER PUSH20 0xFFFFFFFFFFFFFFFFFFFFFFFFFFFFFFFFFFFFFFFF AND SUB PUSH2 0x105A JUMPI PUSH1 0x1 SWAP1 POP PUSH2 0x10BD JUMP JUMPDEST PUSH1 0x1 PUSH1 0x0 SWAP1 SLOAD SWAP1 PUSH2 0x100 EXP SWAP1 DIV PUSH20 0xFFFFFFFFFFFFFFFFFFFFFFFFFFFFFFFFFFFFFFFF AND PUSH20 0xFFFFFFFFFFFFFFFFFFFFFFFFFFFFFFFFFFFFFFFF AND CALLER PUSH20 0xFFFFFFFFFFFFFFFFFFFFFFFFFFFFFFFFFFFFFFFF AND SUB PUSH2 0x10B8 JUMPI PUSH1 0x2 SWAP1 POP PUSH2 0x10BD JUMP JUMPDEST PUSH1 0x0 SWAP1 POP JUMPDEST SWAP1 JUMP JUMPDEST PUSH1 0x5 PUSH1 0x0 SWAP1 SLOAD SWAP1 PUSH2 0x100 EXP SWAP1 DIV PUSH1 0xFF AND DUP2 JUMP JUMPDEST PUSH1 0x0 PUSH1 0x40 MLOAD PUSH1 0x20 ADD PUSH2 0x10E4 SWAP1 PUSH2 0x22F1 JUMP JUMPDEST PUSH1 0x40 MLOAD PUSH1 0x20 DUP2 DUP4 SUB SUB DUP2 MSTORE SWAP1 PUSH1 0x40 MSTORE DUP1 MLOAD SWAP1 PUSH1 0x20 ADD KECCAK256 DUP3 PUSH1 0x40 MLOAD PUSH1 0x20 ADD PUSH2 0x110B SWAP2 SWAP1 PUSH2 0x1E46 JUMP JUMPDEST PUSH1 0x40 MLOAD PUSH1 0x20 DUP2 DUP4 SUB SUB DUP2 MSTORE SWAP1 PUSH1 0x40 MSTORE DUP1 MLOAD SWAP1 PUSH1 0x20 ADD KECCAK256 SUB PUSH2 0x112F JUMPI PUSH1 0x1 SWAP1 POP PUSH2 0x11E8 JUMP JUMPDEST PUSH1 0x40 MLOAD PUSH1 0x20 ADD PUSH2 0x113E SWAP1 PUSH2 0x2352 JUMP JUMPDEST PUSH1 0x40 MLOAD PUSH1 0x20 DUP2 DUP4 SUB SUB DUP2 MSTORE SWAP1 PUSH1 0x40 MSTORE DUP1 MLOAD SWAP1 PUSH1 0x20 ADD KECCAK256 DUP3 PUSH1 0x40 MLOAD PUSH1 0x20 ADD PUSH2 0x1165 SWAP2 SWAP1 PUSH2 0x1E46 JUMP JUMPDEST PUSH1 0x40 MLOAD PUSH1 0x20 DUP2 DUP4 SUB SUB DUP2 MSTORE SWAP1 PUSH1 0x40 MSTORE DUP1 MLOAD SWAP1 PUSH1 0x20 ADD KECCAK256 SUB PUSH2 0x1189 JUMPI PUSH1 0x2 SWAP1 POP PUSH2 0x11E8 JUMP JUMPDEST PUSH1 0x40 MLOAD PUSH1 0x20 ADD PUSH2 0x1198 SWAP1 PUSH2 0x23B3 JUMP JUMPDEST PUSH1 0x40 MLOAD PUSH1 0x20 DUP2 DUP4 SUB SUB DUP2 MSTORE SWAP1 PUSH1 0x40 MSTORE DUP1 MLOAD SWAP1 PUSH1 0x20 ADD KECCAK256 DUP3 PUSH1 0x40 MLOAD PUSH1 0x20 ADD PUSH2 0x11BF SWAP2 SWAP1 PUSH2 0x1E46 JUMP JUMPDEST PUSH1 0x40 MLOAD PUSH1 0x20 DUP2 DUP4 SUB SUB DUP2 MSTORE SWAP1 PUSH1 0x40 MSTORE DUP1 MLOAD SWAP1 PUSH1 0x20 ADD KECCAK256 SUB PUSH2 0x11E3 JUMPI PUSH1 0x3 SWAP1 POP PUSH2 0x11E8 JUMP JUMPDEST PUSH1 0x0 SWAP1 POP JUMPDEST SWAP2 SWAP1 POP JUMP JUMPDEST PUSH1 0x4 PUSH1 0x0 DUP1 PUSH1 0x0 SWAP1 SLOAD SWAP1 PUSH2 0x100 EXP SWAP1 DIV PUSH20 0xFFFFFFFFFFFFFFFFFFFFFFFFFFFFFFFFFFFFFFFF AND PUSH20 0xFFFFFFFFFFFFFFFFFFFFFFFFFFFFFFFFFFFFFFFF AND PUSH20 0xFFFFFFFFFFFFFFFFFFFFFFFFFFFFFFFFFFFFFFFF AND DUP2 MSTORE PUSH1 0x20 ADD SWAP1 DUP2 MSTORE PUSH1 0x20 ADD PUSH1 0x0 KECCAK256 PUSH1 0x4 ADD PUSH1 0x0 SWAP1 SLOAD SWAP1 PUSH2 0x100 EXP SWAP1 DIV PUSH1 0xFF AND DUP1 ISZERO PUSH2 0x12D8 JUMPI POP PUSH1 0x4 PUSH1 0x0 PUSH1 0x1 PUSH1 0x0 SWAP1 SLOAD SWAP1 PUSH2 0x100 EXP SWAP1 DIV PUSH20 0xFFFFFFFFFFFFFFFFFFFFFFFFFFFFFFFFFFFFFFFF AND PUSH20 0xFFFFFFFFFFFFFFFFFFFFFFFFFFFFFFFFFFFFFFFF AND PUSH20 0xFFFFFFFFFFFFFFFFFFFFFFFFFFFFFFFFFFFFFFFF AND DUP2 MSTORE PUSH1 0x20 ADD SWAP1 DUP2 MSTORE PUSH1 0x20 ADD PUSH1 0x0 KECCAK256 PUSH1 0x4 ADD PUSH1 0x0 SWAP1 SLOAD SWAP1 PUSH2 0x100 EXP SWAP1 DIV PUSH1 0xFF AND JUMPDEST PUSH2 0x1317 JUMPI PUSH1 0x40 MLOAD PUSH32 0x8C379A000000000000000000000000000000000000000000000000000000000 DUP2 MSTORE PUSH1 0x4 ADD PUSH2 0x130E SWAP1 PUSH2 0x243A JUMP JUMPDEST PUSH1 0x40 MLOAD DUP1 SWAP2 SUB SWAP1 REVERT JUMPDEST PUSH1 0x5 PUSH1 0x0 SWAP1 SLOAD SWAP1 PUSH2 0x100 EXP SWAP1 DIV PUSH1 0xFF AND ISZERO PUSH2 0x1367 JUMPI PUSH1 0x40 MLOAD PUSH32 0x8C379A000000000000000000000000000000000000000000000000000000000 DUP2 MSTORE PUSH1 0x4 ADD PUSH2 0x135E SWAP1 PUSH2 0x1C5A JUMP JUMPDEST PUSH1 0x40 MLOAD DUP1 SWAP2 SUB SWAP1 REVERT JUMPDEST PUSH1 0x0 PUSH1 0x4 PUSH1 0x0 DUP1 PUSH1 0x0 SWAP1 SLOAD SWAP1 PUSH2 0x100 EXP SWAP1 DIV PUSH20 0xFFFFFFFFFFFFFFFFFFFFFFFFFFFFFFFFFFFFFFFF AND PUSH20 0xFFFFFFFFFFFFFFFFFFFFFFFFFFFFFFFFFFFFFFFF AND PUSH20 0xFFFFFFFFFFFFFFFFFFFFFFFFFFFFFFFFFFFFFFFF AND DUP2 MSTORE PUSH1 0x20 ADD SWAP1 DUP2 MSTORE PUSH1 0x20 ADD PUSH1 0x0 KECCAK256 PUSH1 0x2 ADD PUSH1 0x0 SWAP1 SLOAD SWAP1 PUSH2 0x100 EXP SWAP1 DIV PUSH1 0xFF AND SWAP1 POP PUSH1 0x0 PUSH1 0x4 PUSH1 0x0 PUSH1 0x1 PUSH1 0x0 SWAP1 SLOAD SWAP1 PUSH2 0x100 EXP SWAP1 DIV PUSH20 0xFFFFFFFFFFFFFFFFFFFFFFFFFFFFFFFFFFFFFFFF AND PUSH20 0xFFFFFFFFFFFFFFFFFFFFFFFFFFFFFFFFFFFFFFFF AND PUSH20 0xFFFFFFFFFFFFFFFFFFFFFFFFFFFFFFFFFFFFFFFF AND DUP2 MSTORE PUSH1 0x20 ADD SWAP1 DUP2 MSTORE PUSH1 0x20 ADD PUSH1 0x0 KECCAK256 PUSH1 0x2 ADD PUSH1 0x0 SWAP1 SLOAD SWAP1 PUSH2 0x100 EXP SWAP1 DIV PUSH1 0xFF AND SWAP1 POP DUP1 PUSH1 0x3 DUP2 GT ISZERO PUSH2 0x1465 JUMPI PUSH2 0x1464 PUSH2 0x1A65 JUMP JUMPDEST JUMPDEST DUP3 PUSH1 0x3 DUP2 GT ISZERO PUSH2 0x1478 JUMPI PUSH2 0x1477 PUSH2 0x1A65 JUMP JUMPDEST JUMPDEST SUB PUSH2 0x1556 JUMPI PUSH1 0x0 DUP1 SLOAD SWAP1 PUSH2 0x100 EXP SWAP1 DIV PUSH20 0xFFFFFFFFFFFFFFFFFFFFFFFFFFFFFFFFFFFFFFFF AND PUSH20 0xFFFFFFFFFFFFFFFFFFFFFFFFFFFFFFFFFFFFFFFF AND PUSH2 0x8FC PUSH1 0x2 SLOAD SWAP1 DUP2 ISZERO MUL SWAP1 PUSH1 0x40 MLOAD PUSH1 0x0 PUSH1 0x40 MLOAD DUP1 DUP4 SUB DUP2 DUP6 DUP9 DUP9 CALL SWAP4 POP POP POP POP ISZERO DUP1 ISZERO PUSH2 0x14E5 JUMPI RETURNDATASIZE PUSH1 0x0 DUP1 RETURNDATACOPY RETURNDATASIZE PUSH1 0x0 REVERT JUMPDEST POP PUSH1 0x1 PUSH1 0x0 SWAP1 SLOAD SWAP1 PUSH2 0x100 EXP SWAP1 DIV PUSH20 0xFFFFFFFFFFFFFFFFFFFFFFFFFFFFFFFFFFFFFFFF AND PUSH20 0xFFFFFFFFFFFFFFFFFFFFFFFFFFFFFFFFFFFFFFFF AND PUSH2 0x8FC PUSH1 0x2 SLOAD SWAP1 DUP2 ISZERO MUL SWAP1 PUSH1 0x40 MLOAD PUSH1 0x0 PUSH1 0x40 MLOAD DUP1 DUP4 SUB DUP2 DUP6 DUP9 DUP9 CALL SWAP4 POP POP POP POP ISZERO DUP1 ISZERO PUSH2 0x1550 JUMPI RETURNDATASIZE PUSH1 0x0 DUP1 RETURNDATACOPY RETURNDATASIZE PUSH1 0x0 REVERT JUMPDEST POP PUSH2 0x174A JUMP JUMPDEST PUSH1 0x1 PUSH1 0x3 DUP2 GT ISZERO PUSH2 0x156A JUMPI PUSH2 0x1569 PUSH2 0x1A65 JUMP JUMPDEST JUMPDEST DUP3 PUSH1 0x3 DUP2 GT ISZERO PUSH2 0x157D JUMPI PUSH2 0x157C PUSH2 0x1A65 JUMP JUMPDEST JUMPDEST EQ DUP1 ISZERO PUSH2 0x15AD JUMPI POP PUSH1 0x3 DUP1 DUP2 GT ISZERO PUSH2 0x1598 JUMPI PUSH2 0x1597 PUSH2 0x1A65 JUMP JUMPDEST JUMPDEST DUP2 PUSH1 0x3 DUP2 GT ISZERO PUSH2 0x15AB JUMPI PUSH2 0x15AA PUSH2 0x1A65 JUMP JUMPDEST JUMPDEST EQ JUMPDEST DUP1 PUSH2 0x160C JUMPI POP PUSH1 0x2 PUSH1 0x3 DUP2 GT ISZERO PUSH2 0x15C7 JUMPI PUSH2 0x15C6 PUSH2 0x1A65 JUMP JUMPDEST JUMPDEST DUP3 PUSH1 0x3 DUP2 GT ISZERO PUSH2 0x15DA JUMPI PUSH2 0x15D9 PUSH2 0x1A65 JUMP JUMPDEST JUMPDEST EQ DUP1 ISZERO PUSH2 0x160B JUMPI POP PUSH1 0x1 PUSH1 0x3 DUP2 GT ISZERO PUSH2 0x15F6 JUMPI PUSH2 0x15F5 PUSH2 0x1A65 JUMP JUMPDEST JUMPDEST DUP2 PUSH1 0x3 DUP2 GT ISZERO PUSH2 0x1609 JUMPI PUSH2 0x1608 PUSH2 0x1A65 JUMP JUMPDEST JUMPDEST EQ JUMPDEST JUMPDEST DUP1 PUSH2 0x166A JUMPI POP PUSH1 0x3 DUP1 DUP2 GT ISZERO PUSH2 0x1625 JUMPI PUSH2 0x1624 PUSH2 0x1A65 JUMP JUMPDEST JUMPDEST DUP3 PUSH1 0x3 DUP2 GT ISZERO PUSH2 0x1638 JUMPI PUSH2 0x1637 PUSH2 0x1A65 JUMP JUMPDEST JUMPDEST EQ DUP1 ISZERO PUSH2 0x1669 JUMPI POP PUSH1 0x2 PUSH1 0x3 DUP2 GT ISZERO PUSH2 0x1654 JUMPI PUSH2 0x1653 PUSH2 0x1A65 JUMP JUMPDEST JUMPDEST DUP2 PUSH1 0x3 DUP2 GT ISZERO PUSH2 0x1667 JUMPI PUSH2 0x1666 PUSH2 0x1A65 JUMP JUMPDEST JUMPDEST EQ JUMPDEST JUMPDEST ISZERO PUSH2 0x16DD JUMPI PUSH1 0x0 DUP1 SLOAD SWAP1 PUSH2 0x100 EXP SWAP1 DIV PUSH20 0xFFFFFFFFFFFFFFFFFFFFFFFFFFFFFFFFFFFFFFFF AND PUSH20 0xFFFFFFFFFFFFFFFFFFFFFFFFFFFFFFFFFFFFFFFF AND PUSH2 0x8FC PUSH1 0x3 SLOAD SWAP1 DUP2 ISZERO MUL SWAP1 PUSH1 0x40 MLOAD PUSH1 0x0 PUSH1 0x40 MLOAD DUP1 DUP4 SUB DUP2 DUP6 DUP9 DUP9 CALL SWAP4 POP POP POP POP ISZERO DUP1 ISZERO PUSH2 0x16D7 JUMPI RETURNDATASIZE PUSH1 0x0 DUP1 RETURNDATACOPY RETURNDATASIZE PUSH1 0x0 REVERT JUMPDEST POP PUSH2 0x1749 JUMP JUMPDEST PUSH1 0x1 PUSH1 0x0 SWAP1 SLOAD SWAP1 PUSH2 0x100 EXP SWAP1 DIV PUSH20 0xFFFFFFFFFFFFFFFFFFFFFFFFFFFFFFFFFFFFFFFF AND PUSH20 0xFFFFFFFFFFFFFFFFFFFFFFFFFFFFFFFFFFFFFFFF AND PUSH2 0x8FC PUSH1 0x3 SLOAD SWAP1 DUP2 ISZERO MUL SWAP1 PUSH1 0x40 MLOAD PUSH1 0x0 PUSH1 0x40 MLOAD DUP1 DUP4 SUB DUP2 DUP6 DUP9 DUP9 CALL SWAP4 POP POP POP POP ISZERO DUP1 ISZERO PUSH2 0x1747 JUMPI RETURNDATASIZE PUSH1 0x0 DUP1 RETURNDATACOPY RETURNDATASIZE PUSH1 0x0 REVERT JUMPDEST POP JUMPDEST JUMPDEST PUSH1 0x1 PUSH1 0x5 PUSH1 0x0 PUSH2 0x100 EXP DUP2 SLOAD DUP2 PUSH1 0xFF MUL NOT AND SWAP1 DUP4 ISZERO ISZERO MUL OR SWAP1 SSTORE POP POP POP JUMP JUMPDEST PUSH1 0x0 DUP2 ISZERO ISZERO SWAP1 POP SWAP2 SWAP1 POP JUMP JUMPDEST PUSH2 0x177E DUP2 PUSH2 0x1769 JUMP JUMPDEST DUP3 MSTORE POP POP JUMP JUMPDEST PUSH1 0x0 PUSH1 0x20 DUP3 ADD SWAP1 POP PUSH2 0x1799 PUSH1 0x0 DUP4 ADD DUP5 PUSH2 0x1775 JUMP JUMPDEST SWAP3 SWAP2 POP POP JUMP JUMPDEST PUSH1 0x0 PUSH1 0x40 MLOAD SWAP1 POP SWAP1 JUMP JUMPDEST PUSH1 0x0 DUP1 REVERT JUMPDEST PUSH1 0x0 DUP1 REVERT JUMPDEST PUSH1 0x0 DUP1 REVERT JUMPDEST PUSH1 0x0 DUP1 REVERT JUMPDEST PUSH1 0x0 PUSH1 0x1F NOT PUSH1 0x1F DUP4 ADD AND SWAP1 POP SWAP2 SWAP1 POP JUMP JUMPDEST PUSH32 0x4E487B7100000000000000000000000000000000000000000000000000000000 PUSH1 0x0 MSTORE PUSH1 0x41 PUSH1 0x4 MSTORE PUSH1 0x24 PUSH1 0x0 REVERT JUMPDEST PUSH2 0x1806 DUP3 PUSH2 0x17BD JUMP JUMPDEST DUP2 ADD DUP2 DUP2 LT PUSH8 0xFFFFFFFFFFFFFFFF DUP3 GT OR ISZERO PUSH2 0x1825 JUMPI PUSH2 0x1824 PUSH2 0x17CE JUMP JUMPDEST JUMPDEST DUP1 PUSH1 0x40 MSTORE POP POP POP JUMP JUMPDEST PUSH1 0x0 PUSH2 0x1838 PUSH2 0x179F JUMP JUMPDEST SWAP1 POP PUSH2 0x1844 DUP3 DUP3 PUSH2 0x17FD JUMP JUMPDEST SWAP2 SWAP1 POP JUMP JUMPDEST PUSH1 0x0 PUSH8 0xFFFFFFFFFFFFFFFF DUP3 GT ISZERO PUSH2 0x1864 JUMPI PUSH2 0x1863 PUSH2 0x17CE JUMP JUMPDEST JUMPDEST PUSH2 0x186D DUP3 PUSH2 0x17BD JUMP JUMPDEST SWAP1 POP PUSH1 0x20 DUP2 ADD SWAP1 POP SWAP2 SWAP1 POP JUMP JUMPDEST DUP3 DUP2 DUP4 CALLDATACOPY PUSH1 0x0 DUP4 DUP4 ADD MSTORE POP POP POP JUMP JUMPDEST PUSH1 0x0 PUSH2 0x189C PUSH2 0x1897 DUP5 PUSH2 0x1849 JUMP JUMPDEST PUSH2 0x182E JUMP JUMPDEST SWAP1 POP DUP3 DUP2 MSTORE PUSH1 0x20 DUP2 ADD DUP5 DUP5 DUP5 ADD GT ISZERO PUSH2 0x18B8 JUMPI PUSH2 0x18B7 PUSH2 0x17B8 JUMP JUMPDEST JUMPDEST PUSH2 0x18C3 DUP5 DUP3 DUP6 PUSH2 0x187A JUMP JUMPDEST POP SWAP4 SWAP3 POP POP POP JUMP JUMPDEST PUSH1 0x0 DUP3 PUSH1 0x1F DUP4 ADD SLT PUSH2 0x18E0 JUMPI PUSH2 0x18DF PUSH2 0x17B3 JUMP JUMPDEST JUMPDEST DUP2 CALLDATALOAD PUSH2 0x18F0 DUP5 DUP3 PUSH1 0x20 DUP7 ADD PUSH2 0x1889 JUMP JUMPDEST SWAP2 POP POP SWAP3 SWAP2 POP POP JUMP JUMPDEST PUSH1 0x0 PUSH1 0x20 DUP3 DUP5 SUB SLT ISZERO PUSH2 0x190F JUMPI PUSH2 0x190E PUSH2 0x17A9 JUMP JUMPDEST JUMPDEST PUSH1 0x0 DUP3 ADD CALLDATALOAD PUSH8 0xFFFFFFFFFFFFFFFF DUP2 GT ISZERO PUSH2 0x192D JUMPI PUSH2 0x192C PUSH2 0x17AE JUMP JUMPDEST JUMPDEST PUSH2 0x1939 DUP5 DUP3 DUP6 ADD PUSH2 0x18CB JUMP JUMPDEST SWAP2 POP POP SWAP3 SWAP2 POP POP JUMP JUMPDEST PUSH1 0x0 DUP2 SWAP1 POP SWAP2 SWAP1 POP JUMP JUMPDEST PUSH2 0x1955 DUP2 PUSH2 0x1942 JUMP JUMPDEST DUP3 MSTORE POP POP JUMP JUMPDEST PUSH1 0x0 PUSH1 0x20 DUP3 ADD SWAP1 POP PUSH2 0x1970 PUSH1 0x0 DUP4 ADD DUP5 PUSH2 0x194C JUMP JUMPDEST SWAP3 SWAP2 POP POP JUMP JUMPDEST PUSH1 0x0 PUSH20 0xFFFFFFFFFFFFFFFFFFFFFFFFFFFFFFFFFFFFFFFF DUP3 AND SWAP1 POP SWAP2 SWAP1 POP JUMP JUMPDEST PUSH1 0x0 PUSH2 0x19A1 DUP3 PUSH2 0x1976 JUMP JUMPDEST SWAP1 POP SWAP2 SWAP1 POP JUMP JUMPDEST PUSH2 0x19B1 DUP2 PUSH2 0x1996 JUMP JUMPDEST DUP3 MSTORE POP POP JUMP JUMPDEST PUSH1 0x0 PUSH1 0x20 DUP3 ADD SWAP1 POP PUSH2 0x19CC PUSH1 0x0 DUP4 ADD DUP5 PUSH2 0x19A8 JUMP JUMPDEST SWAP3 SWAP2 POP POP JUMP JUMPDEST PUSH1 0x0 PUSH2 0x19DD DUP3 PUSH2 0x1976 JUMP JUMPDEST SWAP1 POP SWAP2 SWAP1 POP JUMP JUMPDEST PUSH2 0x19ED DUP2 PUSH2 0x19D2 JUMP JUMPDEST DUP2 EQ PUSH2 0x19F8 JUMPI PUSH1 0x0 DUP1 REVERT JUMPDEST POP JUMP JUMPDEST PUSH1 0x0 DUP2 CALLDATALOAD SWAP1 POP PUSH2 0x1A0A DUP2 PUSH2 0x19E4 JUMP JUMPDEST SWAP3 SWAP2 POP POP JUMP JUMPDEST PUSH1 0x0 PUSH1 0x20 DUP3 DUP5 SUB SLT ISZERO PUSH2 0x1A26 JUMPI PUSH2 0x1A25 PUSH2 0x17A9 JUMP JUMPDEST JUMPDEST PUSH1 0x0 PUSH2 0x1A34 DUP5 DUP3 DUP6 ADD PUSH2 0x19FB JUMP JUMPDEST SWAP2 POP POP SWAP3 SWAP2 POP POP JUMP JUMPDEST PUSH2 0x1A46 DUP2 PUSH2 0x19D2 JUMP JUMPDEST DUP3 MSTORE POP POP JUMP JUMPDEST PUSH1 0x0 DUP2 SWAP1 POP SWAP2 SWAP1 POP JUMP JUMPDEST PUSH2 0x1A5F DUP2 PUSH2 0x1A4C JUMP JUMPDEST DUP3 MSTORE POP POP JUMP JUMPDEST PUSH32 0x4E487B7100000000000000000000000000000000000000000000000000000000 PUSH1 0x0 MSTORE PUSH1 0x21 PUSH1 0x4 MSTORE PUSH1 0x24 PUSH1 0x0 REVERT JUMPDEST PUSH1 0x4 DUP2 LT PUSH2 0x1AA5 JUMPI PUSH2 0x1AA4 PUSH2 0x1A65 JUMP JUMPDEST JUMPDEST POP JUMP JUMPDEST PUSH1 0x0 DUP2 SWAP1 POP PUSH2 0x1AB6 DUP3 PUSH2 0x1A94 JUMP JUMPDEST SWAP2 SWAP1 POP JUMP JUMPDEST PUSH1 0x0 PUSH2 0x1AC6 DUP3 PUSH2 0x1AA8 JUMP JUMPDEST SWAP1 POP SWAP2 SWAP1 POP JUMP JUMPDEST PUSH2 0x1AD6 DUP2 PUSH2 0x1ABB JUMP JUMPDEST DUP3 MSTORE POP POP JUMP JUMPDEST PUSH1 0x0 DUP2 MLOAD SWAP1 POP SWAP2 SWAP1 POP JUMP JUMPDEST PUSH1 0x0 DUP3 DUP3 MSTORE PUSH1 0x20 DUP3 ADD SWAP1 POP SWAP3 SWAP2 POP POP JUMP JUMPDEST PUSH1 0x0 JUMPDEST DUP4 DUP2 LT ISZERO PUSH2 0x1B16 JUMPI DUP1 DUP3 ADD MLOAD DUP2 DUP5 ADD MSTORE PUSH1 0x20 DUP2 ADD SWAP1 POP PUSH2 0x1AFB JUMP JUMPDEST PUSH1 0x0 DUP5 DUP5 ADD MSTORE POP POP POP POP JUMP JUMPDEST PUSH1 0x0 PUSH2 0x1B2D DUP3 PUSH2 0x1ADC JUMP JUMPDEST PUSH2 0x1B37 DUP2 DUP6 PUSH2 0x1AE7 JUMP JUMPDEST SWAP4 POP PUSH2 0x1B47 DUP2 DUP6 PUSH1 0x20 DUP7 ADD PUSH2 0x1AF8 JUMP JUMPDEST PUSH2 0x1B50 DUP2 PUSH2 0x17BD JUMP JUMPDEST DUP5 ADD SWAP2 POP POP SWAP3 SWAP2 POP POP JUMP JUMPDEST PUSH1 0x0 PUSH1 0xA0 DUP3 ADD SWAP1 POP PUSH2 0x1B70 PUSH1 0x0 DUP4 ADD DUP9 PUSH2 0x1A3D JUMP JUMPDEST PUSH2 0x1B7D PUSH1 0x20 DUP4 ADD DUP8 PUSH2 0x1A56 JUMP JUMPDEST PUSH2 0x1B8A PUSH1 0x40 DUP4 ADD DUP7 PUSH2 0x1ACD JUMP JUMPDEST DUP2 DUP2 SUB PUSH1 0x60 DUP4 ADD MSTORE PUSH2 0x1B9C DUP2 DUP6 PUSH2 0x1B22 JUMP JUMPDEST SWAP1 POP PUSH2 0x1BAB PUSH1 0x80 DUP4 ADD DUP5 PUSH2 0x1775 JUMP JUMPDEST SWAP7 SWAP6 POP POP POP POP POP POP JUMP JUMPDEST PUSH2 0x1BBE DUP2 PUSH2 0x1A4C JUMP JUMPDEST DUP2 EQ PUSH2 0x1BC9 JUMPI PUSH1 0x0 DUP1 REVERT JUMPDEST POP JUMP JUMPDEST PUSH1 0x0 DUP2 CALLDATALOAD SWAP1 POP PUSH2 0x1BDB DUP2 PUSH2 0x1BB5 JUMP JUMPDEST SWAP3 SWAP2 POP POP JUMP JUMPDEST PUSH1 0x0 PUSH1 0x20 DUP3 DUP5 SUB SLT ISZERO PUSH2 0x1BF7 JUMPI PUSH2 0x1BF6 PUSH2 0x17A9 JUMP JUMPDEST JUMPDEST PUSH1 0x0 PUSH2 0x1C05 DUP5 DUP3 DUP6 ADD PUSH2 0x1BCC JUMP JUMPDEST SWAP2 POP POP SWAP3 SWAP2 POP POP JUMP JUMPDEST PUSH32 0x5468652067616D6520697320616C72656164792066696E69736865642E000000 PUSH1 0x0 DUP3 ADD MSTORE POP JUMP JUMPDEST PUSH1 0x0 PUSH2 0x1C44 PUSH1 0x1D DUP4 PUSH2 0x1AE7 JUMP JUMPDEST SWAP2 POP PUSH2 0x1C4F DUP3 PUSH2 0x1C0E JUMP JUMPDEST PUSH1 0x20 DUP3 ADD SWAP1 POP SWAP2 SWAP1 POP JUMP JUMPDEST PUSH1 0x0 PUSH1 0x20 DUP3 ADD SWAP1 POP DUP2 DUP2 SUB PUSH1 0x0 DUP4 ADD MSTORE PUSH2 0x1C73 DUP2 PUSH2 0x1C37 JUMP JUMPDEST SWAP1 POP SWAP2 SWAP1 POP JUMP JUMPDEST PUSH32 0x496E73756666696369656E742062657420616D6F756E742E0000000000000000 PUSH1 0x0 DUP3 ADD MSTORE POP JUMP JUMPDEST PUSH1 0x0 PUSH2 0x1CB0 PUSH1 0x18 DUP4 PUSH2 0x1AE7 JUMP JUMPDEST SWAP2 POP PUSH2 0x1CBB DUP3 PUSH2 0x1C7A JUMP JUMPDEST PUSH1 0x20 DUP3 ADD SWAP1 POP SWAP2 SWAP1 POP JUMP JUMPDEST PUSH1 0x0 PUSH1 0x20 DUP3 ADD SWAP1 POP DUP2 DUP2 SUB PUSH1 0x0 DUP4 ADD MSTORE PUSH2 0x1CDF DUP2 PUSH2 0x1CA3 JUMP JUMPDEST SWAP1 POP SWAP2 SWAP1 POP JUMP JUMPDEST PUSH32 0x426F746820706C61796572732061726520616C72656164792072656769737465 PUSH1 0x0 DUP3 ADD MSTORE PUSH32 0x7265642E00000000000000000000000000000000000000000000000000000000 PUSH1 0x20 DUP3 ADD MSTORE POP JUMP JUMPDEST PUSH1 0x0 PUSH2 0x1D42 PUSH1 0x24 DUP4 PUSH2 0x1AE7 JUMP JUMPDEST SWAP2 POP PUSH2 0x1D4D DUP3 PUSH2 0x1CE6 JUMP JUMPDEST PUSH1 0x40 DUP3 ADD SWAP1 POP SWAP2 SWAP1 POP JUMP JUMPDEST PUSH1 0x0 PUSH1 0x20 DUP3 ADD SWAP1 POP DUP2 DUP2 SUB PUSH1 0x0 DUP4 ADD MSTORE PUSH2 0x1D71 DUP2 PUSH2 0x1D35 JUMP JUMPDEST SWAP1 POP SWAP2 SWAP1 POP JUMP JUMPDEST PUSH32 0x596F7520617265206E6F742072656769737465726564206173206120706C6179 PUSH1 0x0 DUP3 ADD MSTORE PUSH32 0x65722E0000000000000000000000000000000000000000000000000000000000 PUSH1 0x20 DUP3 ADD MSTORE POP JUMP JUMPDEST PUSH1 0x0 PUSH2 0x1DD4 PUSH1 0x23 DUP4 PUSH2 0x1AE7 JUMP JUMPDEST SWAP2 POP PUSH2 0x1DDF DUP3 PUSH2 0x1D78 JUMP JUMPDEST PUSH1 0x40 DUP3 ADD SWAP1 POP SWAP2 SWAP1 POP JUMP JUMPDEST PUSH1 0x0 PUSH1 0x20 DUP3 ADD SWAP1 POP DUP2 DUP2 SUB PUSH1 0x0 DUP4 ADD MSTORE PUSH2 0x1E03 DUP2 PUSH2 0x1DC7 JUMP JUMPDEST SWAP1 POP SWAP2 SWAP1 POP JUMP JUMPDEST PUSH1 0x0 DUP2 SWAP1 POP SWAP3 SWAP2 POP POP JUMP JUMPDEST PUSH1 0x0 PUSH2 0x1E20 DUP3 PUSH2 0x1ADC JUMP JUMPDEST PUSH2 0x1E2A DUP2 DUP6 PUSH2 0x1E0A JUMP JUMPDEST SWAP4 POP PUSH2 0x1E3A DUP2 DUP6 PUSH1 0x20 DUP7 ADD PUSH2 0x1AF8 JUMP JUMPDEST DUP1 DUP5 ADD SWAP2 POP POP SWAP3 SWAP2 POP POP JUMP JUMPDEST PUSH1 0x0 PUSH2 0x1E52 DUP3 DUP5 PUSH2 0x1E15 JUMP JUMPDEST SWAP2 POP DUP2 SWAP1 POP SWAP3 SWAP2 POP POP JUMP JUMPDEST PUSH32 0x496E76616C696420636C656172206D6F76652E00000000000000000000000000 PUSH1 0x0 DUP3 ADD MSTORE POP JUMP JUMPDEST PUSH1 0x0 PUSH2 0x1E93 PUSH1 0x13 DUP4 PUSH2 0x1AE7 JUMP JUMPDEST SWAP2 POP PUSH2 0x1E9E DUP3 PUSH2 0x1E5D JUMP JUMPDEST PUSH1 0x20 DUP3 ADD SWAP1 POP SWAP2 SWAP1 POP JUMP JUMPDEST PUSH1 0x0 PUSH1 0x20 DUP3 ADD SWAP1 POP DUP2 DUP2 SUB PUSH1 0x0 DUP4 ADD MSTORE PUSH2 0x1EC2 DUP2 PUSH2 0x1E86 JUMP JUMPDEST SWAP1 POP SWAP2 SWAP1 POP JUMP JUMPDEST PUSH32 0x596F7527766520616C72656164792072657665616C656420796F7572206D6F76 PUSH1 0x0 DUP3 ADD MSTORE PUSH32 0x652E000000000000000000000000000000000000000000000000000000000000 PUSH1 0x20 DUP3 ADD MSTORE POP JUMP JUMPDEST PUSH1 0x0 PUSH2 0x1F25 PUSH1 0x22 DUP4 PUSH2 0x1AE7 JUMP JUMPDEST SWAP2 POP PUSH2 0x1F30 DUP3 PUSH2 0x1EC9 JUMP JUMPDEST PUSH1 0x40 DUP3 ADD SWAP1 POP SWAP2 SWAP1 POP JUMP JUMPDEST PUSH1 0x0 PUSH1 0x20 DUP3 ADD SWAP1 POP DUP2 DUP2 SUB PUSH1 0x0 DUP4 ADD MSTORE PUSH2 0x1F54 DUP2 PUSH2 0x1F18 JUMP JUMPDEST SWAP1 POP SWAP2 SWAP1 POP JUMP JUMPDEST PUSH32 0x4E487B7100000000000000000000000000000000000000000000000000000000 PUSH1 0x0 MSTORE PUSH1 0x22 PUSH1 0x4 MSTORE PUSH1 0x24 PUSH1 0x0 REVERT JUMPDEST PUSH1 0x0 PUSH1 0x2 DUP3 DIV SWAP1 POP PUSH1 0x1 DUP3 AND DUP1 PUSH2 0x1FA2 JUMPI PUSH1 0x7F DUP3 AND SWAP2 POP JUMPDEST PUSH1 0x20 DUP3 LT DUP2 SUB PUSH2 0x1FB5 JUMPI PUSH2 0x1FB4 PUSH2 0x1F5B JUMP JUMPDEST JUMPDEST POP SWAP2 SWAP1 POP JUMP JUMPDEST PUSH1 0x0 DUP2 SWAP1 POP DUP2 PUSH1 0x0 MSTORE PUSH1 0x20 PUSH1 0x0 KECCAK256 SWAP1 POP SWAP2 SWAP1 POP JUMP JUMPDEST PUSH1 0x0 PUSH1 0x20 PUSH1 0x1F DUP4 ADD DIV SWAP1 POP SWAP2 SWAP1 POP JUMP JUMPDEST PUSH1 0x0 DUP3 DUP3 SHL SWAP1 POP SWAP3 SWAP2 POP POP JUMP JUMPDEST PUSH1 0x0 PUSH1 0x8 DUP4 MUL PUSH2 0x201D PUSH32 0xFFFFFFFFFFFFFFFFFFFFFFFFFFFFFFFFFFFFFFFFFFFFFFFFFFFFFFFFFFFFFFFF DUP3 PUSH2 0x1FE0 JUMP JUMPDEST PUSH2 0x2027 DUP7 DUP4 PUSH2 0x1FE0 JUMP JUMPDEST SWAP6 POP DUP1 NOT DUP5 AND SWAP4 POP DUP1 DUP7 AND DUP5 OR SWAP3 POP POP POP SWAP4 SWAP3 POP POP POP JUMP JUMPDEST PUSH1 0x0 DUP2 SWAP1 POP SWAP2 SWAP1 POP JUMP JUMPDEST PUSH1 0x0 PUSH2 0x2064 PUSH2 0x205F PUSH2 0x205A DUP5 PUSH2 0x1942 JUMP JUMPDEST PUSH2 0x203F JUMP JUMPDEST PUSH2 0x1942 JUMP JUMPDEST SWAP1 POP SWAP2 SWAP1 POP JUMP JUMPDEST PUSH1 0x0 DUP2 SWAP1 POP SWAP2 SWAP1 POP JUMP JUMPDEST PUSH2 0x207E DUP4 PUSH2 0x2049 JUMP JUMPDEST PUSH2 0x2092 PUSH2 0x208A DUP3 PUSH2 0x206B JUMP JUMPDEST DUP5 DUP5 SLOAD PUSH2 0x1FED JUMP JUMPDEST DUP3 SSTORE POP POP POP POP JUMP JUMPDEST PUSH1 0x0 SWAP1 JUMP JUMPDEST PUSH2 0x20A7 PUSH2 0x209A JUMP JUMPDEST PUSH2 0x20B2 DUP2 DUP5 DUP5 PUSH2 0x2075 JUMP JUMPDEST POP POP POP JUMP JUMPDEST JUMPDEST DUP2 DUP2 LT ISZERO PUSH2 0x20D6 JUMPI PUSH2 0x20CB PUSH1 0x0 DUP3 PUSH2 0x209F JUMP JUMPDEST PUSH1 0x1 DUP2 ADD SWAP1 POP PUSH2 0x20B8 JUMP JUMPDEST POP POP JUMP JUMPDEST PUSH1 0x1F DUP3 GT ISZERO PUSH2 0x211B JUMPI PUSH2 0x20EC DUP2 PUSH2 0x1FBB JUMP JUMPDEST PUSH2 0x20F5 DUP5 PUSH2 0x1FD0 JUMP JUMPDEST DUP2 ADD PUSH1 0x20 DUP6 LT ISZERO PUSH2 0x2104 JUMPI DUP2 SWAP1 POP JUMPDEST PUSH2 0x2118 PUSH2 0x2110 DUP6 PUSH2 0x1FD0 JUMP JUMPDEST DUP4 ADD DUP3 PUSH2 0x20B7 JUMP JUMPDEST POP POP JUMPDEST POP POP POP JUMP JUMPDEST PUSH1 0x0 DUP3 DUP3 SHR SWAP1 POP SWAP3 SWAP2 POP POP JUMP JUMPDEST PUSH1 0x0 PUSH2 0x213E PUSH1 0x0 NOT DUP5 PUSH1 0x8 MUL PUSH2 0x2120 JUMP JUMPDEST NOT DUP1 DUP4 AND SWAP2 POP POP SWAP3 SWAP2 POP POP JUMP JUMPDEST PUSH1 0x0 PUSH2 0x2157 DUP4 DUP4 PUSH2 0x212D JUMP JUMPDEST SWAP2 POP DUP3 PUSH1 0x2 MUL DUP3 OR SWAP1 POP SWAP3 SWAP2 POP POP JUMP JUMPDEST PUSH2 0x2170 DUP3 PUSH2 0x1ADC JUMP JUMPDEST PUSH8 0xFFFFFFFFFFFFFFFF DUP2 GT ISZERO PUSH2 0x2189 JUMPI PUSH2 0x2188 PUSH2 0x17CE JUMP JUMPDEST JUMPDEST PUSH2 0x2193 DUP3 SLOAD PUSH2 0x1F8A JUMP JUMPDEST PUSH2 0x219E DUP3 DUP3 DUP6 PUSH2 0x20DA JUMP JUMPDEST PUSH1 0x0 PUSH1 0x20 SWAP1 POP PUSH1 0x1F DUP4 GT PUSH1 0x1 DUP2 EQ PUSH2 0x21D1 JUMPI PUSH1 0x0 DUP5 ISZERO PUSH2 0x21BF JUMPI DUP3 DUP8 ADD MLOAD SWAP1 POP JUMPDEST PUSH2 0x21C9 DUP6 DUP3 PUSH2 0x214B JUMP JUMPDEST DUP7 SSTORE POP PUSH2 0x2231 JUMP JUMPDEST PUSH1 0x1F NOT DUP5 AND PUSH2 0x21DF DUP7 PUSH2 0x1FBB JUMP JUMPDEST PUSH1 0x0 JUMPDEST DUP3 DUP2 LT ISZERO PUSH2 0x2207 JUMPI DUP5 DUP10 ADD MLOAD DUP3 SSTORE PUSH1 0x1 DUP3 ADD SWAP2 POP PUSH1 0x20 DUP6 ADD SWAP5 POP PUSH1 0x20 DUP2 ADD SWAP1 POP PUSH2 0x21E2 JUMP JUMPDEST DUP7 DUP4 LT ISZERO PUSH2 0x2224 JUMPI DUP5 DUP10 ADD MLOAD PUSH2 0x2220 PUSH1 0x1F DUP10 AND DUP3 PUSH2 0x212D JUMP JUMPDEST DUP4 SSTORE POP JUMPDEST PUSH1 0x1 PUSH1 0x2 DUP9 MUL ADD DUP9 SSTORE POP POP POP JUMPDEST POP POP POP POP POP POP JUMP JUMPDEST PUSH32 0x596F7527766520616C726561647920706C617965642E00000000000000000000 PUSH1 0x0 DUP3 ADD MSTORE POP JUMP JUMPDEST PUSH1 0x0 PUSH2 0x226F PUSH1 0x16 DUP4 PUSH2 0x1AE7 JUMP JUMPDEST SWAP2 POP PUSH2 0x227A DUP3 PUSH2 0x2239 JUMP JUMPDEST PUSH1 0x20 DUP3 ADD SWAP1 POP SWAP2 SWAP1 POP JUMP JUMPDEST PUSH1 0x0 PUSH1 0x20 DUP3 ADD SWAP1 POP DUP2 DUP2 SUB PUSH1 0x0 DUP4 ADD MSTORE PUSH2 0x229E DUP2 PUSH2 0x2262 JUMP JUMPDEST SWAP1 POP SWAP2 SWAP1 POP JUMP JUMPDEST PUSH32 0x526F636B00000000000000000000000000000000000000000000000000000000 PUSH1 0x0 DUP3 ADD MSTORE POP JUMP JUMPDEST PUSH1 0x0 PUSH2 0x22DB PUSH1 0x4 DUP4 PUSH2 0x1E0A JUMP JUMPDEST SWAP2 POP PUSH2 0x22E6 DUP3 PUSH2 0x22A5 JUMP JUMPDEST PUSH1 0x4 DUP3 ADD SWAP1 POP SWAP2 SWAP1 POP JUMP JUMPDEST PUSH1 0x0 PUSH2 0x22FC DUP3 PUSH2 0x22CE JUMP JUMPDEST SWAP2 POP DUP2 SWAP1 POP SWAP2 SWAP1 POP JUMP JUMPDEST PUSH32 0x5061706572000000000000000000000000000000000000000000000000000000 PUSH1 0x0 DUP3 ADD MSTORE POP JUMP JUMPDEST PUSH1 0x0 PUSH2 0x233C PUSH1 0x5 DUP4 PUSH2 0x1E0A JUMP JUMPDEST SWAP2 POP PUSH2 0x2347 DUP3 PUSH2 0x2306 JUMP JUMPDEST PUSH1 0x5 DUP3 ADD SWAP1 POP SWAP2 SWAP1 POP JUMP JUMPDEST PUSH1 0x0 PUSH2 0x235D DUP3 PUSH2 0x232F JUMP JUMPDEST SWAP2 POP DUP2 SWAP1 POP SWAP2 SWAP1 POP JUMP JUMPDEST PUSH32 0x53636973736F7273000000000000000000000000000000000000000000000000 PUSH1 0x0 DUP3 ADD MSTORE POP JUMP JUMPDEST PUSH1 0x0 PUSH2 0x239D PUSH1 0x8 DUP4 PUSH2 0x1E0A JUMP JUMPDEST SWAP2 POP PUSH2 0x23A8 DUP3 PUSH2 0x2367 JUMP JUMPDEST PUSH1 0x8 DUP3 ADD SWAP1 POP SWAP2 SWAP1 POP JUMP JUMPDEST PUSH1 0x0 PUSH2 0x23BE DUP3 PUSH2 0x2390 JUMP JUMPDEST SWAP2 POP DUP2 SWAP1 POP SWAP2 SWAP1 POP JUMP JUMPDEST PUSH32 0x426F746820706C6179657273206D7573742072657665616C207468656972206D PUSH1 0x0 DUP3 ADD MSTORE PUSH32 0x6F7665732E000000000000000000000000000000000000000000000000000000 PUSH1 0x20 DUP3 ADD MSTORE POP JUMP JUMPDEST PUSH1 0x0 PUSH2 0x2424 PUSH1 0x25 DUP4 PUSH2 0x1AE7 JUMP JUMPDEST SWAP2 POP PUSH2 0x242F DUP3 PUSH2 0x23C8 JUMP JUMPDEST PUSH1 0x40 DUP3 ADD SWAP1 POP SWAP2 SWAP1 POP JUMP JUMPDEST PUSH1 0x0 PUSH1 0x20 DUP3 ADD SWAP1 POP DUP2 DUP2 SUB PUSH1 0x0 DUP4 ADD MSTORE PUSH2 0x2453 DUP2 PUSH2 0x2417 JUMP JUMPDEST SWAP1 POP SWAP2 SWAP1 POP JUMP INVALID LOG2 PUSH5 0x6970667358 0x22 SLT KECCAK256 0xBE SELFDESTRUCT CREATE PUSH16 0x30D2855E28CF21BC5DD5C903949D3CCF SELFBALANCE 0xEA 0xA7 0xB8 CHAINID 0xE7 0x29 PUSH4 0x2833D019 PUSH5 0x736F6C6343 STOP ADDMOD SLT STOP CALLER "
				},
				"gasEstimates": {
					"creation": {
						"codeDepositCost": "1872000",
						"executionCost": "72616",
						"totalCost": "1944616"
					},
					"external": {
						"bothPlayed()": "9085",
						"bothRevealed()": "9150",
						"contractBalance()": "2474",
						"gameFinished()": "2559",
						"games(address)": "infinite",
						"getContractBalance()": "406",
						"minimumBet()": "2496",
						"play(bytes32)": "31359",
						"player1()": "2555",
						"player2()": "2559",
						"register()": "33042",
						"reveal(string)": "infinite",
						"revealTimeLeft()": "9155",
						"whoAmI()": "4754"
					},
					"internal": {
						"determineWinner()": "infinite",
						"getMoveFromString(string memory)": "infinite"
					}
				},
				"methodIdentifiers": {
					"bothPlayed()": "807c8504",
					"bothRevealed()": "43445ca8",
					"contractBalance()": "8b7afe2e",
					"gameFinished()": "f0f32497",
					"games(address)": "79131a19",
					"getContractBalance()": "6f9fb98a",
					"minimumBet()": "c38a8afd",
					"play(bytes32)": "c7a1865b",
					"player1()": "d30895e4",
					"player2()": "59a5f12d",
					"register()": "1aa3a008",
					"reveal(string)": "4c261247",
					"revealTimeLeft()": "51dcb1c3",
					"whoAmI()": "da91254c"
				}
			},
			"storageLayout": {
				"storage": [
					{
						"astId": 3,
						"contract": "rockpsciccors.sol:RockPaperScissors",
						"label": "player1",
						"offset": 0,
						"slot": "0",
						"type": "t_address_payable"
					},
					{
						"astId": 5,
						"contract": "rockpsciccors.sol:RockPaperScissors",
						"label": "player2",
						"offset": 0,
						"slot": "1",
						"type": "t_address_payable"
					},
					{
						"astId": 8,
						"contract": "rockpsciccors.sol:RockPaperScissors",
						"label": "minimumBet",
						"offset": 0,
						"slot": "2",
						"type": "t_uint256"
					},
					{
						"astId": 10,
						"contract": "rockpsciccors.sol:RockPaperScissors",
						"label": "contractBalance",
						"offset": 0,
						"slot": "3",
						"type": "t_uint256"
					},
					{
						"astId": 32,
						"contract": "rockpsciccors.sol:RockPaperScissors",
						"label": "games",
						"offset": 0,
						"slot": "4",
						"type": "t_mapping(t_address,t_struct(Game)27_storage)"
					},
					{
						"astId": 34,
						"contract": "rockpsciccors.sol:RockPaperScissors",
						"label": "gameFinished",
						"offset": 0,
						"slot": "5",
						"type": "t_bool"
					}
				],
				"types": {
					"t_address": {
						"encoding": "inplace",
						"label": "address",
						"numberOfBytes": "20"
					},
					"t_address_payable": {
						"encoding": "inplace",
						"label": "address payable",
						"numberOfBytes": "20"
					},
					"t_bool": {
						"encoding": "inplace",
						"label": "bool",
						"numberOfBytes": "1"
					},
					"t_bytes32": {
						"encoding": "inplace",
						"label": "bytes32",
						"numberOfBytes": "32"
					},
					"t_enum(Move)15": {
						"encoding": "inplace",
						"label": "enum RockPaperScissors.Move",
						"numberOfBytes": "1"
					},
					"t_mapping(t_address,t_struct(Game)27_storage)": {
						"encoding": "mapping",
						"key": "t_address",
						"label": "mapping(address => struct RockPaperScissors.Game)",
						"numberOfBytes": "32",
						"value": "t_struct(Game)27_storage"
					},
					"t_string_storage": {
						"encoding": "bytes",
						"label": "string",
						"numberOfBytes": "32"
					},
					"t_struct(Game)27_storage": {
						"encoding": "inplace",
						"label": "struct RockPaperScissors.Game",
						"members": [
							{
								"astId": 17,
								"contract": "rockpsciccors.sol:RockPaperScissors",
								"label": "player",
								"offset": 0,
								"slot": "0",
								"type": "t_address"
							},
							{
								"astId": 19,
								"contract": "rockpsciccors.sol:RockPaperScissors",
								"label": "hashedMove",
								"offset": 0,
								"slot": "1",
								"type": "t_bytes32"
							},
							{
								"astId": 22,
								"contract": "rockpsciccors.sol:RockPaperScissors",
								"label": "move",
								"offset": 0,
								"slot": "2",
								"type": "t_enum(Move)15"
							},
							{
								"astId": 24,
								"contract": "rockpsciccors.sol:RockPaperScissors",
								"label": "clearMove",
								"offset": 0,
								"slot": "3",
								"type": "t_string_storage"
							},
							{
								"astId": 26,
								"contract": "rockpsciccors.sol:RockPaperScissors",
								"label": "revealed",
								"offset": 0,
								"slot": "4",
								"type": "t_bool"
							}
						],
						"numberOfBytes": "160"
					},
					"t_uint256": {
						"encoding": "inplace",
						"label": "uint256",
						"numberOfBytes": "32"
					}
				}
			},
			"userdoc": {
				"kind": "user",
				"methods": {},
				"version": 1
			}
		}
	}
}